:020000040800F2
:10000000981101209D010008C91E00080B1D000861
:10001000C51E0008CB070008A92600080000000044
:10002000000000000000000000000000CD220008D9
:10003000B708000800000000F91E00084D23000862
:10004000B7010008B7010008B7010008B7010008B0
:10005000B7010008B7010008B7010008B7010008A0
:10006000B7010008B7010008B7010008B701000890
:10007000B7010008B7010008B7010008B701000880
:10008000B7010008B7010008B7010008B701000870
:10009000B7010008B7010008B7010008B701000860
:1000A000B7010008B7010008B7010008B701000850
:1000B000B7010008B7010008B7010008B701000840
:1000C000B7010008B7010008B7010008B701000830
:1000D000B7010008B7010008B7010008B701000820
:1000E000B7010008B7010008B7010008B701000810
:1000F000B7010008B7010008B7010008B701000800
:10010000B7010008B7010008B7010008B7010008EF
:10011000B7010008B7010008B7010008B7010008DF
:10012000B7010008B7010008B7010008B7010008CF
:10013000B7010008B7010008B7010008B7010008BF
:10014000B7010008B7010008B7010008B7010008AF
:10015000B7010008B7010008B7010008B70100089F
:10016000B7010008B7010008B7010008B70100088F
:10017000B7010008B70100080000000000000000FF
:10018000B7010008B7010008DFF80CD000F09CFAB6
:1001900000480047515B000898110120064880473D
:1001A00006480047FEE7FEE7FEE7FEE7FEE7FEE75C
:1001B000FEE7FEE7FEE7FEE7E92300088901000805
:1001C0002DE9F05F0546002092469B46884606468C
:1001D000814640241BE0284641464746224600F01F
:1001E0009FF853465A46C01A914110D311461846FB
:1001F000224600F086F82D1A67EB01084F4622468A
:100200000120002100F07DF817EB00094E41201E6F
:10021000A4F10104DFDC484631462A46434600F09B
:1002200000B830BCBDE8C09F0649074A0868504383
:1002300043F23902104408604008704701490860E1
:10024000704700002C0000106D4EC64110B5431AD7
:10025000934209D28318881803E010F8011D03F8AF
:10026000011D521EF9D210BD40EA01039B0703D0C5
:1002700009E008C9121F08C0042AFAD203E011F8E5
:10028000013B00F8013B521EF9D210BDD2B201E091
:1002900000F8012B491EFBD270470022F6E710B58B
:1002A00013460A4604461946FFF7F0FF204610BDE4
:1002B00000F0004230F000400AD0C10D01F560713D
:1002C000C0F3160042EA0151C208400711437047CB
:1002D00000200146704730B50B4601460020202221
:1002E000012409E021FA02F59D4205D303FA02F543
:1002F000491B04FA02F52844151EA2F10102F1DCA3
:1003000030BD202A04DB203A00FA02F100207047B9
:100310009140C2F1200320FA03F319439040704743
:10032000202A04DB203A21FA02F00021704721FA4A
:1003300002F3D040C2F120029140084319467047B1
:100340002DE9FE4F804681EA0300C00F0C46009065
:1003500021F0004123F00045B8EB0200A94105D28D
:100360004046214690461C460B46024623F000407C
:10037000104347D0270DC7F30A00C3F30A51029078
:10038000401A019040286BDAC3F3130040F4801B3D
:100390000098924620B10023D2EB030A63EB0B0BCB
:1003A00001985946C0F140025046FFF7AAFF0646A1
:1003B0000D4650465946019A00F098F910EB080096
:1003C0006141002487EA115284EAE7731A4340D05E
:1003D000009A62B3019A012A4FEA075215DC001B0A
:1003E00061EB02014FF0004202EA0752CDE9004200
:1003F000001C41F5801132462B4600F098F903B0FD
:1004000000F045B840462146F9E7001B61EB0201C8
:10041000001C41F5801300185B412018A2F500175D
:1004200047EB030140EAD570B6196D4111E06D0844
:100430004FEA360645EAC0754FEA0752001B61EBEA
:100440000201001C41F5801149084FEA30000019F3
:10045000514132462B4603B000F01CB800F058B9A9
:100460000098012240000023D0EB020263EBE0730E
:10047000009821464FEAE074B8EB000061EB0401FC
:10048000E9E783F000435BE781F0004158E730BCC7
:10049000BDE8C08F30BCBDE8C04FFFF7DFBF2DE91E
:1004A000FE4F81EA030404F0004421F0004100946F
:1004B0004FF0000B23F0004350EA01045ED052EAF3
:1004C00003045BD0C3F30A54C1F30A552C44A4F2CD
:1004D000F3340194A0FB0254C1F3130141F48011E1
:1004E000C3F3130343F4801301FB024400FB034EE8
:1004F000840A970A44EA815447EA8357A4FB0768B1
:1005000002958D0A05FB07854FEA932C04FB0C54DA
:100510002705029D4FEA065847EA1637B5EB08054E
:100520006EEB070C870E920E47EA811742EA8312A0
:10053000A7FB0201B6EB0B0164EB00042B0D43EAB1
:100540000C335E1844EB1C50DA465146E7FB0201BF
:10055000C5F313044FEA0B3343EA14534FEA043252
:10056000019C43EA0603A4F10C040294009CCDE92B
:1005700000B400F0DCF803B000F003B8002001463E
:10058000F9E730BCBDE8C08F2DE9F04D81EA0304E6
:1005900004F0004B21F0004514464FF0000A23F010
:1005A000004150EA050220D054EA01021DD0C5F3F3
:1005B0000A570246C5F31303C1F31300C1F30A56E9
:1005C00040F4801543F48013A7EB0608101BD646B1
:1005D00008F2FD3873EB050002D308F1010801E0D1
:1005E00092185B41B8F1000F03DA00200146BDE824
:1005F000F08D00204FF48011064684460EE0171B54
:1006000073EB050705D3121B63EB050306434CEAA6
:10061000010C49084FEA300092185B4150EA01078B
:10062000EDD152EA030012D082EA040083EA050108
:10063000084305D0101BAB4106D20122002306E07F
:1006400000224FF0004302E06FF0010253101AEB5A
:1006500006004CEB085110EB0A0041EB0B01BDE822
:10066000F04D00F055B8C1F30A52C1F3130140F246
:10067000FF3341F480119A4202DA002001467047AC
:1006800040F233439A42A2F2334202DC5242FFF775
:1006900047BEFFF736BE000030B5041E71F10004FE
:1006A00004DB4FF00044404264EB0101141E73F17F
:1006B000000405DB1C464FF00043524263EB040389
:1006C000994208BF904230BD064C074D06E0E068F5
:1006D00040F0010394E8070098471034AC42F6D389
:1006E000FFF756FD88D60008A8D60008202A06DBAA
:1006F000CB17203A41FA02F043EAE07306E041FAF0
:1007000002F3D040C2F120029140084319467047DD
:1007100010B5141E73F1000408DA401C41F1000109
:1007200092185B411A4301D120F0010010BD2DE960
:10073000F04D92469B4611B1B1FA81F202E0B0FA57
:1007400080F220329046FFF7DCFD04460F4640EA77
:100750000A0041EA0B0153465A46084313D011469A
:1007600053EA010019D0C8F140025046FFF7D8FD06
:1007700005460E46504659464246FFF7C2FD08431D
:1007800005D0012004E020463946BDE8F08D002068
:10079000054346EAE0762C4337430A986305E40AAA
:1007A000A0EB08000022FD0A44EA47540A3002D5B3
:1007B00000200146E9E7010510196941DDE9084516
:1007C00000196941BDE8F04DA2E700BFFEE7000057
:1007D0000FB42DE9F84F8046DDE90FB9DDF844A0EC
:1007E00094200090009805F0A7FD044624B900204D
:1007F00000F05CB85DF814FB04F1500505F11C062F
:1008000006F11C0704202075012028763076B87286
:100810002946204605F0BBF8A0613146204605F088
:10082000B6F8E061E7601F4820601F4860600B98E1
:10083000E062BDF8300020860D98C4F83200BDF8A3
:100840003800E086C4F84CA0C4F8489099F8040039
:1008500040B284F838009AF8040040B284F83900B5
:10086000C4F8448084F840B094F84000012817D1BF
:10087000BDF82E10481E00EBD071C1F34F02A287C5
:10088000BDF82C10481E00EBD071C1F34F016187F9
:10089000BDF83010481E00EBD071C1F34F02E28763
:1008A0002046A5E7155300080752000818BCBDE80C
:1008B000E00FFFF79FBF70472DE9F05F82460F46BC
:1008C00090464FF0800B584605F036FD044614B9AB
:1008D000002000F031B804F13C0505F11C0606F1DA
:1008E0001C090720207501202876307689F80A0037
:1008F0002946204605F04BF8A0613146204605F018
:1009000046F8E061C4F80C9009482060094860602E
:10091000C4F834802763387940B284F8380098F8F6
:10092000040040B284F83900C4F82CA02046D0E777
:100930002D580008BB57000830BCBDE8C09F704769
:1009400078B503460022E5E0012696400D6805EAE9
:100950000604002C7DD04D68022D02D04D68122D6A
:1009600013D1D60803F1200555F826005507EE0EE1
:100970000F25B540A8435607F60E0D69B54028432C
:10098000D60803F1200545F826001868560003250F
:10099000B540A8430D7905F003055600B54028433E
:1009A00018604D68012D08D04D68022D05D04D68A6
:1009B000112D02D04D68122D13D1986856000325D1
:1009C000B540A8435600CD68B540284398605868A4
:1009D00001259540A8430D79C5F30015954028439E
:1009E00058600D7905F00305032D09D1D86A01255A
:1009F0009540A8430D79C5F3C00595402843D862BA
:100A0000D86856000325B540A84356008D68B54008
:100A10002843D8604D6805F08055B5F1805F78D1E6
:100A200000BF3F4D2D6E45F001053D4E3566354604
:100A30002D6E05F00105009500BF00BF4FEAB635E9
:100A4000960855F8260095072E0F0F25B540A843A8
:100A500000E05EE0B3F1904F01D100251EE0314D82
:100A6000AB4201D1012519E02F4DAB4201D1022546
:100A700014E02E4DAB4201D103250FE02C4DAB42CB
:100A800001D104250AE02B4DAB4201D1052505E03B
:100A9000294DAB4201D1062500E007259607360F08
:100AA000B5402843254D960845F82600244D286872
:100AB000A0434D6805F48035B5F5803F00D1204353
:100AC0001F4D28602D1D2868A0434D6805F4003592
:100AD000B5F5003F00D12043194D2D1D28602D1D77
:100AE0002868A0434D6805F48015B5F5801F00D136
:100AF0002043134D083528602D1D2868A0434D68FC
:100B000005F40015B5F5001F00D120430C4D0C3540
:100B10002860521C0D68D540002D7FF415AF78BDBC
:100B2000001002400004004800080048000C004883
:100B30000010004800140048001800480800014058
:100B400000040140014800687047000020000010C8
:100B500002480068401C01490860704720000010EE
:100B600010B50024032000F085F8002000F008F8FC
:100B700008B1012401E000F01BF8204610BD000080
:100B800070B504460025094800684FF47A71B0FB3F
:100B9000F1F6304600F0B4FF08B1012504E0002270
:100BA0002146501E00F024F8284670BD2800001091
:100BB00008B500BF0D48006E40F001000B49086603
:100BC0000846006E00F00100009000BF00BF00BFAB
:100BD0000846806D40F0805088650846806D00F0C2
:100BE0008050009000BF00BF08BD00000010024010
:100BF0002DE9F05F80460D461646002701F066FDA0
:100C0000074639462A46334601F00700C0F1070A75
:100C1000BAF1040F02D94FF0040A01E0C0F1070A4B
:100C2000D14600F1040ABAF1070F02D24FF0000AD0
:100C300001E0A0F1030AD4464FF0010A0AFA09FACA
:100C4000AAF1010A0AEA020A0AFA0CFA4FF0010BA9
:100C50000BFA0CFBABF1010B0BEA030B4AEA0B049A
:100C60002146404601F03AFD00F000B830BCBDE836
:100C7000C09F000000BF00F00702064B19684FF646
:100C8000FF031940044B0B4343EA0221014B196057
:100C900000BF70470CED00E00000FA050246B2F517
:100CA000007F2AD11D48006800F4C060B0F5007FC5
:100CB00032D01A48006820F4C06040F40070174B2E
:100CC00018601748006832235843164BB0FBF3F006
:100CD000411C00E0491E1148406900F48060B0F5F5
:100CE000806F01D10029F5D10C48406900F4806083
:100CF000B0F5806F10D1032070470848006800F4F9
:100D0000C060B0F5806F07D00448006820F4C06070
:100D100040F48060014B18600020EDE70070004057
:100D20002800001040420F000248006800F4C06034
:100D300070470000007000402DE9F843044600258C
:100D4000A846208800F40060B0F5006F30D1606ED6
:100D500080B1B0F5800F13D0B0F5000F03D0B0F51F
:100D6000400F15D113E0FB48C06840F48030F949CA
:100D7000C8600FE00021201D01F0C0F8054609E021
:100D8000002104F1200001F07FF9054602E001E0B6
:100D9000012500BF00BF55B9EE488830006820F437
:100DA0004000616E0843EB49C1F8880000E0A846A6
:100DB000208800F48050B0F5805F30D1A06E80B103
:100DC000B0F1807F13D0B0F1007F03D0B0F1407F4D
:100DD00015D113E0DF48C06840F48030DD49C860B9
:100DE0000FE00021201D01F089F8054609E00021EF
:100DF00004F1200001F048F9054602E001E0012578
:100E000000BF00BF55B9D3488830006820F040705B
:100E1000A16E0843CF49C1F8880000E0A8462068C9
:100E200000F40030B0F5003F77D14FF00009C94819
:100E3000806D012121EA107078B100BFC548806D36
:100E400040F08050C34988650846806D00F08050AE
:100E5000009000BF00BF4FF00109BF48006840F498
:100E60008070BD490860FFF76DFE074606E0FFF79A
:100E700069FEC01B022801D9032505E0B6480068B9
:100E800000F480700028F2D000BF85BBB1489030DC
:100E9000006800F44076D6B1D4F88400B04216D091
:100EA000AC489030006820F44076AA48D0F8900012
:100EB00040F48030A749C1F890000846D0F890006F
:100EC00020F48030C1F890000846C0F8906006F029
:100ED0000100A8B1FFF736FE074609E0FFF732FE32
:100EE000C01B41F28831884202D9032507E017E090
:100EF00098489030006800F002000028EED000BF53
:100F000065B994489030006820F44070D4F884109B
:100F100008439049C1F8900003E00CE0A84600E0C7
:100F2000A846B9F1010F05D18A48806D20F08050A4
:100F30008849886500BF207800F0010048B18548E5
:100F40008830006820F00300A16B08438149C1F894
:100F50008800207800F00200022809D17D488830FE
:100F6000006820F00C00E16B08437A49C1F8880062
:100F7000207800F00400042809D176488830006801
:100F800020F03000216C08437249C1F888002078B5
:100F900000F00800082809D16E488830006820F069
:100FA000C000616C08436B49C1F88800207800F0EC
:100FB0001000102809D167488830006820F440707C
:100FC000A16C08436349C1F88800207800F0200034
:100FD000202809D15F488830006820F44060E16C27
:100FE00008435C49C1F88800208800F40070B0F51F
:100FF000007F09D157488830006820F44020E16D17
:1010000008435449C1F88800208800F48060B0F596
:10101000806F09D14F488830006820F44010216E5D
:1010200008434C49C1F88800207800F0400040286F
:1010300009D148488830006820F44050216D0843A9
:101040004449C1F88800207800F08000802809D148
:1010500040488830006820F44040616D08433D49B5
:10106000C1F88800208800F48070B0F5807F09D135
:1010700038488830006820F44030A16D0843354975
:10108000C1F88800208800F40050B0F5005F1FD13F
:1010900030488830006820F04060E16E08432D49F8
:1010A00088310860E06EB0F1006F06D12948C06851
:1010B00040F480102749C8600AE0E06EB0F1806F0C
:1010C00006D10121201D00F019FF054605B1A846F3
:1010D000206800F40020B0F5002F1FD11D48883093
:1010E000006820F04060216F08431A498831086089
:1010F000206FB0F1006F06D11648C06840F4801030
:101100001449C8600AE0206FB0F1806F06D1012158
:10111000201D00F0F3FE054605B1A846206800F446
:101120008020B0F5802F24D10A488830006820F054
:101130004060616F0843074988310860606FB0F113
:10114000006F0BD10348C06840F480100149C860AB
:101150000FE000000010024000700040606FB0F12E
:10116000806F06D10121201D00F0C8FE054605B1A3
:10117000A846208800F48040B0F5804F1FD1224857
:10118000006820F04050A16F08431F490860A06F1D
:10119000B0F1805F07D10221201D00F0AFFE0546AF
:1011A0006DB1A8460BE0A06FB0F1005F07D102213E
:1011B00004F1200000F068FF054605B1A84620882C
:1011C00000F40040B0F5004F09D10F48006820F04E
:1011D0008040E16F08430C498839C1F888002068D5
:1011E00000F48030B0F5803F0AD10748006820F055
:1011F0000040D4F88010084303498839C1F88800BA
:101200004046BDE8F8830000881002402DE9F04117
:1012100004460D4614B90120BDE8F0815548006828
:1012200000F00700A8420ED25248006820F00700E4
:101230002843504908600846006800F00700A842AB
:1012400001D00120E8E7207800F00100002840D01C
:101250006068032806D14848006800F00070D8B9DB
:101260000120D9E76068022806D14348006800F4ED
:10127000003088B90120CFE7606830B93E48006887
:1012800000F0020040B90120C6E73B48006800F4C6
:10129000806008B90120BFE73748806820F003006C
:1012A0006168084334498860FFF74CFC064608E053
:1012B000FFF748FC801B41F28831884201D90320A6
:1012C000AAE72D48806800F00C006168B0EB810F40
:1012D000EED1207800F00200022807D1264880686D
:1012E00020F0F000A1680843234988602148006885
:1012F00000F00700A8420ED91E48006820F0070041
:1013000028431C4908600846006800F00700A8420E
:1013100001D0012080E7207800F00400042807D1E4
:101320001548806820F4E060E1680843124988604D
:10133000207800F00800082808D10F48806820F4C1
:101340006050216940EAC1000B49886000F044F810
:1013500009498968C1F30311084A515C01F01F0172
:10136000C840074908600020FFF70AFC07463846D6
:1013700052E7000000200240001002408CD4000818
:101380002800001001480068704700002800001085
:1013900000B5FFF7F7FF05498968C1F30221044A48
:1013A000515C01F01F01C84000BD00000010024068
:1013B0009CD4000800B5FFF7E5FF05498968C1F333
:1013C000C221044A515C01F01F01C84000BD000069
:1013D000001002409CD400082DE9F04100240020B8
:1013E000DFF800C1DCF808C00CF00C01DFF8F4C035
:1013F000DCF80CC00CF0030719B10C291ED1012F29
:101400001CD1DFF8E0C0DCF800C00CF0080CBCF127
:10141000000F06D1DFF8CCC0DCF894C0CCF3032475
:1014200005E0DFF8C0C0DCF800C0CCF30314DFF83F
:10143000B8C05CF8244041B9204606E0042901D137
:101440002A4802E0082900D129480C2947D1DFF8B1
:1014500094C0DCF80CC00CF00305DFF888C0DCF8A1
:101460000CC0CCF3021C0CF10103012D1FD0022D86
:1014700002D0032D1AD10CE0DFF870C0BCFBF3FCE6
:10148000DFF86080D8F80C80C8F306280CFB08F25F
:1014900018E0DFF85CC0BCFBF3FCDFF84880D8F84C
:1014A0000C80C8F306280CFB08F20BE000BFB4FB6D
:1014B000F3FCDFF83080D8F80C80C8F306280CFB6A
:1014C00008F200BF00BFDFF81CC0DCF80CC0CCF392
:1014D000416C0CF1010C4FEA4C06B2FBF6F0BDE892
:1014E000F081000000100240A4D400080024F400A1
:1014F00000127A002DE9F843044614B90120BDE832
:10150000F883F848806800F00C06F648C06800F0E0
:101510000307207800F01000102875D11EB10C2EA2
:1015200074D1012F72D1EF48006800F0020018B1A9
:10153000A06908B90120E2E7EA48216A006800F0E2
:10154000080020B1E748006800F0F00005E0E54839
:101550009430006800F47060000981421FD9206A4D
:1015600000F044FE08B10120C9E700BFDD48006873
:1015700040F00800DB4908600846006820F0F000F1
:10158000216A0843D749086000BF0846406820F434
:101590007F40E16940EA0120D24948601EE000BF77
:1015A000D048006840F00800CE490860084600684E
:1015B00020F0F000216A0843CA49086000BF0846CD
:1015C000406820F47F40E16940EA0120C549486055
:1015D000206A00F00BFE08B1012090E7FFF7FCFE47
:1015E000C0498968C1F30311BF4A515C01F01F0172
:1015F000C840BE4908600020FFF7C2FA8046B8F133
:10160000000F4ED040467AE74BE0FFE7A06980B379
:10161000B448006840F00100B2490860FFF792FA50
:10162000054606E0FFF78EFA401B022801D9032089
:1016300065E7AC48006800F002000028F2D000BF67
:10164000A848006840F00800A649086008460068FD
:1016500020F0F000216A0843A249086000BF084654
:10166000406820F47F40E16940EA01209D494860DC
:1016700017E0FFE79B48006820F0010099490860E7
:10168000FFF760FA054606E0FFF75CFA401B022808
:1016900001D9032033E79348006800F002000028D6
:1016A000F2D1207800F0010000285CD0082E03D091
:1016B0000C2E0AD1032F08D18A48006800F40030AC
:1016C00088B3606878BB012019E700BF6068B0F597
:1016D000803F06D18348006840F48030814908602B
:1016E0001AE06068B0F5A02F0BD17E48006840F486
:1016F00080207C4908600846006840F4803008601B
:101700000AE07848006820F480307649086008468E
:10171000006820F48020086000BF606890B1FFF787
:1017200011FA054607E01EE0FFF70CFA401B64289B
:1017300001D90320E3E66B48006800F4003000287C
:10174000F2D010E0FFF7FEF9054606E0FFF7FAF9E0
:10175000401B642801D90320D1E66248006800F4E8
:1017600000300028F2D1207800F00200022852D187
:10177000042E03D00C2E14D1022F12D15948006828
:1017800000F4806018B1E06808B90120B7E6554858
:10179000406820F0F850217C40EA016051494860DF
:1017A00039E0E06800B34F48006840F480704D496C
:1017B0000860FFF7C7F9054606E0FFF7C3F9401BCD
:1017C000022801D903209AE64648006800F48060A8
:1017D0000028F2D04348406820F0F850217C40EACD
:1017E00001604049486016E03E48006820F480707F
:1017F0003C490860FFF7A6F9054606E0FFF7A2F9A5
:10180000401B022801D9032079E63648006800F41D
:1018100080600028F2D1207800F00800082836D136
:101820006069D0B12F489430006840F001002D4924
:10183000C1F89400FFF786F9054606E0FFF782F944
:10184000401B022801D9032059E62648943000683D
:1018500000F002000028F1D019E02248943000681E
:1018600020F001001F49C1F89400FFF76BF905460D
:1018700006E0FFF767F9401B022801D903203EE686
:1018800018489430006800F002000028F1D1207858
:1018900000F00400042870D14FF000091148806D59
:1018A00000F0805078B900BF0E48806D40F0805045
:1018B0000C4988650846806D00F08050009000BF9C
:1018C00000BF4FF001090A48006800F48070F0B9C9
:1018D0000748006840F4807005490860FFF732F956
:1018E00005460EE0001002408CD4000828000010CD
:1018F00000700040FFF726F9401B022801D90320A1
:10190000FDE57C48006800F480700028F2D000BF3C
:10191000A068012808D17848006840F001007649A5
:101920009039C1F8900021E0A06805280FD17248D5
:10193000006840F0040070499039C1F890000846F2
:10194000D0F8900040F00100C1F890000EE06A4825
:10195000006820F0010068499039C1F890000846FD
:10196000D0F8900020F00400C1F8900000BFA068FB
:10197000A0B1FFF7E7F8054609E02EE0FFF7E2F82F
:10198000401B41F28831884201D90320B7E55A480B
:10199000006800F002000028F0D012E0FFF7D2F853
:1019A000054608E0FFF7CEF8401B41F28831884237
:1019B00001D90320A3E55048006800F00200002888
:1019C000F0D1B9F1010F07D14B489038806D20F06C
:1019D000805049499039886500BFA06AF0B30C2E49
:1019E00074D0A06A022853D143489038006820F090
:1019F0008070414990390860FFF7A4F8054606E079
:101A0000FFF7A0F8401B022801D9032077E53A48E8
:101A10009038006800F000700028F1D1206B401E63
:101A20000101606B41EA0021A06B000941EA4040DE
:101A3000E16A0843A18F0122C2EB510140EA415102
:101A40004020005DC2EB500041EA40602A499039D5
:101A5000C8600846006840F0807000E048E0086018
:101A60000846C06840F08070C860FFF76BF8054614
:101A700006E0FFF767F8401B022801D903203EE586
:101A80001D489038006800F000700028F1D02FE069
:101A900019489038006820F0807017499039086024
:101AA0000846006800F0205020B90846C06820F0C1
:101AB0000300C86010489038C068104908400E49BB
:101AC0009039C860FFF73EF8054607E00EE0FFF7E3
:101AD00039F8401B022801D9032010E50648903848
:101AE000006800F000700028F1D101E0012006E557
:101AF000002004E50070004090100240FFFFEEFE61
:101B000070B504462546681EB0F1807F01D30120E0
:101B10000FE0681E4FF0E02148610F214FF0FF30C9
:101B200000F0DCFD00204FF0E02188610720086113
:101B3000002070BD10B504460CB9012010BD94F80A
:101B4000490028B9002084F84800204600F026F813
:101B5000022084F849002068006820F00100216814
:101B60000860204600F0A0FC012800D1E6E72068CC
:101B7000406820F48040216848602068806820F038
:101B80002A00216888602068006840F00100216810
:101B90000860204600F050FCD0E7000010B586B089
:101BA0000446142101A8FEF778FB174920688842F3
:101BB00028D100BF1548006E40F4804013490866E4
:101BC0000846006E00F48040009000BF00BF00BFD8
:101BD0000846C06C40F00200C8640846C06C00F0C3
:101BE0000200009000BF00BFE020019002200290A0
:101BF00000200390032004900720059001A90448C9
:101C0000FEF79EFE06B010BD0038014000100240F5
:101C1000000400482DE9F84F04460E461746994641
:101C200094F8490001286BD106B117B9012000F0E2
:101C300069B800BF94F84800012801D10220F6E7F6
:101C4000012084F8480000BF0020E064122084F8DE
:101C50004900FEF777FF824627856785A068B0F5C3
:101C6000805F04D1206910B90025B04602E03546F6
:101C70004FF000081BE05346002280212046CDF89B
:101C8000009000F0E9FC08B10320D0E745B9B8F8AE
:101C90000000C0F308002168088508F1020803E08D
:101CA0002878216808856D1C608D401E6085608DD8
:101CB0000028E0D15346002240212046CDF8009074
:101CC00000F0CAFC08B10320B1E740202168086297
:101CD0000820216808622068008B40F00800216815
:101CE00008832068008B40F01000216808830120E1
:101CF00084F8490000BF002084F8480000BF96E740
:101D0000022094E718BCBDE8E08F00BFFEE70000AA
:101D10002DE9F74183B017464FF07008404604F0B4
:101D20000BFB04461CB9002006B0BDE8F08104F1AD
:101D3000380505F11C06022020751C4820601C484F
:101D4000606001202876002030762946204603F086
:101D50001EFEA0613146204603F019FEE0610398A3
:101D6000E062BDF8100020866763BDF80C00ADF896
:101D70000400BDF80E00ADF80600BDF81000ADF887
:101D800008000321002004F0A7FAA169C860A16936
:101D9000C968B1F809100091A16901AB0322C868B4
:101DA000009904F075FE2046BEE700006D5900085A
:101DB0004959000808B500BF0648C06C40F0020051
:101DC0000449C8640846C06C00F00200009000BFDF
:101DD00000BF08BD0010024010B50B480B49086059
:101DE0004FF4E1304860002108488160C160016122
:101DF0000C21416100218161C1610162FFF79AFEFE
:101E000008B1FEF79CFD10BD00380140C030002035
:101E10002DE9FF47DDF830804FF08809484604F08F
:101E20008BFA04461CB9002004B0BDE8F08704F129
:101E3000440505F11C0606F11C07102020751F48FB
:101E400020601F486060012028763076B8722946ED
:101E5000204603F09CFDA0613146204603F097FD2B
:101E6000E061E7600098E062BDF804002086029817
:101E7000C4F83200BDF80C00E08684F83E8094F887
:101E80003E00012812D1BDF80010481E00EBD071B1
:101E9000C1F34F012187BDF80210481E00EBD0713D
:101EA000C1F34F0262870121A18704E0002020874F
:101EB00000216187A1872046B6E70000A55C0008E5
:101EC000715D000800BFFEE77047000037B515469A
:101ED0002A46DDE90001FFF71BFF04462CB1032071
:101EE0002075034820600348606020463EBD000026
:101EF000AB6600088D570008704700002DE9F041DF
:101F000004460F4600255C48C06800F0030090B10D
:101F10005948C06800F003002168884209D1206850
:101F200038B15548C068C0F30210401C616888424F
:101F300033D0012531E02068012804D0022809D0DF
:101F400003281AD10DE04C48006800F0020000B9E7
:101F5000012514E04848006800F4806000B90125BC
:101F60000DE04548006800F4003028B94248006898
:101F700000F4802000B9012501E0012500BF00BF69
:101F80005DB9D4E90010401E41EA00103A49C96821
:101F900021F0730108433849C860002D68D13648E4
:101FA000006820F0806034490860FEF7CBFD0646EB
:101FB00006E0FEF7C7FD801B022801D9032505E0D6
:101FC0002D48006800F000600028F2D100BFCDBBB2
:101FD0006FB9A0680002E168090940EA414026495A
:101FE0000969264A114008432349086120E0012F6E
:101FF0000FD1A0680002218A0122C2EB510140EA00
:1020000041501D4909691E4A114008431A49086197
:102010000EE0A0680002217D0122C2EB510140EADE
:10202000416015490969174A11400843124908617E
:102030001148006840F080600F490860FEF782FD9B
:10204000064607E014E0FEF77DFD801B022801D95B
:10205000032505E00848006800F000600028F2D081
:1020600000BF2DB904480069A1690843024908610D
:102070002846BDE8F081000000100240FF80FDFF0F
:10208000FF809FFFFF80FFF92DE9F04104460F46D6
:1020900000255348C06800F0030090B15048C06864
:1020A00000F003002168884209D1206838B14C480B
:1020B000C068C0F30210401C6168884233D001251B
:1020C00031E02068012804D0022809D003281AD161
:1020D0000DE04348006800F0020000B9012514E05B
:1020E0003F48006800F4806000B901250DE03C48DD
:1020F000006800F4003028B93948006800F48020F6
:1021000000B9012501E0012500BF00BF5DB9D4E998
:102110000010401E41EA00103149C96821F07301E6
:1021200008432F49C860002D56D12D48006820F083
:1021300080502B490860FEF705FD064606E0FEF7D5
:1021400001FD801B022801D9032505E02448006811
:1021500000F000500028F2D100BF75BB6FB9A06835
:102160000002E168090940EA41401D4949691D4AE8
:10217000114008431A4948610EE0A0680002217C22
:102180000122C2EB510140EA416015494969164AF2
:1021900011400843124948611148006840F08050DE
:1021A0000F490860FEF7CEFC064607E0FEF7CAFCC2
:1021B000801B022802D9032506E00DE008480068CC
:1021C00000F000500028F1D000BF2DB9044840694C
:1021D00061690843024948612846BDE8F081000072
:1021E00000100240FF80FDFFFF80FFF9F8B50446B4
:1021F00000262348806D00F0805018B1FEF794FD52
:10220000054616E000BF1E48806D40F080501C4916
:1022100088650846806D00F08050009000BF00BFC8
:10222000FEF782FD05461648806D20F08050144967
:102230008865B5F5007F07D1802C10D9A02C01D975
:1022400002260CE001260AE0802C01D9032606E0D4
:10225000802C01D1022602E0702C00D10126094811
:10226000006820F00700304306490860084600680F
:1022700000F00700B04201D00120F8BD0020FCE7CB
:1022800000100240002002400B480C490860001F6B
:102290000B4908600B480C49086008460068006854
:1022A00040F08070096808600020044909680860EF
:1022B0000349096808607047041000E0140000102A
:1022C00018000010FCED00E01C000010704700003A
:1022D0002DE9F0416427384604F02EF8044614B97D
:1022E0000020BDE8F08104F12C0505F11C060F204B
:1022F0002075094820600948606001202876307602
:102300002946204603F043FBA0613146204603F0F6
:102310003EFBE0612046E4E7FD6900088D570008B8
:1023200004480068006840F001000249096808603C
:102330007047000018000010034800680068002083
:1023400001490968086070471800001010B5FEF7D1
:10235000FFFB10BD00B5B9B0442128A8FDF79DFFD3
:10236000142123A8FDF799FF882101A8FDF795FF07
:102370001020289001202E9000202F906020309077
:1023800002203290012128A8C16201632821416303
:10239000072181630221C1630164FFF7ABF808B133
:1023A000FEF7CDFA0F2023900320249000202590E3
:1023B00026902790042123A8FEF728FF08B1FEF7F6
:1023C000BEFA0120019000200F9001A8FEF7B4FC96
:1023D00008B1FEF7B4FA4FF40070FEF75FFC08B1E5
:1023E000FEF7ADFA39B000BD1048006840F4700047
:1023F0000E4908600E48006840F001000C49086072
:1024000000208860084600680A49084008490860BA
:102410008814C8600846006820F480200860002006
:102420008861C803014980390860704788ED00E081
:1024300000100240FFFFF6EA38B504460020E064D1
:10244000FEF780FB05462068006800F008000828B9
:102450000CD14FF47A702B4600224FF400110090FB
:10246000204600F0F9F808B1032038BD2068006864
:1024700000F0040004280CD14FF47A702B4600229F
:102480004FF480010090204600F0E6F808B10320E8
:10249000EBE7012084F8490000BF002084F84800E1
:1024A00000BF00BFE1E700002DE9F04704464FF010
:1024B000000900272169A06808436169084340F4C6
:1024C0000046206800685E49084030432168086083
:1024D0004FF40066206A0643D4E906010843064328
:1024E000E06806432068406820F47C50304321684F
:1024F000486000BF53492068884216D1524800689E
:1025000000F0030030B1012808D0022804D00328CD
:1025100008D105E0012507E0022505E0042503E0D8
:10252000082501E0102500BF36E0484920688842B0
:1025300016D14548006800F00C0030B1042808D0DE
:10254000082804D00C2808D105E0002507E0022562
:1025500005E0042503E0082501E0102500BF1BE08D
:102560003B492068884216D13748006800F03000A7
:1025700030B1102808D0202804D0302808D105E038
:10258000002507E0022505E0042503E0082501E019
:10259000102500BF00E0102500BF092D32D2DFE872
:1025A00005F0050E17311F3131312800FEF7F0FE1E
:1025B0004000616800EB5100B0FBF1F725E0FEF749
:1025C000F9FE4000616800EB5100B0FBF1F71CE040
:1025D0002049606801EB50006168B0FBF1F714E03E
:1025E000FEF7FAFE4000616800EB5100B0FBF1F726
:1025F0000BE04FF48031606801EB50006168B0FB84
:10260000F1F702E04FF0010900BF00BF102F0ED319
:10261000B7F5803F0BD24FF6F07007EA0008C7F31A
:10262000420048EA00082068C0F80C8001E04FF042
:1026300001090020A063E0634846BDE8F087000080
:10264000F369FFEF00380140881002400044004069
:10265000004800400048E8012DE9F04104460D46DD
:1026600017469846069E13E0701C88B1FEF76AFA7A
:10267000A0EB0800B04200D856B9012084F8490008
:1026800000BF002084F8480000BF0320BDE8F081AF
:102690002068C0692840A84201D1012000E0002044
:1026A000B842E1D00020F1E700BFFEE70FB4054BD0
:1026B00010B503A9044A029800F0FAF810BC5DF8BE
:1026C00014FB0000CD5800083000001002480068DC
:1026D000C0F30220704700000CED00E010B50028A8
:1026E00004DB0A07130E054A135406E00A07140E0A
:1026F000034A00F00F031B1FD45410BD00E400E098
:1027000018ED00E002E008C8121F08C1002AFAD143
:1027100070477047002001E001C1121F002AFBD161
:10272000704700002DE9FF5F82B00021DDE9043031
:10273000020DDDF840B0034318D044F61050A2F269
:10274000FF3242431514119801281FD0A5EB0B004E
:10275000401C5FEA000A4FF000064E4FDFF8389148
:10276000B046504615D5CAF1000413E01198012473
:102770004AA3012801D16FEA0B010298119AC0E91E
:102780000031C0E9024206B000F08EB8CBF1000083
:10279000DFE704460021404A491842EB0450CDE9E6
:1027A000001012E0E00707D032463B46404649465B
:1027B000FDF775FE8046894632463B46104619466F
:1027C000FDF76DFE06460F466410002CEAD1DDE9E8
:1027D0000401DDE90023BAF1000F06DAFDF75FFE20
:1027E00042464B46FDF75BFE05E0FDF7CDFE424657
:1027F0004B46FDF7C9FE04460E460022284BFDF766
:102800004BFF03D84FF0FF30014607E00022254B75
:1028100020463146FDF794FDFDF725FF102409E021
:10282000002C0ADB0A220023FDF7CAFC039B30328E
:102830001A55641E50EA0102F2D1641C039AC4F1D5
:1028400011031444119A012A03D0012208430DD127
:102850000AE0084304D000204FF0110B119072E7FA
:10286000A3EB0B056D1E0DE05B4504DD4FF0000290
:1028700005F1010504E003DA4FF00002A5F10105BE
:10288000002AECD002981199C0E90231C0E9004554
:1028900079E70000000014400000F03F3000000025
:1028A0000000F0430000E03F30BCBDE8C09F0000E6
:1028B0002DE9FF4F95B09B468946064600250FE25D
:1028C000252877D100242746F84A0121059400E005
:1028D000044316F8013F203B01FA03F01042F7D100
:1028E00030782A2811D06FF02F033078A0F1300211
:1028F000092A16D8059A44F0020402EB820203EB7F
:1029000042021044761C0590EFE759F8042B05921B
:10291000002A03DA504244F40054059044F00204C3
:10292000761C30782E2816D116F8010F44F00404D6
:102930002A280DD06FF02F023078A0F13003092B38
:1029400009D807EB870302EB4303C718761CF3E7AC
:1029500059F8047B761C30786C280FD006DC4C28A4
:1029600017D068280DD06A2814D104E0742810D03C
:102970007A280FD10DE044F400140AE044F48014E6
:1029800001E044F440147278824202D104F58014CC
:10299000761C761C307866280BD013DC582877D04C
:1029A00009DC002875D04528F6D04628F4D0472801
:1029B0001AD19DE118E0632835D0642879D06528C4
:1029C00012D195E1702873D008DC6728F1D069280E
:1029D0006FD06E280DD06F2806D1B5E073282CD0AB
:1029E000752875D0782874D05A46179990476D1C71
:1029F00075E1C4F30250022809D003280DD0D9F89C
:102A0000001004280DD00D6009F1040967E1D9F820
:102A10000010EA17C1E90052F6E7D9F800100D805E
:102A2000F2E70D70F0E719F8041B8DF80010002094
:102A30008DF80100EA46012003E059F804AB4FF09D
:102A4000FF3061074FF0000102D40DE008F10101F1
:102A50008846B9420FDA8045F8DB1AF808100029D9
:102A6000F4D108E008F1010188468142FADB1AF846
:102A700008100029F6D105985B46A0EB080721460F
:102A80003846179A00F097FA284400EB080507E04B
:102A90004DE029E10DE01AF8010B5A4617999047CD
:102AA000B8F10108F7D25B4621463846179A13E180
:102AB00042E00A220092C4F302524FF0000A022AB6
:102AC00008D059F804CB032A4FEAEC710AD00DE084
:102AD00029E02AE009F1070121F00702F2E802C12A
:102AE000914609E00FFA8CFC4FEAEC71042A03D1FD
:102AF0004FFA8CFC4FEAEC71002907DA0A460021F4
:102B0000DCF1000C61EB02012D2202E0220504D56C
:102B10002B228DF80420012203E0E20701D02022BD
:102B2000F7E7904659E00A2102E010220DE010215B
:102B30004FF0000A00910BE010224FF0000A44F021
:102B400004040827009203E008224FF0000A0092D4
:102B5000C4F30252022A05D059F804CB0021032AFB
:102B600008D009E009F1070121F00702F2E802C1EB
:102B7000914605E01FFA8CFC042A01D10CF0FF0CF1
:102B80004FF00008220728D5702806D0009B83F05C
:102B9000100353EA0A0305D00EE040228DF804200A
:102BA000012208E05CEA010206D030228DF8042000
:102BB0008DF8050002229046009B83F0080353EA3B
:102BC0000A030AD15CEA010201D1620705D530226D
:102BD0008DF804204FF001087F1E582804D034A03F
:102BE00003900EA802900DE036A0F9E75346604628
:102BF000009AFDF7E5FA84460398825C0298401E2D
:102C0000029002705CEA0100F0D1029806A9081A4D
:102C100000F1200A600702D524F4803400E0012787
:102C2000574502DDA7EB0A0000E0002000EB0A0197
:102C3000009005984144401A0590E00306D45B4695
:102C40002146179A059800F0B6F90544002706E0DA
:102C500001A85A46C05D179990476D1C7F1C4745D7
:102C6000F6DBE0030CD55B462146179A059800F089
:102C7000A2F9054404E030205A46179990476D1C8C
:102C80000099481E00900029F5DC08E0029802999E
:102C90005A460078491C0291179990476D1CBAF169
:102CA0000001AAF1010AF1DC65E100000928010038
:102CB00030313233343536373839616263646566B2
:102CC0000000000030313233343536373839414274
:102CD000434445460000000000F05BF90544761CC3
:102CE000307800287FF4ECAD19B0284600F04EB9DA
:102CF000620700D4062709F1070222F0070CFCE85E
:102D00000223E14603F000485FEA080C02D00FF20C
:102D1000702C0DE05FEA045C02D50FF2682C07E02E
:102D20005FEAC47C02D00FF2602C01E0AFF2700CBD
:102D30004FF0FF3823F00043CDF850C065280CD089
:102D400006DC452809D046281DD047283DD13DE066
:102D5000662818D067287ED138E00021112F01DBCA
:102D6000112000E0781CCDE9000106A90EA8FFF7AC
:102D7000D9FCDDE90F010E9A03910021009207F1C1
:102D8000010A04914DE04FF000400097CDE9011099
:102D900006A90EA8FFF7C6FCDDE90F0203920E9B01
:102DA00011990022DDF80CA00093049211B9791C4E
:102DB00000EB010AB7EB0A0004D4C0F1FF3007F1C1
:102DC000010A0490AAEB0700019044E0012F00DA09
:102DD00001270021112F01DD112000E03846CDE947
:102DE000000106A90EA8FFF79DFCDDE90F010E9A70
:102DF0000391002104910092BA4621070CD4039953
:102E0000514500DA8A46BAF1010F05DD009AAAF1B0
:102E10000101515C302908D0B84202DA10F1040FE8
:102E200006DA0121CDE9011015E0AAF10101E9E777
:102E3000002805DC049901440491AAEB000102E09A
:102E4000411C514500DD8A460499401A401C0190FE
:102E50004FF000400290200704D40198504501DB58
:102E6000CDF8048000208DF84F0002980DF14F0737
:102E7000B0F1004F25D02B200E9002984FF00208A1
:102E800000280CDA404202902D200E9007E00A2123
:102E90000298FDF720FA3031029007F8011DB8F1D1
:102EA0000001A8F10108F2DC02980028EFD1791E98
:102EB0000E980870307800F0200040F0450007F8C8
:102EC000020D12A8C01B00F107081498007800B189
:102ED000012000EB0A01019801EBE07105984144E3
:102EE000401A401E0590E00306D45B462146179A1F
:102EF000059800F060F805441498007818B15A4617
:102F0000179990476D1CE00324D55B462146179A1C
:102F1000059800F050F805441CE00498002807DBF1
:102F2000DDE90301884203DD0098405C179901E068
:102F3000179930205A469047049805F10105401C26
:102F400004900198401E019004D12E205A461799F2
:102F500090476D1CBAF10001AAF1010ADDDC05E021
:102F600017F8010B5A46179990476D1CB8F10001EC
:102F7000A8F10108F4DC5B462146179A0598ABE6F8
:102F80002D0000002B0000002000000030BCBDE838
:102F9000C08F2DE9F041044600251E4617468804DF
:102FA00004D405E039462020B0476D1C641EF9D5D5
:102FB0002846BDE8F0812DE9F041044600251E4673
:102FC0009046C80301D5302700E02027880404D5A7
:102FD00005E041463846B0476D1C641EF9D52846C9
:102FE000BDE8F08110B5102003F0A6F904460348AF
:102FF00020600020A073204610BD00003369000847
:1030000002460020002107E001EB410302EB8303AD
:103010001B7A03B902E0491C0829F5D300BF01EB74
:10302000410302EB8300704770B505460DB90020DF
:1030300070BD2C46206808B92046F9E700E06468B6
:1030400060680028FBD1082003F076F960606068B2
:1030500008B90020ECE76068EAE710B504460CB94F
:10306000002010BD206808B92046FAE700E0A468F7
:10307000A0680028FBD11C2003F05EF9A060A068C6
:1030800008B90020EDE7A16860694861A068E8E739
:103090002DE9FF4F87B01C46DDE91678159E229D6D
:1030A00005951F980490E21704EB92729210A4EB1E
:1030B0008202AAB9304606EBD0725210A6EB420249
:1030C00072B9012F0CD1B8F1010F09D1189A3AB990
:1030D000199A2AB91A9A012A02D11B9A012A04D0F4
:1030E0006FF002000BB000F0B0B84FF0000935E00F
:1030F000002006902AE0089A069909FB0212079917
:1031000002FB04102246059901F018FE059800EB19
:10311000440005906000784300FB08F005EB400197
:10312000059881420ED11CA90EC90498CDE900234F
:10313000CDE90210234632462946149801F0A4FC3A
:10314000049005950698401C00B2069020990698B8
:103150008842D0DB09F101000FFA80F921988145FE
:10316000C6DB0598A8426ED014994FF0000A67E0BC
:10317000DDF870C01CF90AC0DDF874B00CFA0BFC65
:103180004FF0010EDDF878B00EFA0BFE0CEB5E028C
:10319000284604FB07FC0CFB08FCCCF38F0325E05E
:1031A0008C465CF804BB2FFA9BFECDF808E02FFAA2
:1031B0008BFECDF80CE000BF614650F804CBCDF893
:1031C00004C0DDF80CC0DDF804B02CFB0B2250F875
:1031D00004CBCDF800C0DDF808C0DDF800B02CFB52
:1031E0000B22A3F1010C1FFA8CF300BF002BD7D1E7
:1031F00004FB08FC0CFB07FC0CF003030AE011F9CC
:1032000001CB30F902BB1CFB0B22A3F1010E1FFA0C
:103210008EF300BF002BF2D1DDF878C042FA0CFC2F
:103220000CF3070BDDF810C08CF800B0DDF810C00F
:103230000CF1010CCDF810C00AF101000FFA80FA70
:10324000B24595DB00BF00204CE730BCBDE8C08F25
:103250002DE9FF4F8BB08A46219E199C35461F9859
:1032600009900D98032804D06FF002000FB000F011
:1032700008B9002773E000200A906AE01B987843A1
:103280001A99401A0FFA80F83EE01B990A984843B1
:103290001A99401A0FFA80F92AE0B8F1000F06DBFC
:1032A000D04504DAB9F1000F01DBD14504DB002081
:1032B0002860A880AD1D17E008FB0A9202EB4203CC
:1032C0000B9A991808682FFA80F208922FFA90F258
:1032D0000792BDF8202025F8022BDDE9073263F3C1
:1032E0000F022A602D1D00BF09F101000FFA80F9BD
:1032F0001B990A9848431A99401A20444845CCDC47
:1033000008F101000FFA80F81B9878431A99401AC7
:1033100020444045B9DC04EB44004000604306EB28
:103320004000A84211D11CA90EC90998CDE900237B
:10333000CDE9021004EB4400604383B23146189A91
:103340000E9801F071F9099035460A98401C00B2B8
:103350000A9020990A98884290DB781C07B220983E
:10336000874288DBB5427CD00E990020089080E02F
:10337000DDF870C0DDF820B01CF90BC0DDF874B0CA
:103380000CFA0BFC4FF0010EDDF878B00EFA0BFED4
:103390000CEB5E02304604EB440C0CFB04FCCCF35B
:1033A0008F033BE08C465CF804BBCDF80CB0DDF835
:1033B0000CB02FFA9BFBCDF808B0DDF80CB02FFA5B
:1033C0008BFBCDF804B0DDF804B04FEA1B4EDDF8FE
:1033D00008B06EF30F0BCDF818B0DDE901BE6EF347
:1033E0001F4BCDF81CB000BF614650F804CBCDF8A0
:1033F00014C0DDF814C0DDF81CB02BFB0C2250F813
:1034000004CBCDF810C0DDF818C0DDF810B02CFBEF
:103410000B22A3F1010C1FFA8CF300BF002BC1D1CA
:1034200004EB440C0CFB04FC0CF003030AE011F960
:1034300001CB30F902BB1CFB0B22A3F1010E1FFADA
:103440008EF300BF002BF2D1DDF878C042FA0CFCFD
:103450000CF3070BDDF824C08CF800B0DDF824C0B5
:1034600000E00CE00CF1010CCDF824C00898401CE1
:103470000890189A08989042FFF67AAF00BF002093
:10348000F4E630BCBDE8C08F2DE9FF4F8BB08A4613
:103490001546219E199CB1461F98089000200A905D
:1034A00065E0002009905AE01B990A9848431A9950
:1034B000401A07B22EE01B99099848431A99401AFE
:1034C0000FFA80F81CE0002F06DB574504DAB8F14C
:1034D000000F01DBD04504DB69004846FCF7DDFE48
:1034E00008E007FB0A820B9902FB05102A464946B1
:1034F00001F0FCFB09EB450908F101000FFA80F827
:103500001B99099848431A99401A20444045DADC2F
:10351000781C07B21B990A9848431A99401A20440C
:10352000B842C8DC68006043604306EB4000484591
:1035300011D11CA90EC90898CDE90023CDE90210CC
:1035400005FB04F0604383B23146189A0E9801F0EF
:103550006BF80890B1460998401C00B20990209978
:1035600009988842A0DB0A98401C00B20A90209972
:103570000A98884295DBB1457ED00E9900200790CD
:1035800080E0DDF870C0DDF81CB01CF90BC0DDF880
:1035900074B00CFA0BFC4FF0010EDDF878B00EFAA7
:1035A0000BFE0CEB5E02304605FB04FC0CFB04FC3E
:1035B000CCF38F033BE08C465CF804BBCDF808B03D
:1035C000DDF808B02FFA9BFBCDF804B0DDF808B0A9
:1035D0002FFA8BFBCDF800B0DDF800B04FEA1B4EA0
:1035E000DDF804B06EF30F0BCDF814B0DDE900BECA
:1035F0006EF31F4BCDF818B000BF614650F804CBF6
:10360000CDF810C0DDF810C0DDF818B02BFB0C228F
:1036100050F804CBCDF80CC0DDF814C0DDF80CB0C8
:103620002CFB0B22A3F1010C1FFA8CF300BF002B23
:10363000C1D105FB04FC0CFB04FC0CF003030AE005
:1036400011F901CB30F902BB1CFB0B22A3F1010ED7
:103650001FFA8EF300BF002BF2D1DDF878C042FADA
:103660000CFC0CF3070BDDF820C08CF800B0DDF883
:1036700020C00CF1010C00E00AE0CDF820C0079852
:10368000401C0790189A07989042FFF67AAF00BF47
:1036900000200FB000F000B830BCBDE8C08F2DE9AD
:1036A000FF4F8BB01C46DDE91A67269DAA4623987A
:1036B000089000200A906CE00020099061E01F99BA
:1036C0000A9848431D99401A0FFA80F834E01E9971
:1036D000099848431C99401A0FFA80F920E0B8F184
:1036E000000F08DB0D98804505DAB9F1000F02DB09
:1036F0000C98814504DB61005046FCF7CEFD09E0E3
:103700000C9908FB01920B9902FB041022465146CA
:1037100001F0ECFA0AEB440A09F101000FFA80F912
:103720001E99099848431C99401A30444845D6DCF4
:1037300008F101000FFA80F81F990A9848431D9973
:10374000401A38444045C2DC60007843704305EBC2
:103750004000504511D120A90EC90898CDE9002399
:10376000CDE9021004FB07F0704383B22946DDE97E
:10377000180200F059FF0890AA460998401C00B2B0
:10378000099024990998884299DB0A98401C00B254
:103790000A900A99259881428EDBAA457CD0189917
:1037A0000020079080E0DDF880C0DDF81CB01CF937
:1037B0000BC0DDF884B00CFA0BFC4FF0010EDDF805
:1037C00088B00EFA0BFE0CEB5E02284604FB07FCE9
:1037D0000CFB06FCCCF38F033BE08C465CF804BB8F
:1037E000CDF808B0DDF808B02FFA9BFBCDF804B097
:1037F000DDF808B02FFA8BFBCDF800B0DDF800B093
:103800004FEA1B4EDDF804B06EF30F0BCDF814B089
:10381000DDE900BE6EF31F4BCDF818B000BF614666
:1038200050F804CBCDF810C0DDF818C0DDF810B0AA
:103830002CFB0B2250F804CBCDF80CC0DDF80CC0EB
:10384000DDF814B02BFB0C22A3F1010C1FFA8CF352
:1038500000BF002BC1D104FB07FC0CFB06FC0CF0E5
:1038600003030AE011F901CB30F902BB1CFB0B2268
:10387000A3F1010E1FFA8EF300BF002BF2D1DDF889
:1038800088C042FA0CFC0CF3070BDDF820C08CF862
:1038900000B0DDF820C000E00CE00CF1010CCDF828
:1038A00020C00798401C0790199A07989042FFF68D
:1038B0007AAF00BF00200FB000F000B830BCBDE808
:1038C000C08F2DE9FF4F89B01546DDE91868179CB8
:1038D0001F9808901D980790EA1705EB92729210B6
:1038E000A5EB820232B9169800EBD0725210A0EB11
:1038F000420222B16FF002000DB000F04DBA4FF05D
:10390000000B64E04FF000095AE00BFB08F0801B4D
:103910000FFA80FA2EE009FB08F0801B07B21FE0C7
:10392000BAF1000F07DB0A98824504DA002F02DBA8
:103930000A98874204DB69000898FCF7AEFC09E0AE
:103940000A990AFB0172099902FB05102A46089997
:1039500001F0F4F9089800EB45000890781C07B2D4
:1039600009FB08F0801B2044B842D9DC0AF10100B1
:103970000FFA80FA0BFB08F0801B20445045CADC8C
:103980006800604360431F9901EB40010898814241
:1039900012D11AA90EC90798CDE90023CDE902106A
:1039A00005FB04F0604383B2169A1F990C9801F04E
:1039B0006BF807901F98089009F101000FFA80F941
:1039C0001E988145A1DB0BF101000FFA80FBB34586
:1039D00098DBFFE04FF0000954E00BFB08F0801B80
:1039E0000FFA80FA28E009FB08F0801B07B219E003
:1039F000002F02DB0A98874204DB69000898FCF775
:103A00004CFC09E00A990AFB0172099902FB0510B6
:103A10002A46089901F092F9089800EB45000890B1
:103A2000781C07B209FB08F0801B2044B842DFDC99
:103A30000AF101000FFA80FA0BFB08F0801B20440A
:103A40005045D0DC6800604360431F9901EB4001A2
:103A50000898814212D11AA90EC90798CDE900230E
:103A6000CDE9021005FB04F0604383B2169A1F995A
:103A70000C9801F009F807901F98089009F10100CF
:103A80000FFA80F9B145A8DB43E00BFB08F0801B7F
:103A90000FFA80FA17E00A990AFB01F109FB0811F5
:103AA0008B1B099903FB051005FB04F2089901F033
:103AB00045F905FB04F1089800EB410008900AF174
:103AC00001000FFA80FA0BFB08F0801B20445045E0
:103AD000E1DC6800604360431F9901EB40010898F6
:103AE000814212D11AA90EC90798CDE90023CDE968
:103AF000021005FB04F0604383B2169A1F990C98DC
:103B000000F0C2FF07901F98089009F101000FFA1A
:103B100080F91E98801B4845B7DC54E00BFB08F089
:103B2000801B0FFA80FA28E009FB08F0801B07B21F
:103B300019E0002F02DB0A98874204DB690008982D
:103B4000FCF7ABFB09E00A990AFB0172099902FB39
:103B500005102A46089901F0F1F8089800EB450095
:103B60000890781C07B209FB08F0801B2044B8427B
:103B7000DFDC0AF101000FFA80FA0BFB08F0801B72
:103B800020445045D0DC6800604360431F9901EB3E
:103B900040010898814212D11AA90EC90798CDE9AF
:103BA0000023CDE9021005FB04F0604383B2169AAE
:103BB0001F990C9800F068FF07901F98089009F172
:103BC00001000FFA80F91E988145A7DB0BF1010077
:103BD0000FFA80FB1E98801B58453FF7FBAE64E050
:103BE0004FF000095AE00BFB08F0801B0FFA80FA37
:103BF0002EE009FB08F0801B07B21FE0BAF1000FAE
:103C000007DB0A98824504DA002F02DB0A98874214
:103C100004DB69000898FCF740FB09E00A990AFBFD
:103C20000172099902FB05102A46089901F086F8ED
:103C3000089800EB45000890781C07B209FB08F0D3
:103C4000801B2044B842D9DC0AF101000FFA80FA47
:103C50000BFB08F0801B20445045CADC6800604321
:103C600060431F9901EB40010898814212D11AA9C3
:103C70000EC90798CDE90023CDE9021005FB04F039
:103C8000604383B2169A1F990C9800F0FDFE0790CE
:103C90001F98089009F101000FFA80F91E988145DC
:103CA000A1DB0BF101000FFA80FB1E98834597DB27
:103CB0001F99089888426DD00C990020069064E006
:103CC000DDF818C01A9B13F90C30DDF86CC003FA4C
:103CD0000CF34FF0010EDDF870C00EFA0CFE03EB92
:103CE0005E021F9805FB04F36343C3F38F03059340
:103CF00021E00B4653F804CB2FFA9CFECDF80CE0E4
:103D00002FFA8CFECDF810E000BF194650F8043BA6
:103D10000293DDF808C0049B23FB0C2250F8043BFF
:103D20000193DDF804C0039B23FB0C22059B5B1E63
:103D30009BB2059300BF059B002BDAD105FB04F372
:103D4000634303F0030305930EE011F9013B30F9DF
:103D500002CB13FB0C22DDF814E0AEF1010E1FFACA
:103D60008EFECDF814E000BF059B002BEDD11C9B0F
:103D700042FA03F303F3070C079B83F800C0079B89
:103D80005B1C07930698401C0690169A0698904272
:103D900096DB00BF0020AFE530BCBDE8C08F2DE949
:103DA000FF4F89B01C46DDF890B0DDE91889CDF8E9
:103DB00020B021980790E21704EB92729210A4EBC6
:103DC000820232B9179800EBD0725210A0EB420277
:103DD00022B16FF002000DB000F05BBA4FF0000AA4
:103DE00065E000265CE01D980AFB00F01B99401A74
:103DF00007B22DE01C9870431A99401A05B21EE0D4
:103E0000002F07DB0B98874204DA002D02DB0A98AB
:103E1000854204DB61000898FCF73FFA09E00A9943
:103E200007FB0152099902FB04102246089900F091
:103E300085FF089800EB44000890681C05B21C98A8
:103E400070431A99401A4044A842D9DC781C07B242
:103E50001D980AFB00F01B99401A4844B842C9DC7F
:103E6000600000FB08F000FB09F00BEB4001089834
:103E7000814213D11EA90EC90798CDE90023CDE9CF
:103E8000021004FB08F000FB09F083B25946DDE99B
:103E9000160200F0F9FD0790CDF820B0701C06B2B4
:103EA000229886429FDB0AF101000FFA80FA1B98E4
:103EB000824596DB08E1002657E01D980AFB00F0DA
:103EC0001B99401A07B228E01C9870431A99401AAF
:103ED00005B219E0002D02DB0A98854204DB61007F
:103EE0000898FCF7DAF909E00A9907FB01520999E9
:103EF00002FB04102246089900F020FF089800EB0E
:103F000044000890681C05B21C9870431A99401A26
:103F10004044A842DEDC781C07B21D980AFB00F082
:103F20001B99401A4844B842CEDC600000FB08F000
:103F300000FB09F00BEB40010898814213D11EA948
:103F40000EC90798CDE90023CDE9021004FB08F063
:103F500000FB09F083B25946DDE9160200F094FD3A
:103F60000790CDF820B0701C06B21A988642A4DBE8
:103F700045E01D980AFB00F01B99401A07B216E0B5
:103F80000A9979431C9B06FB03131A995B1A09993A
:103F900003FB041004FB08F2089900F0CFFE04FBB9
:103FA00008F1089800EB41000890781C07B21D98B2
:103FB0000AFB00F01B99401A4844B842E0DC60005C
:103FC00000FB08F000FB09F00BEB40010898814270
:103FD00013D11EA90EC90798CDE90023CDE902101F
:103FE00004FB08F000FB09F083B25946DDE9160234
:103FF00000F04AFD0790CDF820B0701C06B21A9967
:104000002298401AB042B4DC57E01D980AFB00F039
:104010001B99401A07B228E01C9870431A99401A5D
:1040200005B219E0002D02DB0A98854204DB61002D
:104030000898FCF732F909E00A9907FB015209993F
:1040400002FB04102246089900F078FE089800EB65
:1040500044000890681C05B21C9870431A99401AD5
:104060004044A842DEDC781C07B21D980AFB00F031
:104070001B99401A4844B842CEDC600000FB08F0AF
:1040800000FB09F00BEB40010898814213D11EA9F7
:104090000EC90798CDE90023CDE9021004FB08F012
:1040A00000FB09F083B25946DDE9160200F0ECFC92
:1040B0000790CDF820B0701C06B222988642A4DB8F
:1040C0000AF101000FFA80FA1B992398401A504513
:1040D0003FF7F1AE65E000265CE01D980AFB00F0BA
:1040E0001B99401A07B22DE01C9870431A99401A88
:1040F00005B21EE0002F07DB0B98874204DA002D83
:1041000002DB0A98854204DB61000898FCF7C5F8D9
:1041100009E00A9907FB0152099902FB04102246A3
:10412000089900F00BFE089800EB44000890681C0A
:1041300005B21C9870431A99401A4044A842D9DC31
:10414000781C07B21D980AFB00F01B99401A4844DE
:10415000B842C9DC600000FB08F000FB09F00BEB83
:1041600040010898814213D11EA90EC90798CDE9D4
:104170000023CDE9021004FB08F000FB09F083B234
:104180005946DDE9160200F07FFC0790CDF820B01B
:10419000701C06B2229886429FDB0AF101000FFADA
:1041A00080FA2398824596DB089858456FD0169977
:1041B0000020069066E0DDF818C01E9B13F90C3055
:1041C000DDF87CC003FA0CF34FF0010EDDF880C07F
:1041D0000EFA0CFE03EB5E02584604FB08F303FBE9
:1041E00009F3C3F38F03059321E00B4653F804CB87
:1041F0002FFA9CFECDF80CE02FFA8CFECDF810E0E3
:1042000000BF194650F8043B0293DDF810C0029B32
:104210002CFB032250F8043B0193DDF804C0039B00
:1042200023FB0C22059B5B1E9BB2059300BF059BE5
:10423000002BDAD104FB09F303FB08F303F00303BB
:1042400005930EE011F9013B30F902CB13FB0C2270
:10425000DDF814E0AEF1010E1FFA8EFECDF814E089
:1042600000BF059B002BEDD1209B42FA03F303F323
:10427000070C079B83F800C0079B5B1C07930698FD
:10428000401C0690179A0698904294DB00BF0020CD
:10429000A1E530BCBDE8C08F2DE9FF4F87B0914646
:1042A000DDE914A6089C179FDDF858800A98801055
:1042B00006904A461899079800F040FDB9E018F9B1
:1042C000010B00FA0AF00121B14000EB510318F98B
:1042D000010B00FA0AF00121B14000EB510C18F972
:1042E000010B00FA0AF00121B14000EB51000590EA
:1042F00018F9011B01FA0AF10120B04001EB500E40
:104300004FEAA9000490189D4CE055F8040B54F8AE
:10431000041B2FFA91FBCDF80CB02FFA81F121FB91
:104320000033DDF80CB02BFB00CC54F8042B2FFA33
:1043300092FBCDF808B02FFA82F2DDF814B022FB20
:1043400000BBCDF814B0DDF808B02BFB00EE55F83B
:10435000040B54F8041B2FFA91FBCDF80CB02FFA84
:1043600081F121FB0033DDF80CB02BFB00CC54F8BD
:10437000042B2FFA92FBCDF808B02FFA82F2DDF869
:1043800014B022FB00BBCDF814B0DDF808B02BFB55
:1043900000EEDDF810B0ABF1010B1FFA8BFBCDF88E
:1043A00010B000BF04980028AFD109F003000490BA
:1043B0001FE035F9020B14F9011B14F9012B0392CC
:1043C00014F9012B029214F9012B019210FB013315
:1043D000039A10FB02CCDDF814B0029A10FB02B273
:1043E0000592019A10FB02EE049A521E92B20492B8
:1043F00000BF04980028DCD143FA06F000F3070060
:1044000007F8010B4CFA06F000F3070007F8010B60
:104410000598304100F3070007F8010B4EFA06F04B
:1044200000F3070007F8010B0698401E80B20690C3
:1044300000BF069800287FF442AF0A9800F00300FE
:10444000069042E018F9012B02FA0AF20123B34068
:1044500002EB53004FEAA901189D19E0224652F8D9
:10446000043B2FFA93FECDF810E02FFA83FECDF82F
:1044700014E000BF144655F804CB059A2CFB02004B
:1044800055F804BB049A2BFB02004A1E91B200BFF0
:104490000029E3D109F003010AE035F9022B14F9F0
:1044A000013B12FB0300A1F1010C1FFA8CF100BFCC
:1044B0000029F2D140FA06F202F3070207F8012BB5
:1044C000069A521E92B2069200BF06980028B9D1F1
:1044D0000BB000F000B830BCBDE8C08F2DE9FF4F35
:1044E00083B007460D461446DDE91089002649E0F1
:1044F0004FF0000A41E006FB05A000FB04700290AB
:104500000AFB09F0B0EB080002D5DDF808B007E0BF
:1045100006FB05F00AFB0900A0EB080000FB047B8A
:104520000AFB09F0A0EB080106980844A84205DB45
:1045300006FB055000FB047001900AE006FB05F045
:104540000AFB0900A0EB08010698084400FB047070
:104550000190224659460298FBF778FEA34405E0F5
:1045600022465946029800F0ACFCA34401988345CA
:10457000F6D30AF101000FFA80FA12988245BADBED
:10458000701C06B2AE42B3DB002644E0129806FB74
:1045900000F1149801FB0400029006FB09F0B0EB57
:1045A000080001D5BB4606E006FB09F0A0EB0800B9
:1045B000684300FB047B06FB09F0A0EB08010698AA
:1045C0000844A84205DB05FB05F000FB04700190E0
:1045D00009E006FB09F0A0EB0801069808446843CF
:1045E00000FB04700190129800FB04F259460298F7
:1045F000FBF72CFE04FB05BB08E01298604382B277
:104600005946029800F05DFC05FB04BB0198834508
:10461000F3D3701C06B212988642B7DB07B000F0E5
:1046200000B830BCBDE8C08F2DE9FF4F8FB0044605
:104630008846DDE91C751F9E119832181E99119845
:1046400040100E905BE1404600EB430C04EB030985
:1046500091F900B00BFA07FB4FF0010A0AFA05FACC
:104660000BEB5A0ACDF834A011F901AB0AFA07FB9B
:104670004FF0010A0AFA05FA0BEB5A0ACDF830A0FE
:1046800091F900B00BFA07FB4FF0010A0AFA05FA9C
:104690000BEB5A0ACDF82CA011F901BB0BFA07FB62
:1046A0004FF0010A0AFA05FA0BEB5A0ACDF828A0D6
:1046B0004FEAA30ACDF824A0ACE050F804ABCDF843
:1046C00010A05CF804ABCDF80CA0A2465AF804BBCD
:1046D000CDF808B0DDF808B02FFA9BFBCDF804B098
:1046E000DDF808B02FFA8BFBCDF800B0DDF800B094
:1046F0004FEA1B4EDDF804B06EF30F0BCDF81CB083
:10470000DDE900BE6EF31F4BCDF820B000BF54466C
:10471000CA465AF804BBCDF808B0DDF808B02FFA45
:104720009BFBCDF804B0DDF808B02FFA8BFBCDF879
:1047300000B0DDF800B04FEA1B4EDDF804B06EF3B8
:104740000F0BCDF814B0DDE900BE6EF31F4BCDF8B2
:1047500018B000BFD146DDF834E0DDF810B0DDF868
:1047600020A02AFB0BEACDF834A0DDF830E0DDF81C
:104770000CB0DDF820A02AFB0BEACDF830A0DDF864
:104780002CE0DDF810B0DDF818A02AFB0BEACDF81C
:104790002CA0DDF828E0DDF80CB0DDF818A02AFB2D
:1047A0000BEACDF828A050F804ABCDF810A05CF8C7
:1047B00004ABCDF80CA0DDF834E0DDF810B0DDF886
:1047C0001CA02AFB0BEACDF834A0DDF830E0DDF8C0
:1047D0000CB0DDF81CA02AFB0BEACDF830A0DDF808
:1047E0002CE0DDE904BA2AFB0BEACDF82CA0DDF8B9
:1047F00028E0DDF80CB0DDF814A02AFB0BEACDF8B8
:1048000028A0DDF824A0AAF1010A1FFA8AFACDF83F
:1048100024A000BFDDF824A0BAF1000F7FF44DAF53
:1048200003F0030ACDF824A03AE014F901ABCDF867
:1048300020A030F902ABCDF81CA019F901ABCDF8DE
:1048400018A03CF902ABCDF814A0DDE907EBDDF8C8
:1048500034A01BFB0EAACDF834A0DDF814E0DDF87F
:1048600020B0DDF830A01BFB0EAACDF830A0DDE9AA
:1048700006BEDDF82CA01BFB0EAACDF82CA0DDE9AE
:1048800005EBDDF828A01BFB0EAACDF828A0DDF86B
:1048900024A0AAF1010A1FFA8AFACDF824A000BFC9
:1048A000DDF824A0BAF1000FBFD1DDF834A04AFA38
:1048B00005FA0AF3070A06F801ABDDF82CA04AFA5C
:1048C00005FA0AF3070A06F801ABDDF830A04AFA48
:1048D00005FA0AF3070A02F801ABDDF828A04AFA44
:1048E00005FA0AF3070A02F801AB1C44DDF838A008
:1048F000AAF1010A1FFA8AFACDF838A000BF0E9873
:1049000000287FF4A0AE119800F0010000287DD0AF
:10491000404600EB430C91F900B00BFA07FB4FF057
:10492000010A0AFA05FA0BEB5A0911F901AB0AFA66
:1049300007FA4FF0010B0BFA05FB0AEB5B0ACDF807
:1049400034A04FEAA30ACDF830A059E050F804ABE8
:10495000CDF824A05CF804ABCDF820A0A2465AF80C
:1049600004BBCDF81CB0DDF81CB02FFA9BFBCDF8D2
:1049700018B0DDF81CB02FFA8BFBCDF814B0DDF8C1
:1049800014B04FEA1B4EDDF818B06EF30F0BCDF8E4
:1049900028B0DDE905BE6EF31F4BCDF82CB000BF8B
:1049A0005446DDF82CB0DDF824A02BFB0A99DDF885
:1049B00034E0DDF820B0DDF82CA02AFB0BEACDF8BE
:1049C00034A050F804ABCDF824A05CF804ABCDF8CB
:1049D00020A0DDE909AB2BFB0A99DDF834E0DDF816
:1049E00020B0DDF828A02AFB0BEACDF834A0DDF8D2
:1049F00030A0AAF1010A1FFA8AFACDF830A000BF50
:104A0000DDF830A0BAF1000FA0D100E033E003F0F0
:104A1000030ACDF830A01AE014F901EB30F902BB1B
:104A2000CDF82CB03CF902ABDDF82CB01EFB0B9995
:104A3000DDF834B01EFB0ABBCDF834B0DDF830B081
:104A4000ABF1010B1FFA8BFBCDF830B000BFDDF8E6
:104A500030A0BAF1000FDFD149FA05FA0AF3070ACC
:104A600006F801ABDDF834A04AFA05FA0AF3070AA2
:104A700002F801AB00BF11980644304613B000F0B5
:104A800000B830BCBDE8C08F2DE9FF4F89B00446A7
:104A9000199E179D0B9830440890002119E10A983F
:104AA00000EB4302E718DDF8609019F90190DDF89A
:104AB00058A009FA0AF94FF0010A0AFA05FA09EBB7
:104AC0005A0CDDF8609019F90190DDF858A009FA48
:104AD0000AF94FF0010A0AFA05FA09EB5A0801F13E
:104AE000010ADDF8609019F90A90DDF858A009FA7A
:104AF0000AF94FF0010A0AFA05FA09EB5A09CDF84A
:104B00001C9001F1010ADDF8609019F90A90DDF8B6
:104B100058A009FA0AF94FF0010A0AFA05FA09EB56
:104B20005A09CDF818904FEAA309CDF8149066E021
:104B300050F8049B52F804ABA3465BF804EBCDF8A5
:104B400000E0DDF800E02FFA9EFECDF80CE0DDF885
:104B500000E02FFA8EFECDF810E000BF5C46BB46A9
:104B60005BF804EBCDF800E0DDF800E02FFA9EFEE4
:104B7000CDF804E0DDF800E02FFA8EFECDF808E075
:104B800000BF5F46DDF810B02BFB09CCDDF810B09C
:104B90002BFB0A88DDF81CE0DDF808B02BFB09EBE5
:104BA000CDF81CB0DDF818E0DDF808B02BFB0AEBFF
:104BB000CDF818B050F8049B52F804ABDDF80CB0F7
:104BC0002BFB09CCDDF80CB02BFB0A88DDF804E0E8
:104BD000DDF81CB02EFB09BBCDF81CB0DDF804E0FD
:104BE000DDF818B02EFB0ABBCDF818B0DDF814B014
:104BF000ABF1010B1FFA8BFBCDF814B000BFDDF851
:104C00001490B9F1000F93D103F00309CDF814907B
:104C10002CE014F9019B30F902ABCDF810A017F984
:104C200001BB32F902ABCDF80CA0DDF810A019FBE6
:104C30000ACCDDF80CA019FB0A88DDF810E0DDF8DD
:104C40001CA01BFB0EAACDF81CA0DDF80CE0DDF8C3
:104C500018A01BFB0EAACDF818A0DDF814A0AAF12D
:104C6000010A1FFA8AFACDF814A000BFDDF81490EB
:104C7000B9F1000FCDD14CFA05F909F3070906F88F
:104C8000019BDDF81C9049FA05F909F3070906F8BC
:104C9000019B48FA05F909F3070ADDF8209089F825
:104CA00000A0DDF8209009F10109CDF82090DDF891
:104CB000189049FA05F909F3070ADDF8209089F8F8
:104CC00000A0DDF8209009F10109CDF820901C44E6
:104CD000891C0B988142FFF6E2AE0B9806443046E1
:104CE0000DB000F000B830BCBDE8C08F2DE9F04336
:104CF0000746134638469A0812E050F8044B2FFA3C
:104D000094F52FFA84F64FEA1649A84669F30F087E
:104D1000B44665F31F4C41F804CB41F8048B521E96
:104D2000002AEAD103F0030204E010F9019B21F804
:104D3000029B521E002AF8D1BDE8F083F0B505466B
:104D4000134628469A080AE050F8044B2FFA94F7C5
:104D50002FFA84F641F8046B41F8047B521E002AB6
:104D6000F2D103F0030204E010F901CB21F802CBE9
:104D7000521E002AF8D1F0BDF0B502460B4699103C
:104D80001046154611E050F8044B04F0803C4FEA01
:104D9000FC164FF0000CCCFA16F724EA070C45F885
:104DA00004CBA1F1010C1FFA8CF10029EBD103F027
:104DB00003010DE090F900C0BCF1000F03DA4FF0E1
:104DC000000C80F800C0401CA1F1010C1FFA8CF10E
:104DD0000029EFD1F0BD2DE9F04103460C466FF4F8
:104DE0008071002008E013F900C08C4500DD1956E1
:104DF00000F1010C0FFA8CF0A042F4DBA1F1080CD9
:104E00000FFA8CF10025002012E013F900C08C4548
:104E10000ADD13F900C0ACEB010C8CF305064FF072
:104E2000010C0CFA06FC654400F1010C0FFA8CF041
:104E3000A042EADB4FF4801C9CFBF5F700201AE04F
:104E400013F900C08C450EDD01F10D0C13F9008043
:104E5000ACEB080C8CF3050647FA06FC0CF3070CC8
:104E600002F800C003E04FF0000C02F800C000F1AF
:104E7000010C0FFA8CF0A042E2DBBDE8F08170B5C6
:104E800002460B460024002116E001EB410502F129
:104E9000200000EB8500406800B90FE01D1901EB10
:104EA000410602F1200040F8265001EB410500EBDD
:104EB000850040680444491C0829E6D300BF00204F
:104EC00070BDFCB504460D461346204629469A108F
:104ED00031E00668019651F8046B00969DF9006078
:104EE0009DF90470BE4203DD9DF800608DF80460FA
:104EF0009DF901609DF90570BE4203DD9DF80160DA
:104F00008DF805609DF902609DF90670BE4203DDD3
:104F10009DF802608DF806609DF903609DF90770A9
:104F2000BE4203DD9DF803608DF80760019E40F8E6
:104F3000046B561EB2B2002ACBD103F003020BE081
:104F400091F9006090F90070BE4201DD0E780670A4
:104F5000401C491C561EB2B2002AF1D1FCBD2DE9FD
:104F6000F74F82B091464FF0000B029C0120019058
:104F7000B9F1000F01D10DF10409A569E6693AE123
:104F8000A569286810BB2869F8B90398FEF738F8B6
:104F9000804698F80800401C88F80800E86801F08E
:104FA00089FD0421009001F0ADF98346D8F8040092
:104FB000584501D2584601E0D8F80400C8F804006A
:104FC000C5F8108001202969487206E003E02868CE
:104FD00000692861AD68002DF9D1A56985B1A8687F
:104FE00070B10BE0286918B12869407A012804D013
:104FF0006FF0070005B000F003B9AD68002DF1D1E6
:105000002046616888472146029800F001FDE0686B
:1050100028B30398FDF7F4FFE1680860E0680068D2
:10502000007A401CE168096808720120E16809689B
:105030004872E168081D01F0D7FC0421009001F0DE
:1050400061F98346E06800684068584501D25846D7
:1050500002E0E06800684068E16809684860D9F8E3
:105060000020501C1146C9F80000204601F02EFB1C
:10507000E06908B90020BDE7E0698068D0BBE0695D
:105080004068B8BBA069007E10B1E069007E50B9ED
:10509000A0690069E1690861039801F0F7FB204607
:1050A00001F033FC9FE00398FDF7AAFF074617B90C
:1050B0006FF006009EE7012038727872E169C868D7
:1050C00001F0F8FC0421009001F01CF98346786897
:1050D000584501D2584600E078687860E069076179
:1050E000039801F0D3FB204601F018FC204601F0A4
:1050F0000CFC78E0FFE7A069007E10B1E069007E5B
:10510000D8B9A0690069E1690861E06901F008F9AE
:10511000E1690969097A0844E169096908720120AD
:10512000E16909694872039801F0B0FB204601F07B
:10513000F5FB204601F0E9FB32E0E66923E0039845
:10514000FDF75EFF3061306910B96FF0060051E77E
:10515000F06801F0AFFC0421009001F0D3F8834621
:1051600030694068584501D2584601E030694068CE
:1051700031694860304601F0D3F831690872012086
:1051800031694872B66816B130680028D7D10398E3
:1051900001F07CFB204601F0C1FB204601F0B5FB8D
:1051A000E6691CE0B24612E0DAF8000041692046E8
:1051B00000F02EFC0090009830B9DAF800104A4652
:1051C00048690399FFF7CBFEDAF804A000BFBAF1F3
:1051D000000F03D0DAF800000028E5D1B668002EF1
:1051E000E0D1002006E7E069006808B9002001E787
:1051F000E06900684469002C7FF4C2AE0020F9E643
:1052000030BCBDE8C08F7CB504462546A069006867
:10521000C068A169C860A069C068017A002001F077
:105220005BF8E169C860A269D168E269D06801F001
:1052300002FC95F84000012821D1A069C0684068AF
:105240000088698E0844401E90FBF1F0E169C9684E
:1052500049680880A069C06840684188A88E0844F1
:10526000401EA98E90FBF1F0E169C9684968488049
:10527000B5F84400E169C9684968888025E0A069FB
:10528000C06840680088A98D401A401C698E084497
:10529000401E90FBF1F0E169C96849680880A06987
:1052A000C06840684188E88D081A401CA98E0844EF
:1052B000401E90FBF1F0E169C96849684880B5F883
:1052C0004400E169C96849688880A069C06840688D
:1052D00080888000EA8D5043AA8D00FB02F10123F3
:1052E0001A46684601F070FBE06800994160BDF81D
:1052F00004100181E169C86801F0DCFBE98DAA8D29
:105300005143A269D268526892885143484320624F
:1053100000207CBD01B596B016981590169880694E
:10532000C06840688088032854D116988069C06896
:105330004068018816988069C0684068408881424A
:1053400048D100231698C068006801681698C069A3
:10535000C06840684088169AD269D2681268CDE960
:105360000913CDE90720159890F9380081B21598F6
:1053700090F9390082B21598C06C03681598808E38
:10538000CDE90432069103901598818FC08D169A4D
:10539000D269D26852689288CDE9002002911598AE
:1053A000806C0068149016988069C0684068808896
:1053B000139016988069C0684068408812901698CB
:1053C0008069C0680068119012A90EC9FDF740FFFE
:1053D00017B000BD16988069C06840688088C11702
:1053E000139000EB917081101398A0EB81000028BE
:1053F0006FD11698C069C06840688088149000EB2F
:10540000D07041101498A0EB41000028F0D11598FD
:10541000C08D01285ED11598808D01285AD10023B6
:105420001698C068006800681699C969C968496813
:105430000988169AD269D26852685288CDE90E035B
:10544000CDE90C211698C069C0680268159890F9DA
:10545000380080B2159991F9391089B2159BDB6C2F
:105460001B68CDE90831CDE90A021598418E838E7B
:10547000428F808FCDE90523079104901598818D87
:10548000C08D169AD269D26852689288159B9B6C1F
:105490001B68CDE90032CDE9020116988069C06829
:1054A00040688088149016988069C06840680088B9
:1054B000139016988069C0684068408812901698CA
:1054C0008069C0680068119012A90EC9FDF7E0FD5F
:1054D0007EE7ADE016988069C0684068018816983C
:1054E0008069C06840684088814247D1002316988F
:1054F000C068006800681699C969C9684968498820
:10550000169AD269D2681268CDE90903CDE907215C
:10551000159890F9380081B2159890F9390082B247
:105520001598C06C03681598808ECDE904320691F9
:1055300003901598818FC08D169AD269D2685268EF
:105540009288CDE9002002911598806C0068149033
:1055500016988069C06840688088139016988069A2
:10556000C06840684088129016988069C0680068DA
:10557000119012A90EC9FEF7A4F929E70023169885
:10558000C068006801681698C069C06840680088F3
:10559000169AD269D26852685288CDE90E13CDE9C5
:1055A0000C201698C069C0680068159991F93810E8
:1055B00089B2159A92F9392092B2159BDB6C1B685F
:1055C000CDE90832CDE90A101598428E818E438FBD
:1055D000808FCDE90531079204901598828DC18D99
:1055E0001698C069C06840688088159B9B6C1B68D2
:1055F000CDE90030CDE9021216988069C068406894
:105600008088149016988069C0684068008813905C
:1056100016988069C0684068408812901698806922
:10562000C0680068119012A90EC9FEF7B8FBCFE65A
:1056300016988069C0684068018816988069C068BB
:1056400040684088814247D100231698C0680068AE
:1056500001681698C069C06840684088169AD26987
:10566000D2681268CDE90913CDE90720159890F9A1
:10567000380083B2159890F9390081B21598C06C42
:1056800002681598808ECDE90513CDE903021598BF
:10569000818FC08D169AD269D26852689288CDE9FE
:1056A000002002911598806C00681490169880690B
:1056B000C06840688088139016988069C068406808
:1056C0004088129016988069C0680068119012A9ED
:1056D0000EC9FDF7D9FE7BE600231698C068006866
:1056E00000681699C969C96849680988169AD26913
:1056F000D26852685288CDE90E03CDE90C21169884
:10570000C069C0680068159991F9381089B2159A76
:1057100092F9392092B2159BDB6C1B68CDE90832F7
:10572000CDE90A101598428E818E438F808FCDE986
:105730000531079204901598818DC28D1698C06925
:10574000C06840688088159B9B6C1B68CDE9003061
:10575000CDE9022116988069C0684068808814905D
:1057600016988069C0684068008813901698806910
:10577000C06840684088129016988069C0680068C8
:10578000119012A90EC9FDF78AFF21E610B5044653
:10579000A0690068C068A169C860A069C068017A92
:1057A000002000F099FDE169C860A269D168E26952
:1057B000D06801F040F9002010BD7FB504462546B1
:1057C000A0690068C068A169C8600121002000F0DC
:1057D00083FDE169C86000200390A88D80B202902B
:1057E000E16902AB0122C868039901F051F9A1698E
:1057F000C86801F05FF9460001231A463146684641
:1058000001F0E2F8E06800994160BDF80410018100
:10581000A169C86801F04EF90646E169C86801F05F
:1058200049F946432662002004B070BDF0B585B04A
:10583000044600262546A169C86801F03BF987B2F5
:10584000E06800680068E169C96809686A6B126805
:1058500095F938309BB2CDE90132CDE9031095F9C5
:10586000390080B20090E269D268526813882A6BCE
:105870001168A269D26810683A46FEF70DFD064627
:10588000304605B0F0BD024601230AB9002070473A
:1058900007E05B1C914201D11846F8E7D069006827
:1058A0004269D06900680028F3D100BFEFE70146E4
:1058B00009B90020704702E0C86900684169C869F9
:1058C00000680028F8D10846F4E7000013B50C463C
:1058D00000BF47F23053012269460348FCF79AF9AA
:1058E0000028F6D100981CBDC030002010B500285B
:1058F00021D0114B0022001F196803E0814203D818
:105900000A4649680029F9D152B11368841A9C42A9
:1059100004D1006818441060104602E0506000E0B6
:10592000186039B102680B1A934203D10B681A440C
:1059300002604968416010BD3400001001480068F1
:10594000006870471400001010B50446A069C068D4
:10595000017A002000F0C0FCE169C860A269D1684A
:10596000E269D06801F067F8002010BD70B5044608
:105970002546A169C86801F09DF80646696BA269D1
:10598000D26810683246FAF761FC002070BD02460A
:105990004A610846704770B5044600253CB104E0F2
:1059A000E06801F087F80544A468002CF8D1284687
:1059B00070BD70B504460D46164601233246294691
:1059C000204601F001F870BD70B504462CB90AA05C
:1059D000FCF76CFE4FF0FF3070BD002520462168BB
:1059E00088470646206910B12069016888476942E6
:1059F00061623046F0E700004572726F723A204EE5
:105A0000554C4C206F626A6563742E0A00000000DA
:105A100003460A461946934201D10020704705E02B
:105A20008A4202D14FF0FF30F8E7896A886A00287D
:105A3000F6D18A6200BFF1E7024611460AB900209A
:105A4000704700E0896A886A0028FBD10846F7E7BA
:105A50002DE9F04F07460E469046DDF82CC0002297
:105A60006FE0002565E000245BE06FF08009DDF861
:105A700038A005FB0AFADDF830B0AAEB0B0A0FFAE2
:105A80008AF131E0DDF834A004FB0AFAAAEB0C0A33
:105A90000FFA8AF019E0002913DB002811DB4145D9
:105AA0000FDAB0420DDA01FB060A03FB0A2A17F9E6
:105AB0000AA0CA4505DD01FB060A03FB0A2A17F9FD
:105AC0000A9000F1010A0FFA8AF0DDF834A004FB15
:105AD0000AFAAAEB0C0BDDF824A0DA448245DADCE2
