:020000040800F2
:10000000986500109D010008CF3800088F34000863
:10001000CD380008EB0C0008E9460008000000009D
:100020000000000000000000000000006540000823
:10003000CB0E000800000000D1380008674000081F
:10004000B7010008B7010008B7010008B7010008B0
:10005000B7010008B7010008B7010008B7010008A0
:10006000B7010008B7010008B7010008B701000890
:10007000B7010008B7010008850E0008910E0008BE
:10008000B7010008B7010008B7010008B701000870
:10009000B7010008B7010008B7010008B701000860
:1000A000B7010008B7010008B7010008B701000850
:1000B000B7010008B7010008B7010008B701000840
:1000C000B7010008B7010008B7010008B701000830
:1000D000B7010008B7010008B7010008B701000820
:1000E000CD0E0008B7010008B7010008B7010008ED
:1000F000B7010008B7010008B7010008B701000800
:10010000B7010008B7010008B7010008B7010008EF
:10011000B7010008B7010008B7010008B7010008DF
:10012000B7010008B7010008B7010008B7010008CF
:10013000B7010008250D0008310D0008B7010008BF
:10014000B7010008B7010008B7010008B7010008AF
:10015000B7010008B7010008B7010008A93D000871
:10016000B7010008B7010008B7010008B70100088F
:10017000B7010008B70100080000000000000000FF
:10018000B7010008B7010008DFF80CD000F096FABC
:1001900000480047857500089865001006488047AC
:1001A00006480047FEE7FEE7FEE7FEE7FEE7FEE75C
:1001B000FEE7FEE7FEE7FEE72141000889010008AF
:1001C0002DE9F05F0546002092469B46884606468C
:1001D000814640241BE0284641464746224600F01F
:1001E0009AF853465A46C01A914110D31146184600
:1001F000224600F081F82D1A67EB01084F4622468F
:100200000120002100F078F817EB00094E41201E74
:10021000A4F10104DFDC484631462A46434600F09B
:1002200000B830BCBDE8C09F40EA01039B0703D083
:1002300009E008C9121F08C0042AFAD203E011F825
:10024000013B00F8013B521EF9D27047D2B201E0E7
:1002500000F8012B491EFBD270470022F6E710B5CB
:1002600013460A4604461946FFF7F0FF204610BD24
:1002700030B504460020034600E05B1C934203D2E5
:10028000E05CCD5C401BF8D030BD10B5484304465F
:1002900004F028FC002805D00021002C02D0641EA8
:1002A0000155FAE710BD00F0004230F000400AD0DE
:1002B000C10D01F56071C0F3160042EA0151C20898
:1002C00040071143704700200146704730B50B4688
:1002D000014600202022012409E021FA02F59D4276
:1002E00005D303FA02F5491B04FA02F52844151E4A
:1002F000A2F10102F1DC30BD202A04DB203A00FA31
:1003000002F1002070479140C2F1200320FA03F36C
:10031000194390407047202A04DB203A21FA02F06A
:100320000021704721FA02F3D040C2F1200291402F
:100330000843194670472DE9FE4F804681EA0300C5
:10034000C00F0C46009021F0004123F00045B8EBAF
:100350000200A94105D24046214690461C460B4664
:10036000024623F00040104347D0270DC7F30A0090
:10037000C3F30A510290401A019040286BDAC3F38C
:10038000130040F4801B0098924620B10023D2EB6A
:10039000030A63EB0B0B01985946C0F1400250462B
:1003A000FFF7AAFF06460D4650465946019A00F04F
:1003B00097F910EB08006141002487EA115284EAA2
:1003C000E7731A4340D0009A62B3019A012A4FEAB8
:1003D000075215DC001B61EB02014FF0004202EAFC
:1003E0000752CDE90042001C41F5801132462B46F0
:1003F00000F097F903B000F045B840462146F9E710
:10040000001B61EB0201001C41F5801300185B41E9
:100410002018A2F5001747EB030140EAD570B61982
:100420006D4111E06D084FEA360645EAC0754FEAA6
:100430000752001B61EB0201001C41F580114908C5
:100440004FEA30000019514132462B4603B000F00C
:100450001CB800F057B90098012240000023D0EBEF
:10046000020263EBE073009821464FEAE074B8EBB8
:10047000000061EB0401E9E783F000435BE781F0F2
:10048000004158E730BCBDE8C08F30BCBDE8C04F6C
:10049000FFF7DFBF2DE9FE4F81EA030404F00044BB
:1004A00021F0004100944FF0000B23F0004350EA8C
:1004B00001045ED052EA03045BD0C3F30A54C1F3D3
:1004C0000A552C44A4F2F3340194A0FB0254C1F366
:1004D000130141F48011C3F3130343F4801301FBB0
:1004E000024400FB034E840A970A44EA815447EA17
:1004F0008357A4FB076802958D0A05FB07854FEA21
:10050000932C04FB0C542705029D4FEA065847EA3A
:100510001637B5EB08056EEB070C870E920E47EA0F
:10052000811742EA8312A7FB0201B6EB0B0164EBD1
:1005300000042B0D43EA0C335E1844EB1C50DA46E2
:100540005146E7FB0201C5F313044FEA0B3343EABC
:1005500014534FEA0432019C43EA0603A4F10C044D
:100560000294009CCDE900B400F0DBF803B000F089
:1005700003B800200146F9E730BCBDE8C08F2DE983
:10058000F04D81EA030404F0004B21F000451446CD
:100590004FF0000A23F0004150EA050220D054EA4F
:1005A00001021DD0C5F30A570246C5F31303C1F378
:1005B0001300C1F30A5640F4801543F48013A7EBEF
:1005C0000608101BD64608F2FD3873EB050002D36F
:1005D00008F1010801E092185B41B8F1000F03DA5D
:1005E00000200146BDE8F08D00204FF48011064642
:1005F00084460EE0171B73EB050705D3121B63EB54
:10060000050306434CEA010C49084FEA30009218F2
:100610005B4150EA0107EDD152EA030012D082EAB1
:10062000040083EA0501084305D0101BAB4106D244
:100630000122002306E000224FF0004302E06FF0A9
:10064000010253101AEB06004CEB085110EB0A00A4
:1006500041EB0B01BDE8F04D00F054B8C1F30A5274
:10066000C1F3130140F2FF3341F480119A4202DAE0
:1006700000200146704740F233439A42A2F23342CF
:1006800002DC5242FFF747BEFFF736BE30B5041E0C
:1006900071F1000404DB4FF00044404264EB0101BF
:1006A000141E73F1000405DB1C464FF00043524258
:1006B00063EB0403994208BF904230BD064C074DDE
:1006C00006E0E06840F0010394E807009847103422
:1006D000AC42F6D3FFF75CFD88630108C8630108EC
:1006E000202A06DBCB17203A41FA02F043EAE073F6
:1006F00006E041FA02F3D040C2F1200291400843E3
:100700001946704710B5141E73F1000408DA401C36
:1007100041F1000192185B411A4301D120F0010020
:1007200010BD2DE9F04D92469B4611B1B1FA81F210
:1007300002E0B0FA80F220329046FFF7DDFD044679
:100740000F4640EA0A0041EA0B0153465A46084365
:1007500013D0114653EA010019D0C8F140025046A7
:10076000FFF7D9FD05460E46504659464246FFF76B
:10077000C3FD084305D0012004E020463946BDE80A
:10078000F08D0020054346EAE0762C4337430A9873
:100790006305E40AA0EB08000022FD0A44EA47547E
:1007A0000A3002D500200146E9E701051019694128
:1007B000DDE9084500196941BDE8F04DA2E770B5D3
:1007C0008C1810F8015B15F0070301D110F8013BFC
:1007D0002A1106D110F8012B03E010F8016B01F883
:1007E000016B5B1EF9D12B0705D40023521E0DD4DB
:1007F00001F8013BFAE710F8013BCB1A921C03E029
:1008000013F8015B01F8015B521EF9D5A142D8D360
:10081000002070BD2DE9F04701264FEA42084FEA5B
:1008200051090024002506EB510C6FF0010606EB80
:10083000510E00BFADB26600AC4228D250F826700F
:1008400050F83520E900043140F8262040F8357092
:1008500046F0010250F822A0475840F8227040F8B4
:1008600001A004EB0C0105EB0C0750F831A050F887
:10087000372040F83120C90040F837A0FF0004318C
:10088000043750F801A0C259425040F807A000EBCD
:1008900086014D448A6850F835608E6040F83520F6
:1008A000ED000435CA684659CE604251A21C03EBE4
:1008B000080194B21D880B46744588BFBDE8F087D7
:1008C000B8E7B0B50C460546838942680188807850
:1008D000012805D195ED040A204600F041F902E017
:1008E000204600F07FF8E878012818BFB0BDAB685B
:1008F000EA8929882046BDE8B040FFF78BBF000099
:100900004EF2883CFF29C0F6000CC0F804C00180FC
:10091000C37082704DF688324FF0FF03C0F60002BC
:100920000EDDB1F5806F16DB29D0B1F5805F2BD0DD
:10093000B1F5006F42D19FED2A0A0232022137E061
:100940003F2913DC102923D0202937D19FED1E0A1F
:10095000FE3280212CE0B1F5807F20D0B1F5007F00
:100960002CD19FED1D0A0E32082121E040291BD019
:10097000802923D19FED160A3E32202118E09FEDF9
:10098000170A0632042113E09FED0D0A01210FE042
:100990009FED0C0A02F5FF724FF4807108E09FEDA5
:1009A0000D0A1E32102103E09FED080A7E3240211D
:1009B0000023C181818180ED040A826058B27047B2
:1009C000000080390000803D0000003D0000803CB8
:1009D0000000003C0000803B0000003B0000803A2B
:1009E0000000003A2DE9F04F83B0009000204FEA5C
:1009F000510CB0EB510F36D0009F4FEACC0ECCF12A
:100A00000006DD00141D00BF07EB0E0097ED000A85
:100A100097ED011A14ED014A94ED005A2C44013669
:100A200090ED002A90ED013A30EE426A31EE437AC1
:100A300030EE020A31EE031A25EE062A24EE073ABA
:100A400025EE075A24EE064A87ED000A87ED011AC3
:100A500007F1080734EE051A33EE420A80ED001A5A
:100A600080ED010AD0D1062952D360465B004FEADF
:100A70005C08DDF800A04FEACC054FF0000E00271F
:100A800001904FEAC8061FFA83F90293F80002EBBF
:100A9000C704F346043094ED000A5446104490ED28
:100AA000001A00BFA01994ED002A94ED013AE34426
:100AB00090ED004A90ED015A8B4533EE456A32EED7
:100AC000447A32EE042A33EE053A21EE064A20EE4D
:100AD000075A21EE077A20EE066A84ED002A84ED9B
:100AE000013A2C4435EE042A36EE473A80ED002ACE
:100AF00080ED013AD6D30EF1010E4F440AF1080AF7
:100B0000C645C3D3019BC4465808052B029BADD8EC
:100B1000F9B100980022083010ED020A90ED002A89
:100B200010ED011A90ED013A02328A4231EE434A49
:100B300030EE425A30EE020A31EE031A00ED020A9C
:100B400000ED011A80ED005A80ED014A00F110001D
:100B5000E2D303B000F000B830BCBDE8C08F0000A5
:100B60002DE9F04F83B0009000204FEA510CB0EB1C
:100B7000510F34D0009C4FEACC0EDE00151D6746A5
:100B800004EB0E0094ED001A94ED012A15ED015AC4
:100B900095ED006A3544013F90ED003A90ED014A31
:100BA00032EE447A71EE430A31EE031A32EE042A31
:100BB00025EE073A26EE204A26EE076A25EE205A51
:100BC00084ED001A84ED012A04F1080435EE462A6A
:100BD00034EE031A80ED002A80ED011AD0D10629E7
:100BE00053D308465B0064464FEACC054FEA5C0CE1
:100BF000DDF800904FF0000E4FF0000B01904FEA2F
:100C0000CC061FFA83F802934FEACB0702EBCB0026
:100C1000F246043790ED001AD0194F4690ED002AA5
:100C2000B81997ED003A97ED014AA24490ED005AA9
:100C300090ED016A8A4534EE467A73EE450A33EE4A
:100C4000053A34EE064A22EE075A21EE206A21EEDA
:100C5000077A62EE200A87ED003A87ED014A2F44B9
:100C600036EE453A30EE874A80ED003A80ED014A93
:100C7000D6D30EF1010EC34409F10809E645C3D3EA
:100C8000019B58080B2B029BACD841B30098002263
:100C9000083000BF10ED021A90ED003A10ED012A65
:100CA00090ED014A02328A4232EE445A34EE022A70
:100CB00031EE436A31EE031A21EE001A25EE003AB6
:100CC00026EE004A22EE002A00ED021A00ED012A6B
:100CD00080ED004A80ED013A00F11000DAD303B054
:100CE00000F000B830BCBDE8C08FFEE709480168DD
:100CF00021F001010160084801218160816800291B
:100D0000FCD10649016000680549884200D0FEE731
:100D100070470000002000E000300240C2A507F448
:100D2000CDB5E8B5014800F0BFBB0000340B002092
:100D3000014800F0B9BB0000880B002010B5806AA4
:100D40000321016500F024FA10BD10B5806A00F09F
:100D500031FB10BD10B5806A00F040FB10BD0000F3
:100D60001549884201D1002070471349203188423B
:100D700001D10120704710494031884201D1022041
:100D800070470D498031884201D1042070470A49DB
:100D9000A031884201D1052070470749C0318842FF
:100DA00001D1062070470449E031884201D1072073
:100DB000704703207047000000600140426B0168EB
:100DC000002A0A6811D022F001020A6001680A684C
:100DD00042F400220A6001680A6842F001020A60D7
:100DE00090F84C10032904D010E042F400320A605D
:100DF0000CE0816B21B901680A6842F002020A60C6
:100E000090F8401001290AD00121816490F84C101B
:100E1000012906D05FF0040180F84C107047416C46
:100E2000F3E70221F8E701680A6822F001020A608C
:100E3000416B012904D101680A6822F400220A608A
:100E400001680A6842F001020A6090F84C10042917
:100E50000CD1816B21B901680A6842F002020A6074
:100E600090F84010012909D00121816490F84C10BC
:100E7000022905D0032180F84C107047416CF4E73B
:100E80000121F8E7014800F01BBC0000E4E4002069
:100E9000014800F015BC00002CE5002030B590F8AA
:100EA000444004F01C050124AC40056C6C600468EF
:100EB00063608368102B036803D099600068C26088
:100EC00030BD9A600068C16030BD70474FF400507B
:100ED00000F0B8BD01A003F009BC00005765206810
:100EE000617665206572726F720A0000F0B5044683
:100EF00000201E23012601E05B1E05D303F01F071F
:100F000006FA07F50D42F7D072B1082A0AD0102A66
:100F100005D0182A01D1072B06D30120F0BD082BDC
:100F2000FBD201E0102BF8D22368596121688B684D
:100F300023F0180313438B60F0BD000010B50400CC
:100F400010D0607F20B900202077204600F030F8D4
:100F500002206077207938B1D4E902122046FFF7E9
:100F6000C5FF48B1012010BD2168104848612068C4
:100F7000816821F0180181606079A0B12069216841
:100F8000086120688168626921F060011143816015
:100F900020688168A26921F08001114381600120ED
:100FA0006077002010BD4FF0FF30E8E7B71DC104A7
:100FB00008B500680649884208D10648816C41F4AA
:100FC00080518164806C00F48050009008BD000066
:100FD00000300240001002407047000070B504006D
:100FE00006D02068FFF7BCFE374D55F8200008B149
:100FF000012070BD204600F06FF834480168491C9C
:10100000016000683249012819D13248026822F093
:10101000804202600268A3681A430260026822F4F8
:101020007F0202602279012A05D10268A38901EBBF
:1010300003431A430260026842F0004202602068E3
:10104000026822F471420260226810682369184322
:10105000D4E905363343184310602068026822F053
:101060000F020260D4E907200243206803681A4394
:1010700002602068826822F45F02826020688268D1
:10108000636A1A43238D01EB03410A43826020689F
:10109000416801F007014160E06A216B000240EA0B
:1010A000C10120684268114341602068016841F035
:1010B00080010160012084F834002068FFF750FEB1
:1010C00045F82040002070BD74050010D40A0020AF
:1010D0000000FFFF0060014000B587B014216846A2
:1010E000FFF7BBF814484168002923D10168491C67
:1010F00001601248012907D1016E41F0807101663B
:10110000016E01F080710591C16C41F01001C16464
:10111000C06C694600F0100005904FF420700090FC
:1011200002200190002002900390062004900448C1
:1011300000F094FC07B000BDC00A0020001002407F
:10114000001000487047704770B590F84C4000237D
:10115000C4B1FF2C16D0046825680C4E35402560BC
:1011600004686FF30F01012A256804D045EA0121C4
:101170002160026307E04FF4802646EA01210D4317
:101180002560F6E70123184670BD0000FFFFFBF85D
:101190007047000070B5040031D03C492068884297
:1011A00005D1606801282AD0E068012827D00125F0
:1011B000002065642063A5642065204600F06EF879
:1011C0002068016821F400210160207A012820684C
:1011D000016816D021F000510160607A0128206872
:1011E000016811D021F4001101602068016846F205
:1011F000087291430160E068022808D00CE00120E9
:1012000070BD41F00051E7E741F40011ECE72068C0
:101210000168626911430160207C0128206801682F
:101220002ED021F010010160607C01282068016847
:1012300029D021F02001016020684169144A114041
:10124000416120684169E269124B1143228C03EB32
:101250000242636A5B1E1A43114341616068606326
:10126000E068A063A069E063207C84F84000206807
:10127000016841F00101016084F84C50002070BD0C
:1012800041F01001CFE741F02001D4E700610140B7
:1012900000FF001C0000FFFF704700002DE9F04F29
:1012A00087B0054614216846FEF7D7FF3848002668
:1012B000416891BB0168491C01603648012907D18A
:1012C000016E41F080710166016E01F0807105913F
:1012D000C16C41F01001C164C06C694600F010009F
:1012E00005904FF4207000900220CDE90106062001
:1012F000CDE90360284800F0B1FB002211463D20F3
:1013000000F058FD3D2000F048FD002211463E202F
:1013100000F050FD3E2000F040FD20492868802765
:101320004FF400784FF400694FF0200A4FF4805BCF
:10133000884211D11B4C1A4804F10C01C4E9000683
:10134000A66081E8C00F204600F018FA08B1FFF748
:10135000C1FDEC62AC62A562104928688031884208
:1013600012D1114C0E4804F10C011430C4E90006EE
:10137000A66081E8C00F204600F000FA08B1FFF730
:10138000A9FDEC62AC62A56207B000F00FB80000E6
:10139000C00A002000100240001000480061014017
:1013A00044000240E4E400202CE5002030BCBDE80D
:1013B000C08F0000074988420BD10748C188491CEB
:1013C000C1800178002904D10189491C01810121D2
:1013D00001707047340B0020600A002004494A78ED
:1013E000002A04D1034A904201D10120487070477D
:1013F000600A0020340B002070B50E0004464FF048
:1014000000052ED06AB320680068800229D5606B81
:1014100030B9206B20B9A06AC06940B1202820D023
:1014200094F84C00012805D0032803D019E0012AC4
:1014300017D1F5E7A16A0F48C862A16A0E48486350
:10144000A06AC16920290FD00021016321681346D9
:1014500032461C31A06A00F088FA38B1FF2084F8C7
:101460004C000125284670BD0449EEE72046FFF7F1
:10147000A5FCF7E74B0D00083D0D0008550D0008D1
:1014800070B5044690F84C000025022803D00428CB
:1014900001D0012505E0A06A00F0C6F82046FFF75C
:1014A000C2FC284670BD00002DE9F04104460068EA
:1014B000816842680D074FF0010305D5150703D574
:1014C0000821C160236507E04D070AD5550708D5F7
:1014D0000421C160022020652046FFF759FEBDE8C7
:1014E000F0818D0719D5950717D52046FFF762FFC4
:1014F000206B0028F3D1606B0028F0D12068416890
:1015000021F00201416094F84C00022803D003202E
:1015100084F84C00E3E70120FAE701EA0205ED0751
:101520001FD02046FFF7B8FEA06C401EA064D6D1A5
:10153000A06B58B92068416821F00101416094F81E
:101540004C00032809D0022084F84C0094F8400095
:10155000012804D00120A064C1E70120F4E7606CF9
:10156000F9E7CD061CD5D5061AD5856A002115F0F8
:10157000FF0F01D0012204E000222D0A01E06D08D6
:10158000491CEE0701D10729F9D32AB18B40C36268
:101590002046FFF7D8FDA2E701F10805AB40F6E7CA
:1015A0001F4D204EA84221D111F47F0F1ED05706A7
:1015B0001CD580680025C0F307479846F80710D06F
:1015C00056F8250068B100680068400609D505F1A5
:1015D000100108FA01F02168C86056F82500FFF7ED
:1015E000FBFC7F086D1C082DE8D378E7A84291D159
:1015F000090E8FD091068DD582680021120ED40776
:1016000005D15208491CD40701D10729F9D301F1AA
:1016100018029340C36056F82100FFF793FD5EE780
:10162000006101407405001010B590F825100022EB
:10163000022905D00421C16380F82420012010BDB7
:1016400001680B6823F00E030B6001680B6823F040
:1016500001030B6090F84410046C01F01C0301219D
:1016600001FA03F3636080F8251080F82420104607
:1016700010BD10B590F825100024022903D00421D4
:10168000C16301241AE001680A6822F00E020A60B0
:1016900001680A6822F001020A6090F84410036CA5
:1016A00001F01C02012101FA02F25A6080F82510B3
:1016B000002180F82410816B01B18847204610BDBD
:1016C000F0B4016C0C6801680D6890F8442002F0D9
:1016D0001C06042202FA06F3234211D06B070FD531
:1016E0000B689B0603D40B6823F004030B6090F88F
:1016F000441001F01C018A40016C4A60016B1DE03E
:10170000022303FA06F727424FF0000C4FF00102C4
:1017100018D0AF0716D50C68A40605D40C6824F0C1
:101720000A040C6080F8252090F8441001F01C0198
:101730008B40016C4B6080F824C0C16A00291AD02C
:10174000F0BC08470823B340234214D02B0712D51E
:101750000B6823F00E030B6090F84410036C01F04B
:101760001C0102FA01F15960C26380F8252080F85B
:1017700024C0416BE2E7F0BC7047000070B568B16F
:101780002B4C036814212B4AA34209D22A4C1C4437
:10179000B4FBF1F18900C0E910210BE0012070BD1C
:1017A000234C64421C44B4FBF1F18900416420499C
:1017B00008390164022180F825101C6847F6F07191
:1017C0008C43D0E902152943D0E904563543294317
:1017D00085692943C5692943056A2943214319605D
:1017E0008168B1F5804F19D0036C0F21934202D16B
:1017F00052F8A83F02E00E4AA032136890F8444025
:1018000004F01C04A1408B43136090F844304168FD
:1018100003F01C0399401368194311600021C16350
:10182000012280F8252080F82410084670BD0000B1
:101830000804024000000240F8FFFDBF2DE9F74F09
:10184000044690F82500894600274FF00408022836
:1018500002D0C4F83C8052E020680068800603D5BE
:101860004FF48070E0634CE094F844004FF0020ABB
:10187000B9F1000F00F01C0007D008FA00F500BF16
:1018800000F024FA8346012620E00AFA00F5F7E783
:10189000016894F8440000F01C02082090400142C6
:1018A00009D094F84400216C00F01C0006FA00F006
:1018B0004860E66321E00298401C07D000F006FA79
:1018C000A0EB0B010298814215D8A0B1206C0168F1
:1018D0002942DDD094F84400B9F1000F00F01C015A
:1018E00011D008FA01F0216CC1F8040084F82470CA
:1018F000002000F00FB82020E06384F8256084F811
:1019000024700120F5E70AFA01F0216C486084F8A0
:101910002560EBE71EBCBDE8E08F70B5044690F88B
:101920002400002501280CD0012084F8240094F81C
:1019300025600020012E06D084F8240002252846C8
:1019400070BD022070BD022684F82560E063206827
:10195000066826F0010606602046FFF79FFA206819
:10196000016841F001010160E9E770B5044690F8B3
:101970002400002501280CD0012084F8240094F8CC
:1019800025600020012E06D084F824000225284678
:1019900070BD022070BD022684F82560E0632068D7
:1019A000066826F0010606602046FFF777FA206BEE
:1019B00000282068016802D041F00E0106E021F005
:1019C000040101602068016841F00A01016020689B
:1019D000016841F001010160D9E7000070B50446DB
:1019E00000F074F90546601C02D0044840680444C5
:1019F00000F06CF9401BA042FAD370BDC80A002069
:101A000010B5B0F5005F18D10C4C0D484FF4804173
:101A1000227942B1012A0BD0022A0ED1002200F015
:101A200050F9002008E0012200F04BF9012003E00A
:101A3000002200F046F90220207110BD600A00204B
:101A400000040048044910B50A68024202D0086048
:101A5000FFF7D6FF10BD0000140401402DE9F04F40
:101A6000DFF83492002309F1040A012403250AF166
:101A7000040B87B00F270BF1040E04E104FA03F600
:101A800032407CD0D1F804C0BCF1010F08D0BCF1C9
:101A9000020F05D0BCF1110F02D0BCF1120F29D1F9
:101AA000D0F808C0CDF800C04FEA430C05FA0CF896
:101AB000CDF80CC0DDF800C02CEA080CCDF800C051
:101AC000D1F80C80DDF80CC008FA0CF8DDF800C085
:101AD00048EA0C08C0F80880D0F8048091F804C0E7
:101AE00028EA0608CCF3001C0CFA03FC4CEA080CAC
:101AF000C0F804C0D1F804806FEA080C5FEA8C7C5F
:101B000009D1D0F82CC02CEA060CC8F3C0069E40C0
:101B100046EA0C06C662D0F80CC04FEA430805FA44
:101B200008F62CEA060CCDF8148002968E6806FAA8
:101B300008F646EA0C06C6604E68022E01D0122E48
:101B400015D1DE0800EB86060396366A4FEA437C21
:101B50004FEADC6807FA08FC26EA0C06D1F810C048
:101B60000CFA08FC4CEA060C039EC6F820C0066876
:101B7000DDF808C026EA0C0691F804C000E081E018
:101B8000DDF814800CF0030C0CFA08FC4CEA060C8F
:101B9000C0F800C04E68F60074D5404ED6F860C05C
:101BA0004CF0010CC6F860C0366E23F0030C06F052
:101BB000010600963A4E66440296D6F808C09E0783
:101BC0004FEA167807FA08F62CEA060CB0F1904FA7
:101BD00004D0344EB04203D101261BE0002619E0A8
:101BE000314EB04201D1022614E0304EB04201D154
:101BF00003260FE02E4EB04201D104260AE02D4EFE
:101C0000B04201D1052605E02B4EB04201D1062697
:101C100000E0072606FA08F646EA0C06DDF808C0DA
:101C2000CCF80860D9F80060CC46D1F8048096431F
:101C30005FEAC83800D51643CCF80060DAF80060D7
:101C4000D446D1F8048096435FEA883800D516431D
:101C5000CCF80060DBF80060DC46D1F804809643E5
:101C60005FEAC82800D51643CCF80060DEF80060B3
:101C7000F446D1F8048096435FEA882800D51643DD
:101C8000CCF800605B1C0A6832FA03F67FF4F6AE0B
:101C900007B000F013B8000000040140001002403B
:101CA000000001400004004800080048000C004803
:101CB00000100048001400480018004830BCBDE87F
:101CC000C08F0AB1816170478162704701488068A6
:101CD00070470000C80A0020024881684268114429
:101CE00081607047C80A002010B50024032000F06E
:101CF00081F8002000F008F808B1012401E000F0AC
:101D000025F8204610BD000070B50E4E0546002493
:101D1000706898B14FF47A71B1FBF0F00A49096824
:101D2000B1FBF0F001F0F2F940B9102D06D200221B
:101D30002946501E00F03EF8356000E001242046A0
:101D400070BD0000C80A0020F8040010094808B55A
:101D5000016E41F001010166016E01F00101009187
:101D6000816D41F080518165806D00F08050009060
:101D700008BD00000010024000280DDB00F01F022B
:101D8000012191404009800000F1E020C0F880115D
:101D9000BFF34F8FBFF36F8F7047002809DB00F050
:101DA0001F02012191404009800000F1E020C0F8AD
:101DB00000117047F0B40E4B1B680C46C3F30223AE
:101DC000C3F10705042D00D90425191D072901D2E7
:101DD000002300E0DB1E012606FA05F1491E214022
:101DE00099409E40761E16403143F0BC02F0A1BCE3
:101DF0000CED00E0064900F0070208684FF6FF030B
:101E0000184040EA0220034A10430860704700006F
:101E10000CED00E00000FA051649B0F5007F0868F7
:101E2000C0F3412009D0022805D0086820F4C06022
:101E300040F480600860002070470128FBD00868EB
:101E400020F4C06040F4007008600B483222006843
:101E500050430A4AB0FBF2F0401C00E0401E4A69C1
:101E6000520501D50028F9D148694005E3D5032082
:101E70007047000000700040F804001040420F005E
:101E80000248006800F4C060704700000070004025
:101E9000F8B504460025FFF719FF064694F8390007
:101EA000800736D5002084F838002068016849078B
:101EB0000BD5016821F004010160606BFFF7B4FBF2
:101EC00018B1E06B40F00400E0632068016841F065
:101ED00002010160206C009033460122022120465D
:101EE00001F0F8FE050014D121680220C860206CC2
:101EF0000090334600222021204601F0EBFE050031
:101F000007D12068416921F040614161012084F8D6
:101F100039002846F8BD704770B5044690F839007E
:101F2000002580072CD5002084F83800082084F88C
:101F300039002068016821F4F81101602068016807
:101F4000490711D5016821F004010160616B0D485A
:101F50008863606BFFF78DFB90B1012084F8390036
:101F60002046FFF7D8FF0BE00221C160206801681E
:101F700041F4003101602068016841F00201016014
:101F8000284670BDCF3A00082DE9F84F1E46154689
:101F90008A460446FFF79AFE814694F838000128E5
:101FA0000ED0012784F8387094F839004FF00008FB
:101FB000012807D05FF0020084F8388000F03AB8BA
:101FC0000220FBE7C4F83C80422084F839004B46ED
:101FD000002220212046009601F07CFE0028EBD153
:101FE0002168286888622168686848622168A86852
:101FF000C86220682969026822F4400242F4800223
:1020000011430160E968CAF828104FF00062514698
:10201000204601F0ADFC4B460122082120460096E7
:1020200001F058FE0028C7D122680821D16084F849
:102030003970C1E718BCBDE8E08F2DE9F8431546BB
:1020400088460446FFF742FE034694F8380001280C
:1020500009D0012084F8380094F8390000260128BE
:1020600004D002270FE00220BDE8F883E663422097
:1020700084F83900206C009000222021204601F0D5
:1020800029FE070002D084F8386024E0216828681F
:1020900088622168686848622168A868C862D5E9D2
:1020A0000401084321680A6822F4400210430860D2
:1020B00021680920C860E968C8F828104FF000625C
:1020C0004146204601F054FC84F8386020680168DD
:1020D00041F4102101603846C6E770472DE9F84FFA
:1020E00017468B460446FFF7F1FD824694F8380008
:1020F00001280ED0012684F8386094F839004FF09A
:102100000008012807D0022584F83880284600F00E
:1021100028B80220FBE7C4F83C804FF0020984F89D
:1021200039905346002220212046009701F0D2FD2D
:102130000500E9D100225946204601F019FCDBF8E0
:10214000240058B95346012202212046009701F08D
:10215000C1FD0500D8D12168C1F80C9084F8396020
:10216000D2E718BCBDE8E08F7047704770B50446F1
:102170000068816802684B0734D5530332D594F860
:102180003910203012290FD094F8391022291BD091
:102190001EE0616A01B3E16909780170E169491CD7
:1021A000E161616A491E6162216889684907F0D46A
:1021B0000EE0216B81B10178A26A1170A16A491CFD
:1021C000A162216B491E2163216889684907F0D407
:1021D0002046FFF7CAFF70BD2068016821F4802106
:1021E0000160F5E78B074FF0010574D5930372D5B5
:1021F0000221C1602068016821F4E021016094F8A7
:102200003900122815D094F83900222828D094F8E3
:102210003900022850D094F839000828DBD1206812
:10222000416921F04061416184F83950E06BE0B3CD
:102230004DE020680168490709D5016821F00401D3
:102240000160606B0068016821F0010101602046B7
:10225000FFF762FE84F83950204600F0E4F970BDC3
:102260002068016849070AD5016821F0040101606E
:10227000606B0068016821F00101016011E020300D
:102280000AE0216B69B10178A26A1170A16A491C48
:10229000A162216B491E21632168896811F4F85FEE
:1022A000EFD12046FFF738FE00E00BE084F839500C
:1022B000204600F04EF970BD84F839502046FFF7F3
:1022C0000CFF70BD2046FFF726FE70BD03E02046E0
:1022D000FFF74AFFF9E70B0711D513030FD50821C4
:1022E000C16020680168490205D5016821F4102108
:1022F000016084F83950204600F02CF9E5E7CB075F
:1023000022D0D30320D5C5602068016821F4702154
:102310000160E06B40F00200E0632068016849075B
:102320000FD5016821F004010160616B0B488863DF
:10233000606BFFF79EF90028C7D0E06B40F0040007
:10234000E06384F83950C2E7C906BED5D102BCD5D6
:102350001021C160204600F003F9B6E7CF3A00082B
:10236000F8B50446FFF7B2FC06465CB194F83800B5
:10237000012809D0012784F8387094F83900002525
:1023800020B10BE00120F8BD0220F8BD84F83850E0
:10239000204600F03DF841F2883020642068016852
:1023A000A2686FF0FF0321F4706103EB0222114376
:1023B0000160206C0090334600222021204601F06D
:1023C00089FCE8B921680A680F4B1A40237942EA70
:1023D0000362E3681A430A60D4E9051211432268D4
:1023E00053680A4E3340268A43EA06431943516034
:1023F00021680A6842F001020A60E56384F83970D6
:1024000084F83850F8BD0000EFFFFF00FEF8E0FF51
:1024100010B586B0044614216846FDF71EFF174923
:102420002068884227D11648016D41F4807101650A
:10243000016D01F480710591C16C41F01001C1641E
:10244000C06C694600F0100005904FF47C4000908D
:102450000220019000200290032003900A200490A3
:102460000848FFF7FBFA002211464720FFF7A2FCBD
:102470004720FFF792FC06B010BD0000001000A03E
:1024800000100240001000482DE9F84F15460F4695
:102490000446FFF71BFC82462068816994F83820C7
:1024A00000F12009012A0DD0012684F8386094F843
:1024B00039204FF00008012A06D0022084F8388025
:1024C00000F044B80220FBE7C4F83C80BFB32222EE
:1024D00084F839200269521C22630269521CE262AC
:1024E000A762426922F0406242F080624261206845
:1024F00081610EE00621204601F0ECFBE0B999F87D
:102500000000A16A0870A06A401CA062206B401EF7
:102510002063206B53464FF0010200950028E9D15B
:102520004FF00201204601F0D5FB28B921680220B6
:10253000C8602046FFF7ACFC84F83960BEE7FFE7CF
:10254000E06B40F00800E0630120B7E718BCBDE88D
:10255000E08F704701490120C8707047600A002071
:10256000704700002DE9F84F15460F460446FFF767
:10257000ADFB8246206894F8381000F1200901294B
:102580000ED0012684F8386094F839104FF0000816
:10259000012907D05FF0020084F8388000F040B8CD
:1025A0000220FBE7C4F83C809FB3122184F8391065
:1025B0000169491C61620169491C2162E761416945
:1025C00021F0406141610EE00421204601F082FBD0
:1025D000E0B9E069017889F80010E069401CE06129
:1025E000606A401E6062606A53464FF001020095C7
:1025F0000028E9D14FF00201204601F06BFB28B919
:1026000021680220C8602046FFF742FC84F8396048
:10261000C2E7FFE7E06B40F00800E0630120BBE7A2
:1026200018BCBDE8E08F70472DE9F84F044600273D
:102630000088E54D3E46010504F1200B1DD5606E76
:1026400078B1B0F5800F11D0B0F5000F04D0B0F51F
:10265000400F22D001270FE0E86840F48030E860A6
:102660001BE00021201D01F0A5FB03E000215846DE
:1026700001F036FC070010D03E462088C00426D565
:10268000A06EC0B1B0F1807F1AD0B0F1007F0DD044
:10269000B0F1407F19D0012718E0D5F88800616EAD
:1026A00020F440000843C5F88800E6E7E86840F4F5
:1026B0008030E86009E00021201D01F07BFB03E091
:1026C0000021584601F00CFC0746F7B13E46206851
:1026D00080033AD5A86D4FF00008C00009D4A86D5A
:1026E00040F08050A865A86D4FF0010800F08050C0
:1026F0000090DFF8D8A2DAF8001041F48071CAF82F
:102700000010FFF7E3FA814610E0D5F88800A16ECB
:1027100020F040700843C5F88800D8E7FFF7D6FAE4
:10272000A0EB0900022801D9032705E0DAF8000030
:10273000C005F3D5002F7CD04FEA0706B8F1000F93
:1027400003D0A86D20F08050A8652078C00707D07E
:10275000D5F88800A16B20F003000843C5F8880075
:102760002078800707D5D5F88800E16B20F00C00B1
:102770000843C5F888002078400707D5D5F88800B9
:10278000216C20F030000843C5F88800207800074D
:1027900007D5D5F88800616C20F0C0000843C5F863
:1027A00088002078C00607D5D5F88800A16C20F4F1
:1027B00040700843C5F888002078800607D5D5F812
:1027C0008800E16C20F440600843C5F88800208848
:1027D000800507D5D5F88800E16D20F44020084336
:1027E000C5F888002088400507D5D5F88800216EF7
:1027F00020F440100843C5F888002078400607D52B
:10280000D5F88800216D20F440500843C5F88800B1
:102810002078000607D5D5F88800616D20F4404087
:102820000843C5F888002088C00509D5D5F8880078
:1028300000E01CE0A16D20F440300843C5F888009A
:1028400020884FF0006780044FF080684FD5D5F89E
:102850008800E16E20F040600843C5F88800E06E13
:10286000B8423CD1E86840F48010E8603FE0D5F819
:10287000900010F4407015D0D4F88410814211D02B
:10288000D5F89000D5F8901020F4407041F48031D4
:10289000C5F89010D5F8901021F48031C5F890104B
:1028A000C5F89000C00710D0FFF710FA074641F2B4
:1028B000883906E0FFF70AFAC11B494501D903260A
:1028C0003CE7D5F890008007F4D5D5F89000D4F80F
:1028D000841020F440700843C5F890002EE740456E
:1028E00005D10121201D01F065FA00B106462068DE
:1028F000000317D5D5F88800216F20F04060084309
:10290000C5F88800206FB84204D1E86840F4801010
:10291000E86007E0404505D10121201D01F04AFA99
:1029200000B106462068400317D5D5F88800616FCE
:1029300020F040600843C5F88800606FB84204D1B9
:10294000E86840F48010E86007E0404505D10121C7
:10295000201D01F02FFA00B10646208840041AD548
:10296000D5F88800A16F20F040500843C5F88800D2
:10297000A06FB0F1805F03D0B0F1005F05D00AE036
:102980000221201D01F016FA03E00221584601F051
:10299000A7FA00B106462088000407D5D5F88800BC
:1029A000E16F20F080400843C5F888002068C0032C
:1029B00007D555F8880FD4F8801020F00040084360
:1029C0002860304600F004B800100240007000405B
:1029D00018BCBDE8E08F00002DE9F0470F46050068
:1029E00058D0404E306800F00700B84209D2306835
:1029F00020F0070038433060306800F00700B8422C
:102A000048D12878384CC0072CD06868032811D0EA
:102A1000022812D0216898B1490500293ADAA16844
:102A200021F003010143A160FFF750F9804641F214
:102A3000883910E021688901EFE721688903ECE714
:102A40008907EAE7FFF742F9A0EB0801494502D9F7
:102A50000320BDE8F087A068696800F00C00B0EBC7
:102A6000810FEFD12878800705D5A068A96820F0EC
:102A7000F0000843A060306800F00700B8420BD9AE
:102A8000306820F0070038433060306800F00700FD
:102A9000B84201D00120DCE72878400705D5A068BE
:102AA000E96820F4E0600843A0602878000706D5B4
:102AB000A068296920F4605040EAC100A06000F0DD
:102AC0003FF8A168094AC1F30311515C01F01F01ED
:102AD000C8400749086007480068BDE8F047FFF7AD
:102AE00013B900000020024000100240F8D900088D
:102AF000F8040010C80A00200548064900688968E3
:102B0000054AC1F30221515C01F01F01C840704722
:102B1000F80400100010024038DA000805480649A1
:102B200000688968054AC1F3C221515C01F01F01A8
:102B3000C8407047F80400100010024038DA00085E
:102B400070B52549002318468A68CC6812F00C023B
:102B500004F00306214C4FEA640509D00C2A05D085
:102B6000042A32D0082A00D1284670BD012E10D187
:102B70000B681B0704D4D1F89430C3F3032302E09D
:102B80000B68C3F30313164E56F82330DAB10C2A40
:102B9000EBD1C86800F00300022818D0032818D031
:102BA0001846CA68CB68C2F30212C3F30623434334
:102BB000521CB3FBF2F2C868C0F34160401C4000F5
:102BC000B2FBF0F070BD184670BD204670BD2046C7
:102BD000E7E72846E5E70000001002400024F40083
:102BE00008DA00082DE9F84304006FD0FE4DA8680C
:102BF00000F00C06E86800F003072078C00664D5F2
:102C000076B10C2E01D1012F0AD0A06900282868C6
:102C10007AD040F001002860FFF758F880465DE068
:102C20002868800702D5A0690028DED0216A2868BC
:102C3000000703D5286800F0F00004E0D5F8940000
:102C4000F02202EA1010814216D9084601F0CCF9B0
:102C500000283BD1286840F0080028602868216AD5
:102C600020F0F000084328606868E16920F47F40A4
:102C700040EA0120686016E0286840F008002860FB
:102C80002868216A20F0F000084328606868E1693C
:102C900020F47F4040EA0120686026B9206A01F0F4
:102CA000A3F90028D5D1FFF74BFFA968CF4AC1F39C
:102CB0000311515C01F01F01C840CD490860CD48A7
:102CC0000068FFF721F800287ED12EE0CAE000BF9F
:102CD000FEF7FCFFA0EB0800022876D828688007E2
:102CE000F6D5286840F0080028602868216A20F09E
:102CF000F000084328606868E16920F47F4040EAFA
:102D00000120686011E0FFE720F001002860FEF775
:102D1000DDFF804606E000BFFEF7D8FFA0EB08000D
:102D20000228DAD828688007F6D42078C00740D077
:102D3000082E18D00C2E01D1032F14D06068B0F5E6
:102D4000803F17D0B0F5A02F286817D020F480302E
:102D50002860286820F4802028606068E0B1FEF7D1
:102D6000B5FF804614E02868800322D560680028FB
:102D700078D01EE0286840F48030EDE740F48020F1
:102D80002860F7E7FEF7A2FFA0EB08006428A4D8AC
:102D900028688003F6D50CE0FEF798FF804605E032
:102DA000FEF794FFA0EB0800642896D828688003FB
:102DB000F6D4207880073BD5042E11D00C2E01D1FB
:102DC000022F0DD0E06801E092E1F1E000282868D0
:102DD0001ED040F480702860FEF778FF07460CE0B4
:102DE000286840050CD5E0680028C1D008E000BF85
:102DF000FEF76CFFC01B022893D828684005F7D562
:102E00006868217C20F0F85040EA016068600FE0BB
:102E100020F480702860FEF759FF074605E000BFE8
:102E2000FEF754FFC01B0228B1D828684005F7D42C
:102E30002078000729D560690028D5F8940012D0C1
:102E400040F00100C5F89400FEF740FF074604E09B
:102E5000FEF73CFFC01B022899D8D5F894008007E4
:102E6000F6D512E000E120F00100C5F89400FEF76D
:102E70002DFF074605E000BFFEF728FFC01B022814
:102E800085D8D5F894008007F6D42078400766D519
:102E9000A86D0027C00008D4A86D40F08050A86538
:102EA000A86D012700F08050009053480168C905C3
:102EB00012D40168814641F480710160FEF706FF7B
:102EC000804605E0FEF702FFA0EB080002286FD85D
:102ED000D9F80000C005F5D5A068012816D005284E
:102EE000D5F8900017D020F00100C5F89000D5F873
:102EF000900020F0040000BFC5F89000A06841F2E7
:102F00008839C0B1FEF7E2FE80460FE0D5F89000A8
:102F100040F00100F0E740F00400C5F89000F5E74C
:102F2000FEF7D4FEA0EB0801494541D8D5F8900042
:102F30008007F5D50EE0FEF7C9FE804606E000BF2B
:102F4000FEF7C4FEA0EB0801494531D8D5F8900042
:102F50008007F5D41FB1A86D20F08050A865A06A45
:102F600038B302280AD00C2E7ED0286820F080705A
:102F70002860286810F0205F77D0AAE0E868E26A4D
:102F800000F0030191422BD1216B00F07002090186
:102F90001039914224D1626B00F4FE41B1EB022F53
:102FA0001ED1A26B00F40031072A03D0012202E0F7
:102FB0009DE089E00022914212D1A18F00F4C0026D
:102FC00049084905A1F50011914209D194F8401032
:102FD00000F0C06049084906A1F1007181425CD04F
:102FE0000C2E41D0286809E000100240F8D90008F2
:102FF000F8040010C80A00200070004040017ED490
:103000002868C0007BD4286820F080702860FEF714
:103010005DFE064605E000BFFEF758FE801B022855
:1030200065D828688001F7D4D4E90B016FF00F024E
:1030300002EB01110843A18F5204490802EB4151F0
:10304000626B41EA0221084394F840104FF07E423F
:10305000490802EB41610843A16B090940EA41407C
:10306000E968284A114001E049E02EE00843E860A1
:10307000286840F080702860E86840F08070E86060
:10308000FEF724FE044604E0FEF720FE001B0228A3
:103090002DD828688001F7D52FE0286880012CD42E
:1030A000286840F080702860E86840F08070E86030
:1030B000FEF70CFE044604E0FEF708FE001B0228A3
:1030C00015D828688001F7D517E0E86820F00300DC
:1030D000E860E8680C490840E860FEF7F7FD044640
:1030E00008E000BFFEF7F2FD001B022802D9032012
:1030F000BDE8F88328688001F4D40020F8E70120B7
:10310000F6E700008C809DF9FFFFEEFE10B5401E33
:10311000B0F1807F01D3012010BD4FF0E024606149
:103120000F21601701F005FB0020A061072020613E
:10313000002010BDF0B590F83C20012A39D00124C0
:1031400080F83C40022280F83D2002685368956870
:10315000194E1A4FB24201D0BA4204D123F4700C76
:103160004B6843EA0C0323F0700C0B6843EA0C0332
:1031700053600268B24210D0B2F1804F0DD0104BB4
:103180009A420AD00F4B9A4207D00F4B9A4204D072
:10319000BA4202D00D4B9A4204D1896825F08003CF
:1031A0001943916080F83D40002180F83C100846AA
:1031B000F0BD0220F0BD0000002C014000340140B1
:1031C0000004004000080040000C004000400140A6
:1031D00010B5040003D094F83D0010B107E00120C1
:1031E00010BD002084F83C00204600F00DF80220BD
:1031F00084F83D00211D206800F0B4FF012084F810
:103200003D00002010BD000008B500680649884256
:1032100008D10648016E41F400610166006E00F4B9
:103220000060009008BD0000002C0140001002402A
:1032300070B5044690F83C00012817D0012584F8A9
:103240003C50022084F83D00226890682E4B1840C4
:1032500020F47F4090600868502830D00DDC202892
:103260004DD005DC98B310283BD148E0022070BD5A
:10327000302844D0402834D139E0602828D0702844
:1032800006D0B0F5805F2CD0B0F5005F29D10AE000
:10329000CB68D1E90121206800F0C4FF2068816873
:1032A00041F0770109E0CB68D1E90121206800F005
:1032B000B9FF2068816841F48041816011E0CA68EB
:1032C0004968206800F0C0FF5021206807E016E040
:1032D000CA684968206800F0C8FF6021206800F0D3
:1032E000ABFF84F83D50002084F83C0070BDCA68F4
:1032F0004968206800F0A8FF40212068EFE72268B5
:1033000001461046EBE7000088FFFEFF10B5040001
:1033100002D0606F10B107E0012010BD002084F8DA
:103320007000204600F026F82420606720680168BD
:1033300021F001010160204601F03AF80128ECD0AB
:10334000606A10B1204600F0A2FF2068416821F4B5
:10335000904141602068816821F02A0181602068E5
:10336000016841F0010101602046BDE8104000F015
:10337000F2BF000010B586B0044614216846FCF781
:103380006CFF1249206888421ED11148016E41F439
:1033900080410166016E01F480410591C16C41F0EC
:1033A0000201C164C06C694600F002000590C020B3
:1033B000009002200190002002900320039007203B
:1033C00004900448FEF74AFB06B010BD00380140E7
:1033D00000100240000400482DE9F8430446406F05
:1033E0001F4616460D4620284FD1CDB1C6B194F8E0
:1033F0007000012849D0012084F870004FF00008C7
:10340000C4F87C8021206067FEF760FCA4F850605F
:103410008146A4F85260A068B0F5805F03D004E054
:103420000120BDE8F883206928B12E465FF0000531
:1034300084F8708010E00026FAE78021204601F031
:1034400001F9B8B9C6B116F8010B21680885B4F8BE
:103450005200401EA4F85200B4F852004B464FF000
:10346000000200970028E8D14FF04001204601F00B
:10347000E9F830B10320D4E735F8020BC0F30800B7
:10348000E3E7202060670020CBE70220C9E7FEE7E2
:103490002DE9F0473B483A494FF00009C0E90019CF
:1034A000012404724472CD054027C561C0E9087447
:1034B0002B26FDF76FFE10B1334801F017F93148A4
:1034C0002F4954308031C0E9001404724472C56140
:1034D000C0E90874FDF75EFE10B12B4801F006F953
:1034E00028482749A830E039016004714FF080482E
:1034F000C0F80880C0E903698915C0E9059104276F
:10350000C0E90747C0E90994C0F82C904D46C0F8BF
:103510003090FDF763FD10B11B4801F0E7F8194842
:103520001749E030C03901600471C0F80880C0E973
:10353000036545618561C0E90757C0E90954C56263
:103540000563FDF74BFD10B10F4801F0CFF80122E4
:103550000E490C48FDF7F8FD10B10B4801F0C6F814
:10356000084801220A495430FDF7EEFD002804D036
:10357000BDE8F047044801F0B9B8BDE8F0870000A5
:1035800000610140340B0020DC0E00080400020042
:10359000020001001D4808B5816C41F00101816401
:1035A000816C01F001010091816C41F002018164A4
:1035B000806C174900F00200009016484FF48042DA
:1035C00001600021C0E901124022C2608022026134
:1035D000920042615200C0E906210162FEF7CEF876
:1035E00010B10D4801F082F8002211460E20FEF7BE
:1035F000E1FB0E20FEF7D1FB002211460F20FEF763
:10360000D9FBBDE808400F20FEF7C7BB0010024001
:1036100008040240500D0020DC0E000870B586B092
:1036200014216846FCF719FE2248C16C41F00401E0
:10363000C164C16C01F004010591C16C41F010013D
:10364000C164C16C01F010010591C16C41F002012F
:10365000C164C16C01F002010591C16C41F001012E
:10366000C164C06C144E00F001004FF48045059019
:10367000002229463046FEF724FB681000900F48D0
:103680000024CDE9010469460D48FEF7E7F9012061
:103690000095CDE90104694630460394FEF7DEF952
:1036A000002211462820FEF785FB2820FEF775FB37
:1036B00006B070BD00100240000400480000111068
:1036C0000008004810B588B00024194805940694F5
:1036D00003940494009401941449029401604F21CE
:1036E000C0E90114C46080210461C0E90541FFF70D
:1036F0006FFD10B10F4800F0F9FF4FF480500390B8
:1037000003A90B48FFF794FD10B10A4800F0EEFF43
:1037100000940194694606480294FFF70BFD0028C7
:1037200002D0044800F0E2FF08B010BD002C0140B8
:10373000900C0020DC0E00080E4810B50C4901600A
:103740004FF4E1314160002181600C22C160C0E989
:1037500004128161C16101624162FFF7D7FD002857
:1037600004D0BDE81040044800F0C0BF10BD000008
:1037700000380140D00C0020DC0E0008014802F0A7
:10378000C9B9000074E5002070B5022556E02D4946
:103790002D4802F0EDF9002852D12A4C2068FCF7A0
:1037A00082FD41EC100B29A053EC102B00F09EFF82
:1037B0006068FCF778FD41EC100B28A053EC102B4F
:1037C00000F094FFA068FCF76EFD41EC100B27A001
:1037D00053EC102B00F08AFFE068FCF764FD41EC2D
:1037E000100B26A053EC102B00F080FF2069FCF793
:1037F0005AFD41EC100B25A053EC102B00F076FF86
:103800006069FCF750FD41EC100B24A053EC102B29
:1038100000F06CFFA069FCF746FD41EC100B23A003
:1038200053EC102B00F062FFE069FCF73CFD41EC2B
:10383000100B22A053EC102B00F058FF6D1EA6D1E8
:1038400070BD000054050010E42100206F75745B0A
:10385000305D3A202566200A000000006F75745B19
:10386000315D3A202566200A000000006F75745B08
:10387000325D3A202566200A000000006F75745BF7
:10388000335D3A202566200A000000006F75745BE6
:10389000345D3A202566200A000000006F75745BD5
:1038A000355D3A202566200A000000006F75745BC4
:1038B000365D3A202566200A000000006F75745BB3
:1038C000375D3A202566200A00000000FEE77047B9
:1038D0007047000000B5104987B005220A60002239
:1038E0004A60CA614FF080734B624A6101238B6268
:1038F0001021CDE90213CDE900238904CDE904218B
:10390000064B6A460449FEF73FFB002802D00448F4
:1039100000F0ECFE07B000BD980D002020BF0200B3
:10392000DC0E000800B5104987B005220A600022AD
:103930004A60CA614FF080734B624A6101238B6217
:103940001021CDE90213CDE900238904CDE904213A
:103950006A460549FEF771FB002802D0034800F0D3
:10396000C5FE07B000BD0000980D0020DC0E000869
:10397000F0B54B6A4FF040652BB1AA4203D08B6A79
:1039800004685B1E23618C690B6A002C57D05BB303
:1039900004688B68E361CC69B4B1D1E90B36334379
:1039A0004F6A4E6B3E4333438E8A43EA86430E6929
:1039B00033430E6A3343CE68334323438C6924E098
:1039C000006849688161F0BDD1E90B3423434D6A39
:1039D0004C6B2C4323438C8A43EA84430C69234376
:1039E0000C6A23438C6923E0CE69BEB1D1E90B3761
:1039F0003B43D1F824C04F6B47EA0C073B438F8A07
:103A000043EA8743CF683B43334323430C68234354
:103A1000046813436361AA42D2D1F0BDD1E90B35EA
:103A20002B434E6A4D6B35432B438D8A43EA8543C6
:103A30000968234300680B4313434361F0BD3BB364
:103A400004688B68E361CC6994B1D1E90B363343E8
:103A50004F6A4E6B3E4333438E8A43EA86430E6978
:103A600033430E6A3343CE68334323438C69CEE736
:103A7000D1E90B3423434D6A4C6B2C4323438C8A8E
:103A800043EA84430C6923430C6A89692343D1E7E1
:103A9000CC6964B1D1E90B3633434F6A4E6B3E4378
:103AA00033438E8A43EA8643CE683343AFE74B6A9B
:103AB000002BC3D0D1E90B452C434D6B898A1D43A4
:103AC0002C43006844EA814111434161F0BD10B5C7
:103AD000806A00210163416290F83910082905D0FD
:103AE000012180F83910FEF73FFB10BD026802216A
:103AF000D16001680A6842F400320A600068016817
:103B000041F00201016010BD2DE9F84F394C8246A9
:103B10004FF48070A061002540012562C4E9025085
:103B20002561E562256305206563C4E900056561DB
:103B3000DFF8C4904FF080760127E5614A462146C0
:103B40005046C4E90967FEF7C9FA10B12B4800F0E6
:103B5000CDFD4A4669465046FEF796FC10B127480F
:103B600000F0C4FD9DF80000400602D4234800F098
:103B7000BDFD40208DF800008DF801504FF0020887
:103B80008DF80280504600F0C9F8C4E90075E5617F
:103B900003206561C4E909604F464A46154950460D
:103BA000FEF79CFA3A4669465046FEF7DBFC504663
:103BB000FFF790FE6420FDF711FF1520C4E9000512
:103BC000E5616561C4E909683A460A495046FEF76D
:103BD00085FA10B1094800F089FD3A466946504619
:103BE000FEF752FC002802D0044800F07FFD00F0F0
:103BF00007B80000980D002020BF0200DC0E00086E
:103C000018BCBDE8E08F00002DE9F0411D461446C8
:103C10000E460746B2F5807F02D9104800F066FDD7
:103C20000F486B21C0E900154FF48061C161082184
:103C300041614FF04071C0E909140A4C0146224627
:103C40003846FEF74BFA224631463846FEF71CFC52
:103C50003846BDE8F041FFF73DBE0000DC0E00082D
:103C6000980D002020BF02002DE9F0411E461446A9
:103C70000F468046B2F5807F02D9134800F036FD2A
:103C8000124DE8780028FCD0404600F047F8104874
:103C900038210122C0E9001600264FF44061466138
:103CA000C1618903C0E9091401464046FEF716FACE
:103CB000012239464046FEF755FC4046FFF732FEEA
:103CC000EE70BDE8F0810000DC0E0008600A002004
:103CD000980D00202DE9F041984616460F460446FF
:103CE000069D08E0681C06D0FDF7F0FFA0EB080079
:103CF000A8420AD84DB120688068384000D0012021
:103D0000B042EFD10020BDE8F081042084F83900F2
:103D1000E06B40F00100E0630120F4E7F0B51F4DD7
:103D2000064687B04FF48070A861002440012C62E1
:103D3000C5E902402C61EC622C6306206C63C5E986
:103D40000004EC616C61164F6C623A4629463046BD
:103D5000AC62FEF7C3F910B1124800F0C7FC0220B4
:103D60000090019001201021CDE902108105CDE9DC
:103D700004410521C5E90014EC6101066C61C5E947
:103D800009103B466A4605493046FEF7FDF8002813
:103D900002D0044800F0AAFC07B0F0BD980D002046
:103DA00020BF0200DC0E00080148FEF7DFB900006A
:103DB0004C0C00202DE9F041444C05468846E06853
:103DC0000026810728680DD0E16801F003018142D7
:103DD00016D1A8B1E0686968C0F30210401C88429F
:103DE0000ED120E0012804D0022805D0032807D1F5
:103DF00008E02168890701E021684905002907DBFF
:103E000001265FE02168890302D421684903F5E7B0
:103E1000E1686A686FF00F0321F0730103EB02128F
:103E200011430143E160206820F080602060FDF7CD
:103E30004DFF074605E000BFFDF748FFC01B022805
:103E400037D820680001F7D4B8F1000F18D0B8F1C6
:103E5000010F1ED0287D4FF07E41400801EB4060ED
:103E6000A96840EA01202169194A114008432061EC
:103E7000206840F080602060FDF728FF07461AE0C8
:103E8000A868E9680002090940EA41402169114A2D
:103E9000EBE7288A1049400801EB4050A96840EA46
:103EA000012021690D4AE0E7FDF710FFC01B022841
:103EB00001D9032606E020680001F5D52069A9692B
:103EC000084320613046BDE8F08100000010024048
:103ED000FF80FFF9FF80FDFF0000E0FFFF809FFFF4
:103EE0002DE9F0413D4C06468846E06800258107F3
:103EF00030680DD0E16801F00301814216D1A8B10C
:103F0000E0687168C0F30210401C88420ED120E0C6
:103F1000012804D0022805D0032807D108E0216831
:103F2000890701E021684905002907DB012551E0E7
:103F30002168890302D421684903F5E7E1687268C2
:103F40006FF00F0321F0730103EB021211430143E1
:103F5000E160206820F080502060FDF7B7FE074642
:103F600005E000BFFDF7B2FEC01B022829D820687B
:103F70008000F7D4B8F1000F15D0307C4FF07E41AF
:103F8000400801EB4060B16840EA01206169144AD1
:103F9000114008436061206840F080502060FDF7C8
:103FA00095FE07460FE0B068F1680002090940EA93
:103FB000414061690B4AEBE7FDF788FEC01B022810
:103FC00001D9032506E020688000F5D56069716994
:103FD000084360612846BDE8F081000000100240FF
:103FE000FF80FFF9FF80FDFFF8B51C4D0646002459
:103FF000A86DC00002D5FDF743FF0DE0A86D40F0AD
:104000008050A865A86D00F080500090FDF738FF43
:10401000A96D21F08051A965B0F5007F04D0802EF4
:1040200007D94FF003040AE0802E08D9A02E01D84A
:1040300004E001D1022402E0702E00D101240848DE
:10404000016821F0070121430160006800F00700CA
:10405000A04201D00120F8BD0020F8BD00100240B0
:10406000002002407047FDF737BE0000F0B5B9B040
:10407000442122A8FCF7F1F8142133A8FCF7EDF84D
:1040800088216846FCF7E9F80224E0012590102019
:104090002294269004262C94CDE92D465020072703
:1040A000CDE92F07CDE9314622A8FEF79BFD10B1DF
:1040B000194800F01BFB0F20002533900320CDE9A9
:1040C00034053695042133A83795FEF785FC10B1E9
:1040D000114800F00BFB11480E95199520958DE8BD
:1040E00051004D2003904FF48030CDE90640CDE9DA
:1040F00004746846FEF798FA10B1074800F0F6FA23
:104100004FF40070FDF788FE002802D0024800F04E
:10411000EDFA39B0F0BD0000DC0E00080108010026
:104120000D48016841F4700101600C48016841F0DC
:1041300001010160002181600268094B1A400260A0
:104140008214C260026822F4802202608161024906
:10415000C00380390860704788ED00E0001002401D
:10416000FFFFF6EA2DE9F0470268264B264D274E61
:10417000274F284C4FF0804A984209D0504507D02D
:10418000A84205D0B04203D0B84201D0A04204D129
:1041900022F0700C4A6842EA0C02DFF87CC0DFF8BB
:1041A0007C80DFF87C9098420FD050450DD0A8421B
:1041B0000BD0B04209D0B84207D0A04205D060452C
:1041C00003D0404501D0484503D122F44075CA6868
:1041D0002A434D6922F080022A4302608A68C26243
:1041E0000A688262984207D0A04205D0604503D099
:1041F000404501D0484501D1096901630121416170
:10420000BDE8F087002C0140000400400008004099
:10421000000C0040003401400040014000440140D7
:104220000048014010B5846842EA032224F47F4428
:104230000A432243826010BD826822F070020A4362
:1042400042F007018160704710B5036A046A24F0E8
:1042500001040462846924F0F00444EA021423F0A7
:104260000A020A438461026210BD10B5036A23F09A
:10427000100303628369046A23F4704343EA023241
:1042800024F0A00343EA01118261016210BD90F89D
:104290002410C90706D001684A68836A22F40032F4
:1042A0001A434A6090F82410890706D501684A68C5
:1042B000C36A22F480321A434A6090F824104907F6
:1042C00006D501684A68036B22F480221A434A60CB
:1042D00090F82410090706D501684A68436B22F458
:1042E00000421A434A6090F82410C90606D50168B6
:1042F0008A68836B22F480521A438A6090F82410F3
:10430000890606D501688A68C36B22F400521A43F5
:104310008A6090F82410490611D501684A68036C38
:1043200022F480121A434A60016CB1F5801F06D155
:1043300001684A68436C22F4C0021A434A6090F84C
:104340002410090606D501684A68806C22F4002210
:1043500002434A607047F8B500260446C667FDF779
:10436000B5FC0546206800686FF07E47000708D559
:104370002B4600224FF400112046009700F062F90E
:1043800060B92068006840070AD52B4600224FF428
:1043900080012046009700F055F908B10320F8BDD0
:1043A00020206067A06784F870600020F8BD0000DE
:1043B0002DE9F0410546016880682B69EC691843D6
:1043C0006B69002723431843924A0B68924C2340A1
:1043D00003430B6028684168EB6821F4405119439E
:1043E00041602968A869914201D02B6A18438B6803
:1043F00023F4306303438B60884B296888489942D3
:104400000DD1D0F8880010F0030006D0012868D044
:10441000022864D0032851D165E001244FE0814B8C
:1044200099420BD1D0F8880010F00C0055D0042828
:1044300057D0082853D00C2840D154E07A4B9942E9
:104440000BD1D0F8880010F0300046D0102848D0AA
:10445000202844D0302831D145E0744B99420BD10B
:10446000D0F8880010F0C00037D0402839D080281C
:1044700035D0C02822D136E06D4B99420ED1D0F80C
:10448000880010F4407028D0B0F5807F29D0B0F5B6
:10449000007F24D0B0F5407F10D124E091420DD1AF
:1044A000D0F8880010F4406017D0B0F5806F18D0B5
:1044B000B0F5006F13D0B0F5406F14D010245D4BF1
:1044C00000264FF40040914245D174B1022C0FD028
:1044D000042C0FD0082C18D10FE00024EFE70224A1
:1044E000EDE70424EBE70824E9E7FEF705FB03E02A
:1044F000184602E0FEF724FBA8B36A6802EB42010B
:10450000814202D8B0EB023F01D901276FE0DFF80A
:1045100028815CB1022C0CD0042C13D0082CF4D1CF
:1045200050082105401846F1000105E0FEF7E4FAC5
:104530000AE050084149F5E70023FBF741FEA0F5EA
:10454000407150E0FEF7FCFA6A68010E0302500861
:1045500018187141F0E7E9694FF6EF7881422FD1E1
:10456000092CD2D200E042E0DFE804F00609200581
:10457000230505052600C8E7FEF7BEFA01E0FEF7B1
:10458000CDFA4100D5F8040001EB5001B1FBF0F089
:1045900080B2A0F110014145B7D84FF6F07101404B
:1045A000C0F3420001432868C16020E024496868E4
:1045B000EAE7FEF7C5FAE4E74FF480316868E3E71D
:1045C000092CA2D2DFE804F0060918051E0505052E
:1045D00020009AE7FEF790FA16E0FEF79FFA13E044
:1045E00080B2A0F1100141458FD82968C8602E66BD
:1045F00038466E66BDE8F081686803EB5001B1FB98
:10460000F0F0EDE7FEF79CFA696800EB5100B0FBB3
:10461000F1F0E5E700800040F369FFEF003801406A
:10462000001002400044004000480040004C0040A0
:10463000005000400024F400FFFC0F00000024F4B0
:104640000048E8012DE9F0479A4617460E46044611
:104650004FF000094FF02008089D39E0681C37D062
:10466000FDF734FBA0EB0A00A84222D80DB3206866
:10467000016849072CD5C069C043000528D42168CA
:104680004FF4006008622068016821F4D071016075
:104690002068816821F001018160C4F87480C4F849
:1046A0007880C4F87C8000BF84F870900320BDE857
:1046B000F0872068016821F4D0710160206881686A
:1046C00021F001018160C4F87480C4F87880EBE7C0
:1046D0002068C06936EA000004D00020B842BDD08E
:1046E0000020E4E70120F9E7FEE700000FB4054BE6
:1046F00010B503A9044A029800F072FE10BC5DF8E0
:1047000014FB000059720008D80A0020410008027A
:1047100018BF04200A0E18BF40F001004FF07F427E
:1047200032EA010108BF40F00200012808BF05205D
:1047300070470907090E002804DB00F1E02080F82B
:104740000014704700F00F0000F1E02080F8141D05
:10475000704700009FED180A1BE000BFD1ED000A72
:1047600092ED001A00EE810AD1ED010A92ED011AD4
:1047700000EE810AD1ED020A92ED021A00EE810AE2
:10478000D1ED030A92ED031A103110321B1F00EE17
:10479000810A042BE2D206E0F1EC010A5B1EB2ECC6
:1047A000011A00EE810A002BF6D1D0ED000A30EE9E
:1047B000800A80ED000A70470000000030B528B183
:1047C000144C031F002021680A4605E0084630BD4E
:1047D0009A4203D810465268002AF9D1002800D026
:1047E00041680BD00468A3EB0005A54204D11B6807
:1047F0001C440346046002E0436000E023603AB1D9
:104800001C68D51AA54203D115682C441C60526857
:104810005A6030BDFC04001010B510EE104A4FF085
:1048200019406849002200EB44002DED028B8842BC
:1048300057D8DFED650A14F0004F60EE200A14BF70
:10484000BEEE001AB6EE001A71EE200AFDEEE00A86
:1048500010EE900A00EE900AF8EEE00A9FED5B1A67
:1048600000EEC10A9FED5A1A00EEC10ADFED590AA7
:104870009FED591A00EE201ADFED580A40EE010AAA
:104880009FED571A574B00F0030100EE201A21EE5E
:10489000000A7B4403EB8103D3ED000A524B7B44B7
:1048A00003EB810393ED001A504B41EE000A7B4469
:1048B00003EB8101801091ED000A70EE800AEABBE3
:1048C00000EE100AB8EEC01ADFED491A9FED490A52
:1048D000BDEC028B01EE210ABCEEC00A20EE200ADC
:1048E00010BD4FF0FF40A0431BD04FF0CE40B0EBC7
:1048F000440F82BFB7EE000ABDEC028B10BD3E48EC
:10490000B0EB440F28BF012293D2022000F036F909
:1049100014F0004F15D0BDEC028BBDE8104000F044
:1049200015B914F5000F02BF9FED340ABDEC028BE0
:1049300010BDBDEC028BBDE8104000E007E000F0C8
:10494000F9B8BDEC028BBDE8104000F0F7B800EB01
:10495000D07359104FF07E5202EBC15100EE101A85
:10496000A0EB630002EBC05060EE200A00EE100ADC
:1049700020EE208A18EE100A88B118EE100AB0F165
:10498000FF4F15D018EE100AFFF7C0FE042808BF2D
:1049900000F0DCF8B0EE480ABDEC028B10BD02203E
:1049A00000F0ECF8BDEC028BBDE8104000F0CEB892
:1049B000022000F0E3F8BDEC028BBDE8104000F0EF
:1049C000BDB800000000501E3BAAB8400070313E48
:1049D000F4FD053712BB2A3D12BB2A3EFFFFFF3E06
:1049E000FFFF7F3FD2920000D6920000A692000007
:1049F0000000004B00007E4E0000A085000000007B
:104A000010B510EE104A2DED028B4FF07F40B0EE46
:104A1000C08AB0EB440F55D318EE101A2C4A9142BD
:104A200020DD18EE101AB0EB410F1BD318EE101A50
:104A3000284AF7EE008A914207DD18EE101AB0EB13
:104A4000410F28BFB0EE680A35D238EE080AFFF7EA
:104A5000E3FE70EE280AB0EE001A81EE200A38EE6E
:104A6000C00A28E018EE101AB1F1665F0FDA18EEEE
:104A7000101AB0EB410F0AD318EE100AFFF746FEEA
:104A8000042808BF00F062F8B0EE480A13E028EEF0
:104A9000080ADFED110ADFED111A9FED111A40EE41
:104AA000210A60EE800A30EE010A80EE801AB0EE34
:104AB000480A08EE010A002CB8BFB1EE400ABDEC6E
:104AC000028B10BDBDEC028BBDE8104000F032B887
:104AD000549F0C3FB32C1041C6E252BFB2117BBBB6
:104AE0001A2A1E402DE9F04782460F4C10480D4E01
:104AF0000E4F001B4FF0000820F007054FF0010992
:104B000000221146504602F015FD002802D13068FF
:104B100010B10020BDE8F0873C60C4E90058C6F839
:104B20000090EDE7DC0A00209C050010FC0400105A
:104B30009825001030EE000A704700009FED020A31
:104B400020EE000A70470000000000709FED020A8E
:104B500020EE000A704700000000001002E008C8C4
:104B6000121F08C1002AFAD170477047002001E0E7
:104B700001C1121F002AFBD17047000001490860E3
:104B800070470000000500102DE9F04F95B0054674
:104B9000242108A8FBF761FB6869018809B1426814
:104BA00000E0002252682AB109B1426800E0002208
:104BB000526812680129934602D942680C3200E01B
:104BC0000022526842B1012902D942680C3200E049
:104BD00000225268136800E00023022902D94268CB
:104BE000183200E00022526842B1022902D942681C
:104BF000183200E000225268146800E00024022904
:104C00000BD9426812F1180F07D032F8186F012E35
:104C100003D9526812B1526800E00022022902D979
:104C20004668183600E0002676683EB1022902D9AF
:104C30004068183000E0002040688668D968DBF8DA
:104C40000C00C968D0F80C90012901D9012100E0BD
:104C500000210691D0F804A09869D5F818808768DB
:104C6000A06980681490906980681390B0694FEAD9
:104C7000C80680681190304601F0A9FD00EB880459
:104C800031460390FBF7E9FA1498089013980990BD
:104C900011980A90E86900B929480B90286A00B970
:104CA00027480C900398CDE90D04ADF83CA0069878
:104CB000ADF83E8008B1464600E0002695F8250094
:104CC000002802D0A9F1010401E04FF0000402D055
:104CD0004FF0FF3001E04FF00100119095F82600F1
:104CE00038B1A9F1010006FB00F007EB8007C6F11F
:104CF00000064FEA880500BFDBF8180081680AFB50
:104D000004F001EB800011990C4408A902F0B6FAF6
:104D100026B12A4638460D99FBF786FA07EB860737
:104D20004C4501DA002CE7DA26B92A4638460D99B7
:104D3000FBF77AFA039801F055FD15B000F002B8C0
:104D40007B72000830BCBDE8C08F00002DE9F04F39
:104D50008046406997B0018809B1426800E00022AE
:104D600052682AB109B1426800E000225268126814
:104D70000129934602D942680C3200E000225268B1
:104D800042B1012902D942680C3200E00022526887
:104D9000136800E00023022902D94268183200E0BB
:104DA0000022526842B1022902D94268183200E05A
:104DB00000225268146800E0002402290BD94268DE
:104DC00012F1180F07D032F8185F012D03D952687D
:104DD00012B1526800E00022022902D94568183554
:104DE00000E000256D6845B1022902D940681830FD
:104DF00000E000204068816800E00021DD68DBF809
:104E00000C00ED68D0F80C90012D01D9012500E0CF
:104E100000250595D0F804A09869D8F8186087682F
:104E2000A06980681590906980681490886980688E
:104E3000139006EB46008400204601F0C8FC039066
:104E400000EB860011900398214600EBC605FBF7A6
:104E500004FA159808901498099013980A90D8F8B5
:104E60001C0000B92B480B90D8F8200000B9294845
:104E70000C9003980D901198ADF83CA00E90ADF8F1
:104E80003E600598109508B1354600E0002598F879
:104E90002500002803D000BFA9F1010401E04FF074
:104EA000000402D04FF0FF3001E04FF001001190FC
:104EB00098F8260038B1A9F1010005FB00F007EBD6
:104EC0008007C5F100054FEA860600BFDBF8180031
:104ED00081680AFB04F001EB800011990C4408A9D9
:104EE00002F079FA25B1324638460D99FBF79CF964
:104EF00007EB85074C4501DA002CE7DA25B9324685
:104F000038460D99FBF790F9039801F06BFC17B048
:104F100000F002B87B72000830BCBDE8C08F000012
:104F20002DE9FF5F82B00021DDE90430020DDDF8DC
:104F300040B0034318D044F61050A2F2FF3242436F
:104F40001514119801281FD0A5EB0B00401C5FEA37
:104F5000000A4FF000064E4FDFF83891B046504639
:104F600015D5CAF1000413E0119801244AA30128C1
:104F700001D16FEA0B010298119AC0E90031C0E932
:104F8000024206B000F08EB8CBF10000DFE7044625
:104F90000021404A491842EB0450CDE9001012E0CC
:104FA000E00707D032463B4640464946FBF772FAD7
:104FB0008046894632463B4610461946FBF76AFA58
:104FC00006460F466410002CEAD1DDE90401DDE954
:104FD0000023BAF1000F06DAFBF75CFA42464B46B3
:104FE000FBF758FA05E0FBF7CAFA42464B46FBF7D7
:104FF000C6FA04460E460022284BFBF747FB03D8AF
:105000004FF0FF30014607E00022254B2046314695
:10501000FBF791F9FBF722FB102409E0002C0ADBD7
:105020000A220023FBF7CCF8039B30321A55641E8A
:1050300050EA0102F2D1641C039AC4F11103144432
:10504000119A012A03D0012208430DD10AE0084336
:1050500004D000204FF0110B119072E7A3EB0B0569
:105060006D1E0DE05B4504DD4FF0000205F101050A
:1050700004E003DA4FF00002A5F10105002AECD0AC
:1050800002981199C0E90231C0E9004579E70000B2
:10509000000014400000F03F300000000000F0432A
:1050A0000000E03F30BCBDE8C09F2DE9FE4F9246B6
:1050B0000F46040004D0B4F8480020B1E56C03E0CA
:1050C000002000F0F9B800250020E082A082207BBB
:1050D000C043800702D030221121DDE0DFB3D5B319
:1050E0002888C0B3B7F80490002659E0A868006883
:1050F00000EB0610019055D068B306EB4600029015
:1051000007EBC00000900389DBF81820C1889E4699
:10511000C0684B43D2F804C04343634519D8DBF859
:105120000C30D3F80C80884513D1D3F80880F045B3
:105130000FD1596881420CD16146106800F03AFDE8
:10514000DBF80C10DBF81420C968D26851438842A0
:1051500004D2182200E025E012219DE0DBF81800BF
:10516000006800F047FD20F07E41029857F83000BB
:1051700020F07E40814201D01922EBE700980069BF
:1051800080B10098808878B14946484500D20846E9
:105190008146DDE900105A4600F091F8761C2DB1E9
:1051A000288804E01722D5E72122D3E70020B04267
:1051B00006D9686820B150F826B0BBF1000F95D130
:1051C000BAF1000F0AD0B4F84800012808D9E56CFC
:1051D0000C3505D0288818B1002759E0012070E768
:1051E000182258E0A868006800EB07183BD0B8F117
:1051F000000F38D007EB47000AEBC00101900A8985
:10520000D6F818C0C8888B469646CB684243DCF86F
:1052100004105A438A42E3D8F2680092D26882426C
:10522000DED1009882687245DAD1009840689842D1
:10523000D6D1DCF8000000F0BDFCF1687269C968E5
:10524000D26851438842CBD3B069006800F0D2FCE9
:1052500020F07E4201985AF8300020F07E408242D1
:1052600003D0192217E0172215E0DBF81000002800
:10527000F9D0BBF8040068B14946484500D2084659
:10528000814659463246404600F019F87F1C3DB130
:10529000288806E021221321204601F003FA0FE7B7
:1052A0000020B84205D9686818B150F82760002E70
:1052B00098D1A4F8149091E71EBCBDE8E08F30B5FA
:1052C000D368DC685369DB685C4384608B88634324
:1052D000C3600C69446009691944016091690B68F5
:1052E0009B0007D4D1E902355B1B23448B60916995
:1052F0004068C86030BD70B50546002621E0A96849
:105300008369096801EB06141968890005D5D4E999
:1053100001129868FAF788FF08E0D3E90212891AA7
:1053200062681144996080696168C160D4E90101D3
:10533000084460602168884201D3E068081A761C3E
:1053400060600DB1288800E00020B04206D968688E
:10535000002803D050F826000028D0D170BD2DE9D8
:10536000F041054600262BE0A968096801EB061408
:1053700081690A6892000FD5A26889686068FAF7A7
:1053800053FFD4E90110014461602068814201D3D8
:10539000E168411A616012E0D4E9011211446160D0
:1053A0002268914201D3E168511A61608269D2E9B1
:1053B0000237DB1B1944916080696168C160761C0B
:1053C0000DB1288800E00020B04206D968680028A6
:1053D00003D050F826000028C6D1BDE8F0810000B7
:1053E0002DE9FF4F95B09B468946064600250FE202
:1053F000252877D100242746F84A0121059400E0AA
:10540000044316F8013F203B01FA03F01042F7D1A4
:1054100030782A2811D06FF02F033078A0F13002B5
:10542000092A16D8059A44F0020402EB820203EB23
:1054300042021044761C0590EFE759F8042B0592C0
:10544000002A03DA504244F40054059044F0020468
:10545000761C30782E2816D116F8010F44F004047B
:105460002A280DD06FF02F023078A0F13003092BDD
:1054700009D807EB870302EB4303C718761CF3E751
:1054800059F8047B761C30786C280FD006DC4C2849
:1054900017D068280DD06A2814D104E0742810D0E1
:1054A0007A280FD10DE044F400140AE044F480148B
:1054B00001E044F440147278824202D104F5801471
:1054C000761C761C307866280BD013DC582877D0F1
:1054D00009DC002875D04528F6D04628F4D04728A6
:1054E0001AD19DE118E0632835D0642879D0652869
:1054F00012D195E1702873D008DC6728F1D06928B3
:105500006FD06E280DD06F2806D1B5E073282CD04F
:10551000752875D0782874D05A46179990476D1C15
:1055200075E1C4F30250022809D003280DD0D9F840
:10553000001004280DD00D6009F1040967E1D9F8C5
:105540000010EA17C1E90052F6E7D9F800100D8003
:10555000F2E70D70F0E719F8041B8DF80010002039
:105560008DF80100EA46012003E059F804AB4FF042
:10557000FF3061074FF0000102D40DE008F1010196
:105580008846B9420FDA8045F8DB1AF8081000297E
:10559000F4D108E008F1010188468142FADB1AF8EB
:1055A00008100029F6D105985B46A0EB08072146B4
:1055B0003846179A00F097FA284400EB080507E0F0
:1055C0004DE029E10DE01AF8010B5A461799904772
:1055D000B8F10108F7D25B4621463846179A13E125
:1055E00042E00A220092C4F302524FF0000A022A5B
:1055F00008D059F804CB032A4FEAEC710AD00DE029
:1056000029E02AE009F1070121F00702F2E802C1CE
:10561000914609E00FFA8CFC4FEAEC71042A03D1A1
:105620004FFA8CFC4FEAEC71002907DA0A46002198
:10563000DCF1000C61EB02012D2202E0220504D511
:105640002B228DF80420012203E0E20701D0202262
:10565000F7E7904659E00A2102E010220DE0102100
:105660004FF0000A00910BE010224FF0000A44F0C6
:1056700004040827009203E008224FF0000A009279
:10568000C4F30252022A05D059F804CB0021032AA0
:1056900008D009E009F1070121F00702F2E802C190
:1056A000914605E01FFA8CFC042A01D10CF0FF0C96
:1056B0004FF00008220728D5702806D0009B83F001
:1056C000100353EA0A0305D00EE040228DF80420AF
:1056D000012208E05CEA010206D030228DF80420A5
:1056E0008DF8050002229046009B83F0080353EAE0
:1056F0000A030AD15CEA010201D1620705D5302212
:105700008DF804204FF001087F1E582804D034A0E3
:1057100003900EA802900DE036A0F9E753466046CC
:10572000009AFAF74DFD84460398825C0298401E69
:10573000029002705CEA0100F0D1029806A9081AF2
:1057400000F1200A600702D524F4803400E001272C
:10575000574502DDA7EB0A0000E0002000EB0A013C
:10576000009005984144401A0590E00306D45B463A
:105770002146179A059800F0B6F90544002706E07F
:1057800001A85A46C05D179990476D1C7F1C47457C
:10579000F6DBE0030CD55B462146179A059800F02E
:1057A000A2F9054404E030205A46179990476D1C31
:1057B0000099481E00900029F5DC08E00298029943
:1057C0005A460078491C0291179990476D1CBAF10E
:1057D0000001AAF1010AF1DC65E1000009280100DD
:1057E0003031323334353637383961626364656657
:1057F0000000000030313233343536373839414219
:10580000434445460000000000F05BF90544761C67
:10581000307800287FF4ECAD19B0284600F04EB97E
:10582000620700D4062709F1070222F0070CFCE802
:105830000223E14603F000485FEA080C02D00FF2B1
:10584000702C0DE05FEA045C02D50FF2682C07E0D3
:105850005FEAC47C02D00FF2602C01E0AFF2700C62
:105860004FF0FF3823F00043CDF850C065280CD02E
:1058700006DC452809D046281DD047283DD13DE00B
:10588000662818D067287ED138E00021112F01DB6F
:10589000112000E0781CCDE9000106A90EA8FFF751
:1058A0003FFBDDE90F010E9A03910021009207F101
:1058B000010A04914DE04FF000400097CDE901103E
:1058C00006A90EA8FFF72CFBDDE90F0203920E9B41
:1058D00011990022DDF80CA00093049211B9791CF3
:1058E00000EB010AB7EB0A0004D4C0F1FF3007F166
:1058F000010A0490AAEB0700019044E0012F00DAAE
:1059000001270021112F01DD112000E03846CDE9EB
:10591000000106A90EA8FFF703FBDDE90F010E9AAF
:105920000391002104910092BA4621070CD40399F7
:10593000514500DA8A46BAF1010F05DD009AAAF155
:105940000101515C302908D0B84202DA10F1040F8D
:1059500006DA0121CDE9011015E0AAF10101E9E71C
:10596000002805DC049901440491AAEB000102E03F
:10597000411C514500DD8A460499401A401C0190A3
:105980004FF000400290200704D40198504501DBFD
:10599000CDF8048000208DF84F0002980DF14F07DC
:1059A000B0F1004F25D02B200E9002984FF0020846
:1059B00000280CDA404202902D200E9007E00A21C8
:1059C0000298FAF783FC3031029007F8011DB8F114
:1059D0000001A8F10108F2DC02980028EFD1791E3D
:1059E0000E980870307800F0200040F0450007F86D
:1059F000020D12A8C01B00F107081498007800B12E
:105A0000012000EB0A01019801EBE0710598414487
:105A1000401A401E0590E00306D45B462146179AC3
:105A2000059800F060F805441498007818B15A46BB
:105A3000179990476D1CE00324D55B462146179AC1
:105A4000059800F050F805441CE00498002807DB96
:105A5000DDE90301884203DD0098405C179901E00D
:105A6000179930205A469047049805F10105401CCB
:105A700004900198401E019004D12E205A46179997
:105A800090476D1CBAF10001AAF1010ADDDC05E0C6
:105A900017F8010B5A46179990476D1CB8F1000191
:105AA000A8F10108F4DC5B462146179A0598ABE69D
:105AB0002D0000002B0000002000000030BCBDE8DD
:105AC000C08F2DE9F041044600251E461746880484
:105AD00004D405E039462020B0476D1C641EF9D57A
