:020000040800F2
:10000000005500209D010008C7240008DF220008D9
:10001000C5240008DD0200081931000800000000B6
:10002000000000000000000000000000C12B0008DC
:100030008704000800000000C9240008C32B000842
:10004000B7010008B7010008B7010008B7010008B0
:10005000B7010008B7010008B7010008B7010008A0
:10006000B7010008B7010008B7010008B701000890
:10007000B7010008B7010008410400084D0400085A
:10008000B7010008B7010008B7010008B701000870
:10009000B7010008B7010008B7010008B701000860
:1000A000B7010008B7010008B7010008B701000850
:1000B000B7010008B7010008B7010008B701000840
:1000C000B7010008B7010008B7010008B701000830
:1000D000B7010008B7010008B7010008B701000820
:1000E00089040008B7010008B7010008B70100083B
:1000F000B7010008B7010008B7010008B701000800
:10010000B7010008B7010008B7010008B7010008EF
:10011000B7010008B7010008B7010008B7010008DF
:10012000B7010008B7010008B7010008B7010008CF
:10013000B7010008E1020008ED020008B70100085D
:10014000B7010008B7010008B7010008B7010008AF
:10015000B7010008B7010008B7010008B70100089F
:10016000B7010008B7010008B7010008B70100088F
:10017000B7010008B70100080000000000000000FF
:10018000B7010008B7010008DFF80CD000F094F8C0
:1001900000480047F9320008005500200648804713
:1001A00006480047FEE7FEE7FEE7FEE7FEE7FEE75C
:1001B000FEE7FEE7FEE7FEE77D2C00088901000868
:1001C0002DE9F05F0546002092469B46884606468C
:1001D000814640241BE0284641464746224600F01F
:1001E0005AF853465A46C01A914110D31146184640
:1001F000224600F041F82D1A67EB01084F462246CF
:100200000120002100F038F817EB00094E41201EB4
:10021000A4F10104DFDC484631462A46434600F09B
:1002200000B830BCBDE8C09FD2B201E000F8012B9D
:10023000491EFBD270470022F6E710B513460A4666
:1002400004461946FFF7F0FF204610BD30B50B46B7
:10025000014600202022012409E021FA02F59D42F6
:1002600005D303FA02F5491B04FA02F52844151ECA
:10027000A2F10102F1DC30BD202A04DB203A00FAB1
:1002800002F1002070479140C2F1200320FA03F3ED
:10029000194390407047202A04DB203A21FA02F0EB
:1002A0000021704721FA02F3D040C2F120029140B0
:1002B0000843194670470000064C074D06E0E06809
:1002C00040F0010394E8070098471034AC42F6D39D
:1002D000FFF75EFF80390008A0390008FEE7000044
:1002E000014800F049BB00003C000020014800F03C
:1002F00043BB00009000002010B5806A0321016517
:1003000000F0AEF910BD10B5806A00F0BBFA10BD68
:1003100010B5806A00F0CAFA10BD00001549884285
:1003200001D10020704713492031884201D10120BA
:10033000704710494031884201D1022070470D4971
:100340008031884201D1042070470A49A031884297
:1003500001D1052070470749C031884201D10620EC
:1003600070470449E031884201D1072070470320DB
:100370007047000000600140426B0168002A0A6873
:1003800011D022F001020A6001680A6842F40022DA
:100390000A6001680A6842F001020A6090F84C1095
:1003A000032904D010E042F400320A600CE0816BB3
:1003B00021B901680A6842F002020A6090F8401010
:1003C00001290AD00121816490F84C10012906D03E
:1003D0005FF0040180F84C107047416CF3E7022194
:1003E000F8E701680A6822F001020A60416B0129FE
:1003F00004D101680A6822F400220A6001680A68D0
:1004000042F001020A6090F84C1004290CD1816B73
:1004100021B901680A6842F002020A6090F84010AF
:10042000012909D00121816490F84C10022905D0DE
:10043000032180F84C107047416CF4E70121F8E784
:10044000014800F07EBB000050140020014800F07D
:1004500078BB00009814002030B590F8444004F0B8
:100460001C050124AC40056C6C6004686360836803
:10047000102B036803D099600068C26030BD9A6099
:100480000068C16030BD70474FF4005000F082BC7E
:1004900001A002F043BE0000576520686176652028
:1004A0006572726F720A00007047000070B5040038
:1004B00006D02068FFF732FF374D55F8200008B10D
:1004C000012070BD204600F06FF834480168491CD7
:1004D000016000683249012819D13248026822F0CF
:1004E000804202600268A3681A430260026822F434
:1004F0007F0202602279012A05D10268A38901EBFB
:1005000003431A430260026842F00042026020681E
:10051000026822F47142026022681068236918435D
:10052000D4E905363343184310602068026822F08E
:100530000F020260D4E907200243206803681A43CF
:1005400002602068826822F45F028260206882680C
:10055000636A1A43238D01EB03410A4382602068DA
:10056000416801F007014160E06A216B000240EA46
:10057000C10120684268114341602068016841F070
:1005800080010160012084F834002068FFF7C6FE76
:1005900045F82040002070BDE01400202800002015
:1005A0000000FFFF0060014000B587B014216846DD
:1005B000FFF741FE14484168002923D10168491C16
:1005C00001601248012907D1016E41F08071016676
:1005D000016E01F080710591C16C41F01001C164A0
:1005E000C06C694600F0100005904FF42070009038
:1005F00002200190002002900390062004900448FD
:1006000000F0D4FB07B000BD1C0000200010024029
:10061000001000487047704770B590F84C400023B8
:10062000C4B1FF2C16D0046825680C4E35402560F7
:1006300004686FF30F01012A256804D045EA0121FF
:100640002160026307E04FF4802646EA01210D4352
:100650002560F6E70123184670BD0000FFFFFBF898
:100660007047000070B5040031D03C4920688842D2
:1006700005D1606801282AD0E068012827D001252B
:10068000002065642063A5642065204600F06EF8B4
:100690002068016821F400210160207A0128206887
:1006A000016816D021F000510160607A01282068AD
:1006B000016811D021F4001101602068016846F240
:1006C000087291430160E068022808D00CE0012024
:1006D00070BD41F00051E7E741F40011ECE72068FC
:1006E0000168626911430160207C0128206801686B
:1006F0002ED021F010010160607C01282068016883
:1007000029D021F02001016020684169144A11407C
:10071000416120684169E269124B1143228C03EB6D
:100720000242636A5B1E1A43114341616068606361
:10073000E068A063A069E063207C84F84000206842
:10074000016841F00101016084F84C50002070BD47
:1007500041F01001CFE741F02001D4E700610140F2
:1007600000FF001C0000FFFF704700002DE9F04F64
:1007700087B0054614216846FFF75DFD384800261E
:10078000416891BB0168491C01603648012907D1C5
:10079000016E41F080710166016E01F0807105917A
:1007A000C16C41F01001C164C06C694600F01000DA
:1007B00005904FF4207000900220CDE9010606203C
:1007C000CDE90360284800F0F1FA002211463D20EF
:1007D00000F098FC3D2000F088FC002211463E20ED
:1007E00000F090FC3E2000F080FC20492868802723
:1007F0004FF400784FF400694FF0200A4FF4805B0B
:10080000884211D11B4C1A4804F10C01C4E90006BE
:10081000A66081E8C00F204600F0F0F908B1FFF7AC
:1008200037FEEC62AC62A5621049286880318842CC
:1008300012D1114C0E4804F10C011430C4E9000629
:10084000A66081E8C00F204600F0D8F908B1FFF794
:100850001FFEEC62AC62A56207B000F00FB80000AA
:100860001C00002000100240001000480061014000
:1008700044000240501400209814002030BCBDE811
:10088000C08F0000074988420BD10748C168491C46
:10089000C1600178002904D10169491C016101216D
:1008A000017070473C0000200000002004494A7895
:1008B000002A04D1034A904201D1012048707047B8
:1008C000000000203C00002070B50E0004464FF0F0
:1008D00000052ED06AB320680068800229D5606BBD
:1008E00030B9206B20B9A06AC06940B1202820D05F
:1008F00094F84C00012805D0032803D019E0012A00
:1009000017D1F5E7A16A0F48C862A16A0E4848638B
:10091000A06AC16920290FD0002101632168134614
:1009200032461C31A06A00F0C9F938B1FF2084F8C2
:100930004C000125284670BD0449EEE72046FFF72C
:100940001BFDF7E707030008F90200081103000880
:1009500070B5044690F84C000025022803D0042806
:1009600001D0012505E0A06A00F0C6F82046FFF797
:1009700038FD284670BD00002DE9F04104460068AE
:10098000816842680D074FF0010305D5150703D5AF
:100990000821C160236507E04D070AD5550708D532
:1009A0000421C160022020652046FFF759FEBDE802
:1009B000F0818D0719D5950717D52046FFF762FFFF
:1009C000206B0028F3D1606B0028F0D120684168CB
:1009D00021F00201416094F84C00022803D003206A
:1009E00084F84C00E3E70120FAE701EA0205ED078D
:1009F0001FD02046FFF7B8FEA06C401EA064D6D1E1
:100A0000A06B58B92068416821F00101416094F859
:100A10004C00032809D0022084F84C0094F84000D0
:100A2000012804D00120A064C1E70120F4E7606C34
:100A3000F9E7CD061CD5D5061AD5856A002115F033
:100A4000FF0F01D0012204E000222D0A01E06D0811
:100A5000491CEE0701D10729F9D32AB18B40C362A3
:100A60002046FFF7D8FDA2E701F10805AB40F6E705
:100A70001F4D204EA84221D111F47F0F1ED05706E2
:100A80001CD580680025C0F307479846F80710D0AA
:100A900056F8250068B100680068400609D505F1E0
:100AA000100108FA01F02168C86056F82500FFF728
:100AB000FBFC7F086D1C082DE8D378E7A84291D194
:100AC000090E8FD091068DD582680021120ED407B1
:100AD00005D15208491CD40701D10729F9D301F1E6
:100AE00018029340C36056F82100FFF793FD5EE7BC
:100AF00000610140E014002010B590F8251000229C
:100B0000022905D00421C16380F82420012010BDF2
:100B100001680B6823F00E030B6001680B6823F07B
:100B200001030B6090F84410046C01F01C030121D8
:100B300001FA03F3636080F8251080F82420104642
:100B400010BDF0B4016C0C6801680D6890F8442089
:100B500002F01C06042202FA06F3234211D06B07AE
:100B60000FD50B689B0603D40B6823F004030B60BE
:100B700090F8441001F01C018A40016C4A60016B3E
:100B80001DE0022303FA06F727424FF0000C4FF056
:100B9000010218D0AF0716D50C68A40605D40C685E
:100BA00024F00A040C6080F8252090F8441001F02D
:100BB0001C018B40016C4B6080F824C0C16A002985
:100BC0001AD0F0BC08470823B340234214D02B07A7
:100BD00012D50B6823F00E030B6090F84410036CE1
:100BE00001F01C0102FA01F15960C26380F825206E
:100BF00080F824C0416BE2E7F0BC704770B568B183
:100C00002B4C036814212B4AA34209D22A4C1C44C2
:100C1000B4FBF1F18900C0E910210BE0012070BDA7
:100C2000234C64421C44B4FBF1F189004164204927
:100C300008390164022180F825101C6847F6F0711C
:100C40008C43D0E902152943D0E9045635432943A2
:100C500085692943C5692943056A294321431960E8
:100C60008168B1F5804F19D0036C0F21934202D1F6
:100C700052F8A83F02E00E4AA032136890F84440B0
:100C800004F01C04A1408B43136090F84430416889
:100C900003F01C0399401368194311600021C163DC
:100CA000012280F8252080F82410084670BD00003D
:100CB0000804024000000240F8FFFDBF70B5044682
:100CC00090F82400002501280CD0012084F824008D
:100CD00094F825600020012E06D084F82400022517
:100CE000284670BD022070BD022684F82560E063AE
:100CF0002068066826F0010606602046FFF7ACFB78
:100D0000206B00282068016802D041F00E0106E047
:100D100021F0040101602068016841F00A010160CE
:100D20002068016841F001010160D9E770B504460F
:100D300000F074F90546601C02D004484068044481
:100D400000F06CF9401BA042FAD370BD2C000020CB
:100D500010B5B0F5005F18D10C4C0D484FF4804130
:100D6000E27842B1012A0BD0022A0ED1002200F013
:100D700050F9002008E0012200F04BF9012003E0C7
:100D8000002200F046F90220E07010BD00000020B3
:100D900000040048044910B50A68024202D0086005
:100DA000FFF7D6FF10BD0000140401402DE9F04FFD
:100DB000DFF83492002309F1040A012403250AF123
:100DC000040B87B00F270BF1040E04E104FA03F6BD
:100DD00032407CD0D1F804C0BCF1010F08D0BCF186
:100DE000020F05D0BCF1110F02D0BCF1120F29D1B6
:100DF000D0F808C0CDF800C04FEA430C05FA0CF853
:100E0000CDF80CC0DDF800C02CEA080CCDF800C00D
:100E1000D1F80C80DDF80CC008FA0CF8DDF800C041
:100E200048EA0C08C0F80880D0F8048091F804C0A3
:100E300028EA0608CCF3001C0CFA03FC4CEA080C68
:100E4000C0F804C0D1F804806FEA080C5FEA8C7C1B
:100E500009D1D0F82CC02CEA060CC8F3C0069E407D
:100E600046EA0C06C662D0F80CC04FEA430805FA01
:100E700008F62CEA060CCDF8148002968E6806FA65
:100E800008F646EA0C06C6604E68022E01D0122E05
:100E900015D1DE0800EB86060396366A4FEA437CDE
:100EA0004FEADC6807FA08FC26EA0C06D1F810C005
:100EB0000CFA08FC4CEA060C039EC6F820C0066833
:100EC000DDF808C026EA0C0691F804C000E081E0D5
:100ED000DDF814800CF0030C0CFA08FC4CEA060C4C
:100EE000C0F800C04E68F60074D5404ED6F860C019
:100EF0004CF0010CC6F860C0366E23F0030C06F00F
:100F0000010600963A4E66440296D6F808C09E073F
:100F10004FEA167807FA08F62CEA060CB0F1904F63
:100F200004D0344EB04203D101261BE0002619E064
:100F3000314EB04201D1022614E0304EB04201D110
:100F400003260FE02E4EB04201D104260AE02D4EBA
:100F5000B04201D1052605E02B4EB04201D1062654
:100F600000E0072606FA08F646EA0C06DDF808C097
:100F7000CCF80860D9F80060CC46D1F804809643DC
:100F80005FEAC83800D51643CCF80060DAF8006094
:100F9000D446D1F8048096435FEA883800D51643DA
:100FA000CCF80060DBF80060DC46D1F804809643A2
:100FB0005FEAC82800D51643CCF80060DEF8006070
:100FC000F446D1F8048096435FEA882800D516439A
:100FD000CCF800605B1C0A6832FA03F67FF4F6AEC8
:100FE00007B000F013B800000004014000100240F8
:100FF000000001400004004800080048000C0048C0
:1010000000100048001400480018004830BCBDE83B
:10101000C08F0AB181617047816270470148806862
:10102000704700002C00002002488168426811448B
:10103000816070472C00002010B50024032000F0D0
:1010400081F8002000F008F808B1012401E000F068
:1010500025F8204610BD000070B50E4E0546002450
:10106000706898B14FF47A71B1FBF0F00A490968E1
:10107000B1FBF0F001F05EF840B9102D06D200226D
:101080002946501E00F03EF8356000E0012420465D
:1010900070BD00002C00002024000020094808B585
:1010A000016E41F001010166016E01F00101009144
:1010B000816D41F080518165806D00F0805000901D
:1010C00008BD00000010024000280DDB00F01F02E8
:1010D000012191404009800000F1E020C0F880111A
:1010E000BFF34F8FBFF36F8F7047002809DB00F00D
:1010F0001F02012191404009800000F1E020C0F86A
:1011000000117047F0B40E4B1B680C46C3F302236A
:10111000C3F10705042D00D90425191D072901D2A3
:10112000002300E0DB1E012606FA05F1491E2140DE
:1011300099409E40761E16403143F0BC01F0FEBF40
:101140000CED00E0064900F0070208684FF6FF03C7
:10115000184040EA0220034A10430860704700002C
:101160000CED00E00000FA051649B0F5007F0868B4
:10117000C0F3412009D0022805D0086820F4C060DF
:1011800040F480600860002070470128FBD00868A8
:1011900020F4C06040F4007008600B483222006800
:1011A00050430A4AB0FBF2F0401C00E0401E4A697E
:1011B000520501D50028F9D148694005E3D503203F
:1011C00070470000007000402400002040420F00E3
:1011D0000248006800F4C0607047000000700040E2
:1011E000F8B504460025FFF719FF064694F83900C4
:1011F000800736D5002084F8380020680168490748
:101200000BD5016821F004010160606BFFF774FCED
:1012100018B1E06B40F00400E0632068016841F021
:1012200002010160206C0090334601220221204619
:1012300001F004FB050014D121680220C860206C75
:101240000090334600222021204601F0F7FA0500E5
:1012500007D12068416921F040614161012084F893
:1012600039002846F8BD00002DE9F84F1E46154606
:101270008A460446FFF7D2FE814694F838000128DA
:101280000ED0012784F8387094F839004FF0000828
:10129000012807D05FF0020084F8388000F03AB8E7
:1012A0000220FBE7C4F83C80422084F839004B461A
:1012B000002220212046009601F0C0FA0028EBD140
:1012C0002168286888622168686848622168A8687F
:1012D000C86220682969026822F4400242F4800250
:1012E00011430160E968CAF828104FF000625146C6
:1012F000204601F013F94B460122082120460096B2
:1013000001F09CFA0028C7D122680821D16084F836
:101310003970C1E718BCBDE8E08F2DE9F84F1746DA
:101320008B460446FFF77AFE824694F8380001287F
:101330000ED0012684F8386094F839004FF0000888
:10134000012807D0022584F83880284600F028B804
:101350000220FBE7C4F83C804FF0020984F8399082
:101360005346002220212046009701F067FA05002D
:10137000E9D100225946204601F0D0F8DBF82400DC
:1013800058B95346012202212046009701F056FA2F
:101390000500D8D12168C1F80C9084F83960D2E7F3
:1013A00018BCBDE8E08F0000F8B50446FFF736FE34
:1013B00006465CB194F83800012809D0012784F86A
:1013C000387094F83900002520B10BE00120F8BDF9
:1013D0000220F8BD84F83850204600F03DF841F274
:1013E0008830206420680168A2686FF0FF0321F450
:1013F000706103EB022211430160206C00903346C0
:1014000000222021204601F019FAE8B921680A6873
:101410000F4B1A40237942EA0362E3681A430A60D9
:10142000D4E905121143226853680A4E3340268AD4
:1014300043EA06431943516021680A6842F00102F9
:101440000A60E56384F8397084F83850F8BD00000C
:10145000EFFFFF00FEF8E0FF10B586B00446142150
:101460006846FEF7E8FE1349206888421FD11248FB
:10147000016D41F480710165016D01F48071059188
:10148000C16C41F01001C164C06C694600F01000ED
:1014900005904FF47C4000900220019000200290C3
:1014A000032003900A2004900448FFF77FFC06B055
:1014B00010BD0000001000A0001002400010004805
:1014C0002DE9F84F15460F460446FFF7A7FD824663
:1014D0002068816994F8382000F12009012A0DD094
:1014E000012684F8386094F839204FF00008012A6A
:1014F00006D0022084F8388000F044B80220FBE7D0
:10150000C4F83C80BFB3222284F839200269521CFF
:1015100022630269521CE262A762426922F04062C1
:1015200042F080624261206881610EE0062120461F
:1015300001F084F9E0B999F80000A16A0870A06A86
:10154000401CA062206B401E2063206B53464FF06E
:10155000010200950028E9D14FF00201204601F078
:101560006DF928B921680220C8602046FFF738FECF
:1015700084F83960BEE7FFE7E06B40F00800E06305
:101580000120B7E718BCBDE8E08F00002DE9F84F57
:1015900015460F460446FFF741FD8246206894F841
:1015A000381000F1200901290ED0012684F8386096
:1015B00094F839104FF00008012907D05FF00200BD
:1015C00084F8388000F040B80220FBE7C4F83C8083
:1015D0009FB3122184F839100169491C61620169C5
:1015E000491C2162E761416921F0406141610EE0DF
:1015F0000421204601F022F9E0B9E069017889F878
:101600000010E069401CE061606A401E6062606A30
:1016100053464FF0010200950028E9D14FF0020136
:10162000204601F00BF928B921680220C860204645
:10163000FFF7D6FD84F83960C2E7FFE7E06B40F0C2
:101640000800E0630120BBE718BCBDE8E08F0000A4
:101650002DE9F84F044600270088E54D3E46010578
:1016600004F1200B1DD5606E78B1B0F5800F11D05C
:10167000B0F5000F04D0B0F5400F22D001270FE0E5
:10168000E86840F48030E8601BE00021201D01F094
:101690003FF903E00021584601F0D0F9070010D0CF
:1016A0003E462088C00426D5A06EC0B1B0F1807F30
:1016B0001AD0B0F1007F0DD0B0F1407F19D00127D2
:1016C00018E0D5F88800616E20F440000843C5F8A2
:1016D0008800E6E7E86840F48030E86009E000212F
:1016E000201D01F015F903E00021584601F0A6F98C
:1016F0000746F7B13E46206880033AD5A86D4FF003
:101700000008C00009D4A86D40F08050A865A86DFD
:101710004FF0010800F080500090DFF8D8A2DAF80E
:10172000001041F48071CAF80010FFF777FC814681
:1017300010E0D5F88800A16E20F040700843C5F88D
:101740008800D8E7FFF76AFCA0EB0900022801D95E
:10175000032705E0DAF80000C005F3D5002F7CD0A0
:101760004FEA0706B8F1000F03D0A86D20F08050B3
:10177000A8652078C00707D0D5F88800A16B20F0B5
:1017800003000843C5F888002078800707D5D5F8FE
:101790008800E16B20F00C000843C5F88800207831
:1017A000400707D5D5F88800216C20F030000843A9
:1017B000C5F888002078000707D5D5F88800616C47
:1017C00020F0C0000843C5F888002078C00607D57F
:1017D000D5F88800A16C20F440700843C5F8880053
:1017E0002078800607D5D5F88800E16C20F44060A9
:1017F0000843C5F888002088800507D5D5F88800FB
:10180000E16D20F440200843C5F888002088400599
:1018100007D5D5F88800216E20F440100843C5F89C
:1018200088002078400607D5D5F88800216D20F47F
:1018300040500843C5F888002078000607D5D5F841
:101840008800616D20F440400843C5F88800208876
:10185000C00509D5D5F8880000E01CE0A16D20F492
:1018600040300843C5F8880020884FF000678004A6
:101870004FF080684FD5D5F88800E16E20F04060C9
:101880000843C5F88800E06EB8423CD1E86840F4EF
:101890008010E8603FE0D5F8900010F4407015D05B
:1018A000D4F88410814211D0D5F89000D5F890106A
:1018B00020F4407041F48031C5F89010D5F89010B4
:1018C00021F48031C5F89010C5F89000C00710D001
:1018D000FFF7A4FB074641F2883906E0FFF79EFBBD
:1018E000C11B494501D903263CE7D5F89000800784
:1018F000F4D5D5F89000D4F8841020F44070084353
:10190000C5F890002EE7404505D10121201D00F0CB
:10191000FFFF00B106462068000317D5D5F8880000
:10192000216F20F040600843C5F88800206FB8425E
:1019300004D1E86840F48010E86007E0404505D134
:101940000121201D00F0E4FF00B10646206840039D
:1019500017D5D5F88800616F20F040600843C5F8BE
:101960008800606FB84204D1E86840F48010E860F5
:1019700007E0404505D10121201D00F0C9FF00B15D
:101980000646208840041AD5D5F88800A16F20F0BB
:1019900040500843C5F88800A06FB0F1805F03D0C5
:1019A000B0F1005F05D00AE00221201D00F0B0FF79
:1019B00003E00221584601F041F800B106462088B4
:1019C000000407D5D5F88800E16F20F08040084377
:1019D000C5F888002068C00307D555F8880FD4F8EB
:1019E000801020F0004008432860304600F004B822
:1019F000001002400070004018BCBDE8E08F0000FD
:101A00002DE9F0470F46050058D0404E306800F0F1
:101A10000700B84209D2306820F007003843306030
:101A2000306800F00700B84248D12878384CC00729
:101A30002CD06868032811D0022812D0216898B1F0
:101A4000490500293ADAA16821F003010143A160A8
:101A5000FFF7E4FA804641F2883910E021688901F5
:101A6000EFE721688903ECE78907EAE7FFF7D6FA91
:101A7000A0EB0801494502D90320BDE8F087A06822
:101A8000696800F00C00B0EB810FEFD12878800777
:101A900005D5A068A96820F0F0000843A060306870
:101AA00000F00700B8420BD9306820F00700384337
:101AB0003060306800F00700B84201D00120DCE758
:101AC0002878400705D5A068E96820F4E06008435D
:101AD000A0602878000706D5A068296920F4605026
:101AE00040EAC100A06000F03FF8A168094AC1F3D4
:101AF0000311515C01F01F01C84007490860074805
:101B00000068BDE8F047FFF7A7BA000000200240D8
:101B10000010024038390008240000202C0000206A
:101B20000548064900688968054AC1F30221515CED
:101B300001F01F01C840704724000020001002403F
:101B4000783900080548064900688968054AC1F3E4
:101B5000C221515C01F01F01C840704724000020E1
:101B6000001002407839000870B525490023184656
:101B70008A68CC6812F00C0204F00306214C4FEA8C
:101B8000640509D00C2A05D0042A32D0082A00D1D5
:101B9000284670BD012E10D10B681B0704D4D1F864
:101BA0009430C3F3032302E00B68C3F30313164E10
:101BB00056F82330DAB10C2AEBD1C86800F00300E4
:101BC000022818D0032818D01846CA68CB68C2F378
:101BD0000212C3F306234343521CB3FBF2F2C8685C
:101BE000C0F34160401C4000B2FBF0F070BD1846ED
:101BF00070BD204670BD2046E7E72846E5E70000B7
:101C0000001002400024F400483900082DE9F84390
:101C100004006FD0FE4DA86800F00C06E86800F0E4
:101C200003072078C00664D576B10C2E01D1012FB0
:101C30000AD0A069002828687AD040F00100286006
:101C4000FFF7ECF980465DE02868800702D5A069BF
:101C50000028DED0216A2868000703D5286800F034
:101C6000F00004E0D5F89400F02202EA101081425E
:101C700016D9084600F066FF00283BD1286840F0DE
:101C8000080028602868216A20F0F00008432860D6
:101C90006868E16920F47F4040EA0120686016E04E
:101CA000286840F0080028602868216A20F0F000C9
:101CB000084328606868E16920F47F4040EA012019
:101CC000686026B9206A00F03DFF0028D5D1FFF7F3
:101CD0004BFFA968CF4AC1F30311515C01F01F010A
:101CE000C840CD490860CD480068FFF7B5F9002825
:101CF0007ED12EE0CAE000BFFFF790F9A0EB08000C
:101D0000022876D828688007F6D5286840F00800B1
:101D100028602868216A20F0F0000843286068687D
:101D2000E16920F47F4040EA0120686011E0FFE7AC
:101D300020F001002860FFF771F9804606E000BF3F
:101D4000FFF76CF9A0EB08000228DAD828688007B2
:101D5000F6D42078C00740D0082E18D00C2E01D120
:101D6000032F14D06068B0F5803F17D0B0F5A02FD6
:101D7000286817D020F480302860286820F480205C
:101D800028606068E0B1FFF749F9804614E02868F0
:101D9000800322D56068002878D01EE0286840F4CF
:101DA0008030EDE740F480202860F7E7FFF736F950
:101DB000A0EB08006428A4D828688003F6D50CE0BE
:101DC000FFF72CF9804605E0FFF728F9A0EB0800A3
:101DD000642896D828688003F6D4207880073BD5FD
:101DE000042E11D00C2E01D1022F0DD0E06801E09D
:101DF00092E1F1E0002828681ED040F4807028604D
:101E0000FFF70CF907460CE0286840050CD5E068A0
:101E10000028C1D008E000BFFFF700F9C01B02286E
:101E200093D828684005F7D56868217C20F0F850E1
:101E300040EA016068600FE020F480702860FFF7DE
:101E4000EDF8074605E000BFFFF7E8F8C01B0228E1
:101E5000B1D828684005F7D42078000729D56069F3
:101E60000028D5F8940012D040F00100C5F8940085
:101E7000FFF7D4F8074604E0FFF7D0F8C01B0228AC
:101E800099D8D5F894008007F6D512E000E120F04B
:101E90000100C5F89400FFF7C1F8074605E000BF50
:101EA000FFF7BCF8C01B022885D8D5F8940080073E
:101EB000F6D42078400766D5A86D0027C00008D466
:101EC000A86D40F08050A865A86D012700F08050F3
:101ED000009053480168C90512D40168814641F455
:101EE00080710160FFF79AF8804605E0FFF796F8E9
:101EF000A0EB080002286FD8D9F80000C005F5D57E
:101F0000A068012816D00528D5F8900017D020F039
:101F10000100C5F89000D5F8900020F0040000BF43
:101F2000C5F89000A06841F28839C0B1FFF776F893
:101F300080460FE0D5F8900040F00100F0E740F057
:101F40000400C5F89000F5E7FFF768F8A0EB08017A
:101F5000494541D8D5F890008007F5D50EE0FFF748
:101F60005DF8804606E000BFFFF758F8A0EB0801D7
:101F7000494531D8D5F890008007F5D41FB1A86D38
:101F800020F08050A865A06A38B302280AD00C2E31
:101F90007ED0286820F080702860286810F0205FCC
:101FA00077D0AAE0E868E26A00F0030191422BD101
:101FB000216B00F0700209011039914224D1626B4B
:101FC00000F4FE41B1EB022F1ED1A26B00F40031F0
:101FD000072A03D0012202E09DE089E0002291421D
:101FE00012D1A18F00F4C00249084905A1F50011E2
:101FF000914209D194F8401000F0C06049084906A8
:10200000A1F1007181425CD00C2E41D0286809E01A
:102010000010024038390008240000202C00002065
:102020000070004040017ED42868C0007BD428683E
:1020300020F080702860FEF7F1FF064605E000BF43
:10204000FEF7ECFF801B022865D828688001F7D4D2
:10205000D4E90B016FF00F0202EB01110843A18FCD
:102060005204490802EB4151626B41EA02210843E4
:1020700094F840104FF07E42490802EB416108435A
:10208000A16B090940EA4140E968284A114001E092
:1020900049E02EE00843E860286840F0807028603E
:1020A000E86840F08070E860FEF7B8FF044604E09E
:1020B000FEF7B4FF001B02282DD828688001F7D551
:1020C0002FE0286880012CD4286840F080702860B8
:1020D000E86840F08070E860FEF7A0FF044604E086
:1020E000FEF79CFF001B022815D828688001F7D551
:1020F00017E0E86820F00300E860E8680C49084051
:10210000E860FEF78BFF044608E000BFFEF786FF9D
:10211000001B022802D90320BDE8F883286880014B
:10212000F4D40020F8E70120F6E700008C809DF948
:10213000FFFFEEFE10B5401EB0F1807F01D30120FD
:1021400010BD4FF0E02460610F21601700F0F6FF32
:102150000020A06107202061002010BD10B5040000
:1021600002D0606F10B107E0012010BD002084F89C
:102170007000204600F026F824206067206801687F
:1021800021F001010160204600F02AFE0128ECD078
:10219000606A10B1204600F093FD2068416821F488
:1021A000904141602068816821F02A0181602068A7
:1021B000016841F0010101602046BDE8104000F0D7
:1021C000E3BD000010B586B0044614216846FEF752
:1021D00032F81249206888421ED11148016E41F43C
:1021E00080410166016E01F480410591C16C41F0AE
:1021F0000201C164C06C694600F002000590C02075
:1022000000900220019000200290032003900720FC
:1022100004900448FEF7CAFD06B010BD0038014026
:1022200000100240000400482DE9F8430446406FC6
:102230001F4616460D4620284FD1CDB1C6B194F8A1
:102240007000012849D0012084F870004FF0000888
:10225000C4F87C8021206067FEF7E0FEA4F850609F
:102260008146A4F85260A068B0F5805F03D004E016
:102270000120BDE8F883206928B12E465FF00005F3
:1022800084F8708010E00026FAE78021204600F0F4
:10229000F1FEB8B9C6B116F8010B21680885B4F88B
:1022A0005200401EA4F85200B4F852004B464FF0C2
:1022B000000200970028E8D14FF04001204600F0CE
:1022C000D9FE30B10320D4E735F8020BC0F3080083
:1022D000E3E7202060670020CBE70220C9E7FEE7A4
:1022E0002DE9F041384837490025C0E9001501249F
:1022F00004724472CE054027C661C0E90874FEF737
:10230000B1F910B1314800F009FF2F482D49543080
:102310008031C0E9001404724472C661C0E90874D7
:10232000FEF7A0F910B1294800F0F8FE254926482B
:10233000E039A8304E06016004714FF02B0886602A
:10234000C0E903858915C0E905510427C0E907479D
:10235000C0E90954C5620563FEF7A8F810B11B482F
:1023600000F0DCFE18481749E030C0390160047104
:102370008660C0E9038545618561C0E90757C0E90A
:102380000954C5620563FEF791F810B10F4800F0DB
:10239000C5FE01220E490C48FEF73EF910B10B486C
:1023A00000F0BCFE084801220A495430FEF734F917
:1023B000002804D0BDE8F041044800F0AFBEBDE8FD
:1023C000F0810000006101403C00002098040008FA
:1023D000040002000200010070B586B014216846B6
:1023E000FDF729FF2248C16C41F00401C164C16CB2
:1023F00001F004010591C16C41F01001C164C16C90
:1024000001F010010591C16C41F00201C164C16C81
:1024100001F002010591C16C41F00101C164C06C81
:10242000144E00F001004FF480450590002229462B
:102430003046FEF7EEFD681000900F480024CDE90D
:10244000010469460D48FEF7B1FC01200095CDE975
:102450000104694630460394FEF7A8FC00221146A9
:102460002820FEF74FFE2820FEF73FFE06B070BD85
:10247000001002400004004800001110000800484D
:102480000E4810B50C4901604FF4E1314160002164
:1024900081600C22C160C0E904128161C1610162E6
:1024A0004162FFF75BFE002804D0BDE810400448FD
:1024B00000F034BE10BD000000380140980100203B
:1024C00098040008FEE770477047000000B5104907
:1024D00087B005220A6000224A60CA614FF080730B
:1024E0004B624A6101238B621021CDE90213CDE9D1
:1024F00000238904CDE90421064B6A460449FEF70E
:10250000B3FE002802D0044800F008FE07B000BD6A
:102510001802002020BF020098040008F0B54B6AA2
:102520004FF040652BB1AA4203D08B6A04685B1E52
:1025300023618C690B6A002C57D05BB304688B68ED
:10254000E361CC69B4B1D1E90B3633434F6A4E6BCA
:102550003E4333438E8A43EA86430E6933430E6A11
:102560003343CE68334323438C6924E000684968D1
:102570008161F0BDD1E90B3423434D6A4C6B2C4390
:1025800023438C8A43EA84430C6923430C6A234324
:102590008C6923E0CE69BEB1D1E90B373B43D1F85A
:1025A00024C04F6B47EA0C073B438F8A43EA8743BB
:1025B000CF683B43334323430C68234304681343EE
:1025C0006361AA42D2D1F0BDD1E90B352B434E6AEB
:1025D0004D6B35432B438D8A43EA8543096823437A
:1025E00000680B4313434361F0BD3BB304688B6841
:1025F000E361CC6994B1D1E90B3633434F6A4E6B3A
:102600003E4333438E8A43EA86430E6933430E6A60
:102610003343CE68334323438C69CEE7D1E90B348F
:1026200023434D6A4C6B2C4323438C8A43EA8443F7
:102630000C6923430C6A89692343D1E7CC6964B1EF
:10264000D1E90B3633434F6A4E6B3E4333438E8A98
:1026500043EA8643CE683343AFE74B6A002BC3D0CF
:10266000D1E90B452C434D6B898A1D432C430068EF
:1026700044EA814111434161F0BD00002DE9F84F6A
:10268000394C82464FF48070A061002540012562DC
:10269000C4E902502561E562256305206563C4E94C
:1026A00000056561DFF8C4904FF080760127E56191
:1026B0004A4621465046C4E90967FEF72EFE10B18E
:1026C0002B4800F02BFD4A4669465046FEF7F8FEBF
:1026D00010B1274800F022FD9DF80000400602D40A
:1026E000234800F01BFD40208DF800008DF80150BC
:1026F0004FF002088DF80280504600F0C3F8C4E99C
:102700000075E56103206561C4E909604F464A46EA
:1027100015495046FEF701FE3A4669465046FEF717
:1027200035FF5046FFF7D2FE6420FEF7FFFA152072
:10273000C4E90005E5616561C4E909683A460A49EA
:102740005046FEF7EAFD10B1094800F0E7FC3A46B2
:1027500069465046FEF7B4FE002802D0044800F057
:10276000DDFC00F007B800001802002020BF0200C6
:102770009804000818BCBDE8E08F00002DE9F04186
:102780001D4614460E460746B2F5807F02D9104812
:1027900000F0C4FC0F486B21C0E900154FF48061C4
:1027A000C161082141614FF04071C0E909140A4C30
:1027B000014622463846FEF7B0FD224631463846ED
:1027C000FEF77EFE3846BDE8F041FFF77FBE000011
:1027D000980400081802002020BF02002DE9F041F3
:1027E0001D4614460E460746B2F5807F02D91148B1
:1027F00000F094FC384600F045F80F4838210122DB
:10280000C0E900154FF44061C161002141614FF002
:102810004071C0E9091401463846FEF77EFD0122E9
:1028200031463846FEF7B2FE3846BDE8F041FFF7C4
:102830004DBE000098040008180200202DE9F04168
:10284000984616460F460446069D08E0681C06D0CA
:10285000FEF7E4FBA0EB0800A8420AD84DB12068BF
:102860008068384000D00120B042EFD10020BDE8A0
:10287000F081042084F83900E06B40F00100E0634F
:102880000120F4E7F0B51F4D064687B04FF4807085
:10289000A861002440012C62C5E902402C61EC6271
:1028A0002C6306206C63C5E90004EC616C61164F73
:1028B0006C623A4629463046AC62FEF72EFD10B1F6
:1028C000124800F02BFC0220009001900120102102
:1028D000CDE902108105CDE904410521C5E90014C7
:1028E000EC6101066C61C5E909103B466A46054981
:1028F0003046FEF7B9FC002802D0044800F00EFC78
:1029000007B0F0BD1802002020BF020098040008A4
:102910002DE9F041444C05468846E06800268107D1
:1029200028680DD0E16801F00301814216D1A8B1F9
:10293000E0686968C0F30210401C88420ED120E0B4
:10294000012804D0022805D0032807D108E0216817
:10295000890701E021684905002907DB01265FE0BE
:102960002168890302D421684903F5E7E1686A68B0
:102970006FF00F0321F0730103EB021211430143C7
:10298000E160206820F080602060FEF747FB07468A
:1029900005E000BFFEF742FBC01B022837D82068C5
:1029A0000001F7D4B8F1000F18D0B8F1010F1ED014
:1029B000287D4FF07E41400801EB4060A96840EA65
:1029C00001202169194A114008432061206840F024
:1029D00080602060FEF722FB07461AE0A868E968DD
:1029E0000002090940EA41402169114AEBE7288ABF
:1029F0001049400801EB4050A96840EA01202169D4
:102A00000D4AE0E7FEF70AFBC01B022801D90326A6
:102A100006E020680001F5D52069A9690843206116
:102A20003046BDE8F081000000100240FF80FFF951
:102A3000FF80FDFF0000E0FFFF809FFF2DE9F041D8
:102A40003D4C06468846E0680025810730680DD079
:102A5000E16801F00301814216D1A8B1E068716814
:102A6000C0F30210401C88420ED120E0012804D09F
:102A7000022805D0032807D108E02168890701E072
:102A800021684905002907DB012551E021688903F8
:102A900002D421684903F5E7E16872686FF00F031B
:102AA00021F0730103EB021211430143E16020683E
:102AB00020F080502060FEF7B1FA074605E000BF25
:102AC000FEF7ACFAC01B022829D820688000F7D492
:102AD000B8F1000F15D0307C4FF07E41400801EB7B
:102AE0004060B16840EA01206169144A114008431E
:102AF0006061206840F080502060FEF78FFA074642
:102B00000FE0B068F1680002090940EA41406169DC
:102B10000B4AEBE7FEF782FAC01B022801D9032516
:102B200006E020688000F5D560697169084360613E
:102B30002846BDE8F081000000100240FF80FFF948
:102B4000FF80FDFFF8B51C4D06460024A86DC000AF
:102B500002D5FEF73DFB0DE0A86D40F08050A86562
:102B6000A86D00F080500090FEF732FBA96D21F0B7
:102B70008051A965B0F5007F04D0802E07D94FF0B1
:102B800003040AE0802E08D9A02E01D804E001D168
:102B9000022402E0702E00D101240848016821F0CF
:102BA000070121430160006800F00700A04201D046
:102BB0000120F8BD0020F8BD0010024000200240B6
:102BC0007047FEF731BA0000F0B5B9B0442122A831
:102BD000FDF731FB142133A8FDF72DFB8821684652
:102BE000FDF729FB0224E001259010202294269075
:102BF00004262C94CDE92D4650200727CDE92F0738
:102C0000CDE9314622A8FFF701F810B1194800F0CC
:102C100085FA0F20002533900320CDE93405369541
:102C2000042133A83795FEF7EBFE10B1114800F0F0
:102C300075FA11480E95199520958DE851004D2093
:102C400003904FF48030CDE90640CDE90474684626
:102C5000FEF7FEFC10B1074800F060FA4FF4007078
:102C6000FEF782FA002802D0024800F057FA39B085
:102C7000F0BD000098040008010801000D4801683B
:102C800041F4700101600C48016841F001010160EC
:102C9000002181600268094B1A4002608214C26000
:102CA000026822F48022026081610249C0038039F7
:102CB0000860704788ED00E000100240FFFFF6EA70
:102CC00090F82410C90706D001684A68836A22F484
:102CD00000321A434A6090F82410890706D501682B
:102CE0004A68C36A22F480321A434A6090F824107A
:102CF000490706D501684A68036B22F480221A430B
:102D00004A6090F82410090706D501684A68436BA9
:102D100022F400421A434A6090F82410C90606D5EE
:102D200001688A68836B22F480521A438A6090F8A3
:102D30002410890606D501688A68C36B22F4005204
:102D40001A438A6090F82410490611D501684A6830
:102D5000036C22F480121A434A60016CB1F5801FA3
:102D600006D101684A68436C22F4C0021A434A60E3
:102D700090F82410090606D501684A68806C22F490
:102D8000002202434A607047F8B500260446C66731
:102D9000FEF744F90546206800686FF07E4700079B
:102DA00008D52B4600224FF400112046009700F072
:102DB00061F960B92068006840070AD52B460022F7
:102DC0004FF480012046009700F054F908B1032029
:102DD000F8BD20206067A06784F870600020F8BD0F
:102DE0002DE9F0410546016880682B69EC691843BC
:102DF0006B69002723431843924A0B68924C234087
:102E000003430B6028684168EB6821F44051194383
:102E100041602968A869914201D02B6A18438B68E8
:102E200023F4306303438B60884B296888489942B8
:102E30000DD1D0F8880010F0030006D0012868D02A
:102E4000022864D0032851D165E001244FE0814B72
:102E500099420BD1D0F8880010F00C0055D004280E
:102E600057D0082853D00C2840D154E07A4B9942CF
:102E70000BD1D0F8880010F0300046D0102848D090
:102E8000202844D0302831D145E0744B99420BD1F1
:102E9000D0F8880010F0C00037D0402839D0802802
:102EA00035D0C02822D136E06D4B99420ED1D0F8F2
:102EB000880010F4407028D0B0F5807F29D0B0F59C
:102EC000007F24D0B0F5407F10D124E091420DD195
:102ED000D0F8880010F4406017D0B0F5806F18D09B
:102EE000B0F5006F13D0B0F5406F14D010245D4BD7
:102EF00000264FF40040914245D174B1022C0FD00E
:102F0000042C0FD0082C18D10FE00024EFE7022486
:102F1000EDE70424EBE70824E9E7FEF701FE03E010
:102F2000184602E0FEF720FEA8B36A6802EB4201F1
:102F3000814202D8B0EB023F01D901276FE0DFF8F0
:102F400028815CB1022C0CD0042C13D0082CF4D1B5
:102F500050082105401846F1000105E0FEF7E0FDAC
:102F60000AE050084149F5E70023FDF729F9A0F5EB
:102F7000407150E0FEF7F8FD6A68010E0302500848
:102F800018187141F0E7E9694FF6EF7881422FD1C7
:102F9000092CD2D200E042E0DFE804F00609200567
:102FA000230505052600C8E7FEF7BAFD01E0FEF798
:102FB000C9FD4100D5F8040001EB5001B1FBF0F070
:102FC00080B2A0F110014145B7D84FF6F071014031
:102FD000C0F3420001432868C16020E024496868CA
:102FE000EAE7FEF7C1FDE4E74FF480316868E3E704
:102FF000092CA2D2DFE804F0060918051E05050514
:1030000020009AE7FEF78CFD16E0FEF79BFD13E02B
:1030100080B2A0F1100141458FD82968C8602E66A2
:1030200038466E66BDE8F081686803EB5001B1FB7D
:10303000F0F0EDE7FEF798FD696800EB5100B0FB9A
:10304000F1F0E5E700800040F369FFEF0038014050
:10305000001002400044004000480040004C004086
:10306000005000400024F400FFFC0F00000024F496
:103070000048E8012DE9F0479A4617460E460446F7
:103080004FF000094FF02008089D39E0681C37D048
:10309000FDF7C4FFA0EB0A00A84222D80DB32068B8
:1030A000016849072CD5C069C043000528D42168B0
:1030B0004FF4006008622068016821F4D07101605B
:1030C0002068816821F001018160C4F87480C4F82F
:1030D0007880C4F87C8000BF84F870900320BDE83D
:1030E000F0872068016821F4D07101602068816850
:1030F00021F001018160C4F87480C4F87880EBE7A6
:103100002068C06936EA000004D00020B842BDD073
:103110000020E4E70120F9E7FEE700000FB4054BCB
:1031200010B503A9044A029800F028F810BC5DF815
:1031300014FB0000D9320008380000200907090EEE
:10314000002804DB00F1E02080F80014704700F054
:103150000F0000F1E02080F8141D704702E008C85D
:10316000121F08C1002AFAD170477047002001E001
:1031700001C1121F002AFBD1704700002DE9FF4F4B
:1031800089B09B460446002506E025280BD05A4608
:103190000B999047641C6D1C20780028F5D10DB068
:1031A000284600F095B80027B8460122474900E0BC
:1031B000074314F8013F203B02FA03F00842F7D11D
:1031C00020782E2819D114F8010F47F004072A2877
:1031D0000ED06FF02F022078A0F1300109290CD811
:1031E00008EB880102EB410100EB0108641CF2E7E7
:1031F0000A98641C50F8048B0A9020780028CED0DE
:10320000642808D0692806D075281ED05A460B9924
:1032100090476D1C58E00A994FF00A0901C90A91BC
:10322000002802DA40422D2102E0390504D52B2185
:103230008DF82010012103E0F90704D02021F7E7E1
:103240008A4608AE0DE00021FAE70A994FF00A0914
:1032500001C90A91F7E74946FCF7F8FF303106F853
:10326000011D0028F7D1ADEB060000F12009780719
:1032700001D44FF00108C84502DDA8EB090000E0C9
:1032800000208046002706E008A85A46C05D0B993A
:1032900090476D1C7F1C5745F6DB04E030205A46F2
:1032A0000B9990476D1CB8F10001A8F10108F5DCFD
:1032B00005E016F8010B5A460B9990476D1CB9F1C1
:1032C0000001A9F10109F4DC641C65E7092801008B
:1032D00030BCBDE8C08F000013B547F23054234620
:1032E000012269460348FEF79FFF0028F7D10098A6
:1032F0001CBD0000980100208EB0FDF79DFEFFF779
:1033000063FCFFF769F8FE48816C41F001018164BC
:10331000806C002200F00100009011460E20FDF7A5
:10332000F1FE0E20FDF7E1FE002211460F20FDF711
:10333000E9FE0F20FDF7D9FEFEF7D2FFFFF7A0F858
:10334000F148F0494FF000084FF0010B0160C0E96F
:10335000018B1622C0E90382C0F81480C0F81880DF
:10336000FEF722F810B1E948FFF7D8FEE8A0FFF712
:10337000D5FE2820FDF7A8FEE348FFF77FF9E6A079
:10338000FFF7CCFE2820FDF7B0FEE949E94D01F535
:1033900080700D90A1F5006000F580720C9201F52F
:1033A00000720B9200F500720A9201F540720992C8
:1033B00000F54072089201F58062079200F5806284
:1033C000069201F5A062059200F5A062049201F553
:1033D000C062039200F5C06200F5E06001F5E061B3
:1033E0008DE807004FF4800A4FF48079E8780028D0
:1033F0007ED001287DD00228F8D1C348C438FDF71B
:10340000A7FACD48FDF7A4FA85F802802820FDF739
:103410005BFECAA0FFF782FE687800284CD04C46BD
:103420004A46C349B8486B68FFF7D8F96B6822462B
:1034300003F580736B60B4480D99FFF7CFF96B68A3
:10344000224603F580736B60AF480B99FFF7C6F90E
:103450006B68224603F580736B60AB480999FFF7F0
:10346000BDF96868224600F580706860BD49A648CD
:10347000AB68FFF7B3F9AB68224603F58073AB6026
:10348000A1480C99FFF7AAF9AB68224603F58073AF
:10349000AB609D480A99FFF7A1F9AB68224603F596
:1034A0008073AB6098480899FFF798F9A86800F511
:1034B0008070A86085F801802878E8B34C464A46B9
:1034C0006B6891480799FFF789F96B68224603F505
:1034D00080736B608C480599FFF780F96B68224612
:1034E00003F580736B6088480399FFF777F901E073
:1034F0003DE04CE06B68224603F580736B608248C8
:103500000199FFF76BF96868224600F580706860E2
:10351000AB687D480699FFF761F9AB68224603F571
:103520008073AB6078480499FFF758F9AB6822467E
:1035300003F58073AB6000E012E073480299FFF777
:103540004DF9AB68224603F58073AB606E48009975
:10355000FFF744F9A86800F58070A86085F800803E
:1035600068680026A0F580707F4F68604AE17FA000
:10357000FFF7D4FDC5F81080C5F80C80C5E9018AB5
:1035800085F802804FF47A70FDF7D0FB2EE7A8781B
:1035900000281FD185F802B072494FF4007422460A
:1035A000A1F57070FDF790F928B172A0FFF7B6FD94
:1035B0005648FFF7B3FD22465D495F48FDF784F9A1
:1035C00028B171A0FFF7AAFD5048FFF7A7FD73A02F
:1035D000FFF7A4FD6878E8B34C464A4654494A4888
:1035E0006B68FFF7FBF822465E494748AB68FFF778
:1035F000F5F86B68224603F580736B60A86800F5E8
:103600008070A86040480D99FFF7E8F82246AB6843
:103610003D480C99FFF7E2F86B68224603F580738A
:103620006B60A86800F58070A86037480B99FFF7B9
:10363000D5F82246AB6834480A99FFF7CFF86B6893
:10364000224603F580736B60A86800F58070A8605F
:103650002D4800E012E00999FFF7C0F82246AB6858
:1036600029480899FFF7BAF8686800F58070686023
:10367000A86800F58070A86085F801802878002887
:1036800084D04C464A466B681F480799FFF7A6F856
:103690002246AB681C480699FFF7A0F86B682246E3
:1036A00003F580736B60A86800F58070A860164809
:1036B0000599FFF793F82246AB6813480499FFF782
:1036C0008DF86B68224603F580736B60A86800F57F
:1036D0008070A8600C480399FFF780F82246AB6819
:1036E00009480299FFF77AF86B68224603F5807360
:1036F0006B60A86800F58070A8600348019953E0EA
:1037000000100240001000A054010020980400089E
:1037100048656C6C6F0A0000496E6974696C697A5F
:1037200065206D656D6F727920446F6E650A0000CB
:10373000500C0020000000203C00002053746F70EB
:10374000706564205265636F7264696E6720616E94
:10375000642053656E642044617461204F76657205
:103760000A000000500400205003002049646C65EA
:103770000A0000006572726F7220696E2066696CC3
:10378000746572310A0000006572726F7220696E92
:103790002066696C746572300A000000737461728F
:1037A0007465640A00000000FFF718F82246AB6851
:1037B00040480099FFF712F8686800F5807068606B
:1037C000A86800F58070A86085F800800EE6334692
:1037D0004A4639493748FEF7D1FF00243819395D88
:1037E000427801EB02218278C078120402EB00607B
:1037F000014432A06961FFF791FC241DFF2CEDDD2F
:1038000006F5807668688642E1D9A868294FA0F558
:1038100080705646FC37A8601BE0264933464A466E
:10382000FC312448FEF7AAFF00243819395D42789C
:1038300001EB02218278C078120402EB006001449F
:103840001EA0A961FFF76AFC241DFF2CEDDD06F523
:103850008076A8688642E0D919A0E968FFF75EFC87
:103860001EA02969FFF75AFC24A0FFF757FC114E50
:103870003046FFF707F806F1C4006021C0E90018E0
:10388000C0F81C80C0F81480C0F824800146C0F83D
:1038900028804446234A3046FDF73FFD3046FEF778
:1038A00015FE21A0FFF73AFC2820FDF71EFCEC7066
:1038B0009CE50000540100205003002025690A0007
:1038C0004E756D626572206F662062756666657200
:1038D0002066756C6C3A2025640A00004E756D6296
:1038E0006572206F66206465746563746564206624
:1038F000756C6C3A2025640A0000000046696E6908
:10390000736865642053656E64696E6720446174F2
:10391000612C2045726173696E67206D656D6F72F1
:10392000790A000020BF020045726173696E67204A
:10393000446F6E650A0000000000000000000000F7
:103940000102030406070809A0860100400D0300D8
:10395000801A060000350C0040420F0080841E00D3
:1039600000093D0000127A000024F40000366E01C8
:103970000048E801006CDC020000000001020304C2
:10398000A0390008000000203C0000005C31000865
:10399000DC3900083C000020C45400006C310008F1
:1039A00000000000000000000000400000000000D7
:1039B0000000000000000000000000000000000007
:1039C0000000000000093D000000000010000000A1
:0C39D000010000000000000000000000EA
:040000050800018965
:00000001FF
