:020000040800F2
:10000000A87700209D0100081B3200082B2F000854
:1000100019320008A9080008354000080000000057
:10002000000000000000000000000000B1390008DE
:10003000530A0008000000001D320008B339000810
:10004000B7010008B7010008B7010008B7010008B0
:10005000B7010008B7010008B7010008B7010008A0
:10006000B7010008B7010008B7010008B701000890
:10007000B7010008B70100080D0A0008190A0008B6
:10008000B7010008B7010008B7010008B701000870
:10009000B7010008B7010008B7010008B701000860
:1000A000B7010008B7010008B7010008B701000850
:1000B000B7010008B7010008B7010008B701000840
:1000C000B7010008B7010008B7010008B701000830
:1000D000B7010008B7010008B7010008B701000820
:1000E000550A0008B7010008B7010008B701000869
:1000F000B7010008B7010008B7010008B701000800
:10010000B7010008B7010008B7010008B7010008EF
:10011000B7010008B7010008B7010008B7010008DF
:10012000B7010008B7010008B7010008B7010008CF
:10013000B7010008AD080008B9080008B7010008B9
:10014000B7010008B7010008B7010008B7010008AF
:10015000B7010008B7010008B7010008F53600082C
:10016000B7010008B7010008B7010008B70100088F
:10017000B7010008B70100080000000000000000FF
:10018000B7010008B7010008DFF80CD000F0A2F8B2
:100190000048004735440008A877002006488047FB
:1001A00006480047FEE7FEE7FEE7FEE7FEE7FEE75C
:1001B000FEE7FEE7FEE7FEE76D3A0008890100086A
:1001C0002DE9F05F0546002092469B46884606468C
:1001D000814640241BE0284641464746224600F01F
:1001E00068F853465A46C01A914110D31146184632
:1001F000224600F04FF82D1A67EB01084F462246C1
:100200000120002100F046F817EB00094E41201EA6
:10021000A4F10104DFDC484631462A46434600F09B
:1002200000B830BCBDE8C09FD2B201E000F8012B9D
:10023000491EFBD270470022F6E710B513460A4666
:1002400004461946FFF7F0FF204610BD10B548439D
:10025000044604F0E7FC002805D00021002C02D061
:10026000641E0155FAE710BD30B50B46014600206B
:100270002022012409E021FA02F59D4205D303FA68
:1002800002F5491B04FA02F52844151EA2F10102E9
:10029000F1DC30BD202A04DB203A00FA02F1002014
:1002A00070479140C2F1200320FA03F319439040B4
:1002B0007047202A04DB203A21FA02F0002170471F
:1002C00021FA02F3D040C2F12002914008431946BE
:1002D00070470000064C074D06E0E06840F001035F
:1002E00094E8070098471034AC42F6D3FFF750FF6C
:1002F000D8840008F88400082DE9F0436FF0010667
:100300004FEA51095200002506EB510C012600EB83
:10031000890406EB510E04F104080026B54211D2FF
:1003200050F8257050F8264040F8254040F82670D7
:1003300006EB0E0758F8254050F8271048F825100E
:1003400040F8274000EB85014E4402354C6850F8D8
:10035000267065454F6040F8264003EB02011E8879
:100360000B4688BFBDE8F083D8E745F2D84CFF299B
:10037000C0F6000CC0F804C00180C370827044F65F
:10038000D8424FF0FF03C0F600020CDDB1F5806FDC
:1003900012DB21D0B1F5805F21D0B1F5006F2ED1F5
:1003A0000232022127E03F290FDC102919D0202931
:1003B00025D1FE3280211EE0B1F5807F16D0B1F547
:1003C000007F1CD10E32082115E0402911D0802970
:1003D00015D13E3220210EE0063204210BE001212E
:1003E00009E002F5FF724FF4807104E01E32102123
:1003F00001E07E3240210023C1818181826058B2B8
:100400007047B0B50C4605468389426801888078FC
:10041000012803D1204600F00DF802E0204600F04C
:10042000EDF8AB68EA8929882046BDE8B040FFF7BF
:1004300063BF00002DE9F04F88B08246002004928F
:100440004A08B0EB510F50D0049F4FEA820E0AF1D8
:1004500004064FEAC30C4FF0000B00BF06EB0E087A
:100460000BF1020B58F8040C93454FEA00454FEA94
:100470006000C0EA654456F8045C4FEA05404FEA64
:100480006505C5EA60403D6890FA24F9D0FA14F099
:1004900045FB00F425FB10F046F8049CC0EA24401C
:1004A00048F8040C56F822004FEA00444FEA600076
:1004B000C0EA644034684FEA04454FEA6404C4EA81
:1004C000654457F82350674494FA20F8D4FA10F0A2
:1004D00045FB00F425FB10F0C6F80080C0EA24407C
:1004E00046F8220006F10806B8D34FEA910C062917
:1004F000CDF800A05CD308461546019040085B008B
:100500006246BCF1000F029003934AD00398960014
:10051000DDF800C0EC004FF0000E069206EB8507F8
:1005200080B20590002000BF059A8E4502440792D4
:100530002FD2049AE246F34652F820805AF8060079
:10054000DAF8009099FA20F2D9FA10F0CAF80020EF
:1005500048FB00F228FB10F0C0EA22404AF80600EF
:100560005AF807005AF8252092FA20F3D2FA10F030
:1005700048FB00F228FB10F04AF82530C0EA224080
:100580004AF807000BEB0500A24400EB050B8B4576
:10059000D4D3069A0EF1010E07980CF1040C96457F
:1005A000C2D101984FEA520C0C28DDE90203A3D214
:1005B000009EBCF1000F1AD006EB8C004FF0000E2D
:1005C0008E4510D2734600BF50F8237056F8235062
:1005D00095FA17F4D5FA17F746F8234040F8237038
:1005E00013448B42F0D30EF1010EE645E8D108B07A
:1005F00000F000B830BCBDE8C08F00002DE9F04F1E
:1006000089B0844600204FEA510A0492B0EB510FA2
:100610004ED0049F4FEA8A0E0CF104064FEAC3083D
:10062000002400BF06EB0E09023459F8042C54458F
:100630004FEA02404FEA6202C2EA604256F8040CF6
:100640004FEA00454FEA6000C0EA6545386895FA10
:1006500022FBD5FA12F220FB02F540FB12F046F81D
:1006600004BCC0EA254049F8040C56F82A004FEAB9
:1006700000424FEA6000C0EA624032684FEA024539
:100680004FEA6202C2EA654257F82350474492FAA1
:1006900020F9D2FA10F025FB00F245FB10F0C6F865
:1006A0000090C0EA224046F82A0006F10806B9D3B5
:1006B0008F080629CDF800C060D308465546019042
:1006C00040085B00BA46002F029003934FD0039876
:1006D0004FEA8A06EC0000224FF0000ECDF818A079
:1006E00006EB850780B205900098089005988E4526
:1006F0001044079031D20498DDF820A0F34650F85A
:10070000228000BF5AF80620DAF800C09CFA22F9CD
:10071000DCFA12F228FB02F048FB12F2CAF8009051
:10072000C2EA20404AF806005AF807005AF8252085
:1007300092FA20F3D2FA10F028FB00F248FB10F0F6
:100740004AF82530C0EA22404AF807000BEB0500C2
:10075000A24400EB050B8B45D4D30898DDF818A014
:100760000EF1010E079A0430D6450890BED10198CB
:100770004FEA5A070C28DDE902039FD2009BF1B132
:10078000BF004FEACA0C002607EB8A00DC591A6842
:1007900092FA14F5D2FA14F21D60DA511C5853F88B
:1007A0002A2092FA14F5D2FA14F243F82A501A5079
:1007B00006EB0A02634402EB0A068E42E6D309B056
:1007C00000F000B830BCBDE8C08F0000012862DB3B
:1007D000B0B54FF6F77CB0FA80F39FED310A4FF4D5
:1007E0004054C7F6FF7C1A466CF35F0202EB030C21
:1007F00045F6DF1200FA0CFEC5F637720FFA8EF3DB
:1008000001EE103AB8EEC11A21EE000A9FED251A4A
:1008100010EE103AA2EB630200EE102A20EE010A5D
:10082000BDEEC00A4EF34E0010EE102A13B21204B1
:10083000D2135A4312FB20F2A4EBE2325A430023B4
:10084000CFF6FC7303EAC2021514D2136A4312FBFB
:1008500020F2A4EBE2326A4303EAC2021314D21379
:100860005A4312FB20F06FF00302A4EBE030584330
:10087000C00002EA20406FF0010210FB0EF0800081
:1008800002EA20400CEBDC72521040FA02F2002027
:10089000BDE8B04001E0FF20002240B20A8070476E
:1008A0000000003800008046FEE70000014800F02C
:1008B00049BB000058000020014800F043BB000085
:1008C000AC00002010B5806A0321016500F0AEF98C
:1008D00010BD10B5806A00F0BBFA10BD10B5806A7B
:1008E00000F0CAFA10BD00001549884201D100206D
:1008F000704713492031884201D1012070471049C7
:100900004031884201D1022070470D498031884230
:1009100001D1042070470A49A031884201D1052045
:1009200070470749C031884201D106207047044909
:10093000E031884201D10720704703207047000052
:1009400000600140426B0168002A0A6811D022F061
:1009500001020A6001680A6842F400220A60016824
:100960000A6842F001020A6090F84C10032904D092
:1009700010E042F400320A600CE0816B21B901689A
:100980000A6842F002020A6090F8401001290AD079
:100990000121816490F84C10012906D05FF0040118
:1009A00080F84C107047416CF3E70221F8E70168CA
:1009B0000A6822F001020A60416B012904D1016832
:1009C0000A6822F400220A6001680A6842F0010203
:1009D0000A6090F84C1004290CD1816B21B9016890
:1009E0000A6842F002020A6090F84010012909D01A
:1009F0000121816490F84C10022905D0032180F870
:100A00004C107047416CF4E70121F8E7014800F011
:100A1000A5BB0000F4160020014800F09FBB0000B9
:100A20003C17002030B590F8444004F01C05012428
:100A3000AC40056C6C60046863608368102B0368CD
:100A400003D099600068C26030BD9A600068C160E0
:100A500030BD70474FF4005000F042BD01A003F0DC
:100A6000EBBA000057652068617665206572726F89
:100A7000720A00007047000070B5040006D02068BC
:100A8000FFF732FF374D55F8200008B1012070BD47
:100A9000204600F06FF834480168491C0160006886
:100AA0003249012819D13248026822F0804202609E
:100AB0000268A3681A430260026822F47F0202609F
:100AC0002279012A05D10268A38901EB03431A4365
:100AD0000260026842F0004202602068026822F46C
:100AE000714202602268106823691843D4E9053610
:100AF0003343184310602068026822F00F0202603E
:100B0000D4E907200243206803681A430260206882
:100B1000826822F45F02826020688268636A1A43F6
:100B2000238D01EB03410A4382602068416801F094
:100B300007014160E06A216B000240EAC1012068C0
:100B40004268114341602068016841F08001016002
:100B5000012084F834002068FFF7C6FE45F82040E5
:100B6000002070BD841700203C0000200000FFFF23
:100B70000060014000B587B014216846FFF75BFBB9
:100B800014484168002923D10168491C01601248BA
:100B9000012907D1016E41F080710166016E01F0FB
:100BA00080710591C16C41F01001C164C06C69464F
:100BB00000F0100005904FF420700090022001908A
:100BC00000200290039006200490044800F094FC5A
:100BD00007B000BD300000200010024000100048A7
:100BE0007047704770B590F84C400023C4B1FF2C9B
:100BF00016D0046825680C4E3540256004686FF3F4
:100C00000F01012A256804D045EA01212160026311
:100C100007E04FF4802646EA01210D432560F6E700
:100C20000123184670BD0000FFFFFBF8704700006D
:100C300070B5040031D03C492068884205D1606815
:100C400001282AD0E068012827D00125002065640A
:100C50002063A5642065204600F06EF820680168D6
:100C600021F400210160207A01282068016816D053
:100C700021F000510160607A01282068016811D0DC
:100C800021F4001101602068016846F20872914366
:100C90000160E068022808D00CE0012070BD41F03E
:100CA0000051E7E741F40011ECE720680168626950
:100CB00011430160207C0128206801682ED021F0BA
:100CC00010010160607C01282068016829D021F0B2
:100CD0002001016020684169144A11404161206887
:100CE0004169E269124B1143228C03EB0242636AB1
:100CF0005B1E1A431143416160686063E068A06352
:100D0000A069E063207C84F840002068016841F01D
:100D10000101016084F84C50002070BD41F01001C9
:100D2000CFE741F02001D4E70061014000FF001C43
:100D30000000FFFF704700002DE9F04F87B0054627
:100D400014216846FFF777FA38480026416891BBBE
:100D50000168491C01603648012907D1016E41F044
:100D600080710166016E01F080710591C16C41F0E6
:100D70001001C164C06C694600F0100005904FF48A
:100D8000207000900220CDE901060620CDE9036025
:100D9000284800F0B1FB002211463D2000F058FD2C
:100DA0003D2000F048FD002211463E2000F050FD9D
:100DB0003E2000F040FD2049286880274FF400784D
:100DC0004FF400694FF0200A4FF4805B884211D144
:100DD0001B4C1A4804F10C01C4E90006A66081E826
:100DE000C00F204600F018FA08B1FFF737FEEC629A
:100DF000AC62A562104928688031884212D1114C3A
:100E00000E4804F10C011430C4E90006A66081E824
:100E1000C00F204600F000FA08B1FFF71FFEEC6299
:100E2000AC62A56207B000F00FB8000030000020EF
:100E300000100240001000480061014044000240E0
:100E4000F41600203C17002030BCBDE8C08F000025
:100E5000074988420BD107488169491C81610178A3
:100E6000002904D1C169491CC16101210170704789
:100E7000580000200000002004494A78002A04D1CC
:100E8000034A904201D101204870704700000020C1
:100E90005800002070B50E0004464FF000052ED01B
:100EA0006AB320680068800229D5606B30B9206B76
:100EB00020B9A06AC06940B1202820D094F84C0025
:100EC000012805D0032803D019E0012A17D1F5E73E
:100ED000A16A0F48C862A16A0E484863A06AC16946
:100EE00020290FD0002101632168134632461C31AE
:100EF000A06A00F088FA38B1FF2084F84C00012580
:100F0000284670BD0449EEE72046FFF71BFDF7E7D2
:100F1000D3080008C5080008DD08000870B50446BD
:100F200090F84C000025022803D0042801D00125A8
:100F300005E0A06A00F0C6F82046FFF738FD284615
:100F400070BD00002DE9F0410446006881684268E8
:100F50000D074FF0010305D5150703D50821C16022
:100F6000236507E04D070AD5550708D50421C16060
:100F7000022020652046FFF759FEBDE8F0818D076D
:100F800019D5950717D52046FFF762FF206B00287B
:100F9000F3D1606B0028F0D12068416821F0020194
:100FA000416094F84C00022803D0032084F84C00E0
:100FB000E3E70120FAE701EA0205ED071FD020462A
:100FC000FFF7B8FEA06C401EA064D6D1A06B58B944
:100FD0002068416821F00101416094F84C00032829
:100FE00009D0022084F84C0094F84000012804D075
:100FF0000120A064C1E70120F4E7606CF9E7CD06A9
:101000001CD5D5061AD5856A002115F0FF0F01D031
:10101000012204E000222D0A01E06D08491CEE07C0
:1010200001D10729F9D32AB18B40C3622046FFF7CB
:10103000D8FDA2E701F10805AB40F6E71F4D204EB1
:10104000A84221D111F47F0F1ED057061CD580680D
:101050000025C0F307479846F80710D056F825003A
:1010600068B100680068400609D505F1100108FA6A
:1010700001F02168C86056F82500FFF7FBFC7F08E7
:101080006D1C082DE8D378E7A84291D1090E8FD0C6
:1010900091068DD582680021120ED40705D1520821
:1010A000491CD40701D10729F9D301F11802934053
:1010B000C36056F82100FFF793FD5EE70061014031
:1010C0008417002010B590F825100022022905D0C1
:1010D0000421C16380F82420012010BD01680B6841
:1010E00023F00E030B6001680B6823F001030B6013
:1010F00090F84410046C01F01C03012101FA03F381
:10110000636080F8251080F82420104610BD10B5CB
:1011100090F825100024022903D00421C163012482
:101120001AE001680A6822F00E020A6001680A6883
:1011300022F001020A6090F84410036C01F01C02D6
:10114000012101FA02F25A6080F82510002180F88E
:101150002410816B01B18847204610BDF0B4016CAA
:101160000C6801680D6890F8442002F01C06042207
:1011700002FA06F3234211D06B070FD50B689B06CA
:1011800003D40B6823F004030B6090F8441001F0C3
:101190001C018A40016C4A60016B1DE0022303FAC6
:1011A00006F727424FF0000C4FF0010218D0AF07AE
:1011B00016D50C68A40605D40C6824F00A040C604B
:1011C00080F8252090F8441001F01C018B40016C40
:1011D0004B6080F824C0C16A00291AD0F0BC0847CF
:1011E0000823B340234214D02B0712D50B6823F0F9
:1011F0000E030B6090F84410036C01F01C0102FA1E
:1012000001F15960C26380F8252080F824C0416B49
:10121000E2E7F0BC7047000070B568B12B4C036882
:1012200014212B4AA34209D22A4C1C44B4FBF1F1ED
:101230008900C0E910210BE0012070BD234C6442FD
:101240001C44B4FBF1F18900416420490839016470
:10125000022180F825101C6847F6F0718C43D0E914
:1012600002152943D0E904563543294385692943AA
:10127000C5692943056A2943214319608168B1F58D
:10128000804F19D0036C0F21934202D152F8A83F2E
:1012900002E00E4AA032136890F8444004F01C04A7
:1012A000A1408B43136090F84430416803F01C0365
:1012B00099401368194311600021C163012280F82D
:1012C000252080F82410084670BD00000804024064
:1012D00000000240F8FFFDBF2DE9F74F044690F8EB
:1012E0002500894600274FF00408022802D0C4F8E0
:1012F0003C8052E020680068800603D54FF480707F
:10130000E0634CE094F844004FF0020AB9F1000F9A
:1013100000F01C0007D008FA00F500BF00F024FA26
:101320008346012620E00AFA00F5F7E7016894F801
:10133000440000F01C0208209040014209D094F8BB
:101340004400216C00F01C0006FA00F04860E663DF
:1013500021E00298401C07D000F006FAA0EB0B0138
:101360000298814215D8A0B1206C01682942DDD0D5
:1013700094F84400B9F1000F00F01C0111D008FAF4
:1013800001F0216CC1F8040084F82470002000F002
:101390000FB82020E06384F8256084F824700120D1
:1013A000F5E70AFA01F0216C486084F82560EBE764
:1013B0001EBCBDE8E08F70B5044690F824000025FF
:1013C00001280CD0012084F8240094F82560002026
:1013D000012E06D084F824000225284670BD022084
:1013E00070BD022684F82560E0632068066826F058
:1013F000010606602046FFF715FB2068016841F0F2
:1014000001010160E9E770B5044690F82400002569
:1014100001280CD0012084F8240094F825600020D5
:10142000012E06D084F824000225284670BD022033
:1014300070BD022684F82560E0632068066826F007
:10144000010606602046FFF7EDFA206B00282068B1
:10145000016802D041F00E0106E021F004010160B4
:101460002068016841F00A0101602068016841F0CC
:1014700001010160D9E7000070B5044600F074F97D
:101480000546601C02D004484068044400F06CF932
:10149000401BA042FAD370BD4000002010B5B0F54B
:1014A000005F18D10C4C0D484FF48041227942B1B5
:1014B000012A0BD0022A0ED1002200F050F90020A0
:1014C00008E0012200F04BF9012003E0002200F0C7
:1014D00046F90220207110BD0000002000040048E1
:1014E000044910B50A68024202D00860FFF7D6FF2F
:1014F00010BD0000140401402DE9F04FDFF83492D4
:10150000002309F1040A012403250AF1040B87B022
:101510000F270BF1040E04E104FA03F632407CD0ED
:10152000D1F804C0BCF1010F08D0BCF1020F05D006
:10153000BCF1110F02D0BCF1120F29D1D0F808C0B4
:10154000CDF800C04FEA430C05FA0CF8CDF80CC0FA
:10155000DDF800C02CEA080CCDF800C0D1F80C80F2
:10156000DDF80CC008FA0CF8DDF800C048EA0C08F9
:10157000C0F80880D0F8048091F804C028EA060872
:10158000CCF3001C0CFA03FC4CEA080CC0F804C0B5
:10159000D1F804806FEA080C5FEA8C7C09D1D0F89E
:1015A0002CC02CEA060CC8F3C0069E4046EA0C0686
:1015B000C662D0F80CC04FEA430805FA08F62CEAD8
:1015C000060CCDF8148002968E6806FA08F646EAF4
:1015D0000C06C6604E68022E01D0122E15D1DE0810
:1015E00000EB86060396366A4FEA437C4FEADC68D6
:1015F00007FA08FC26EA0C06D1F810C00CFA08FC21
:101600004CEA060C039EC6F820C00668DDF808C048
:1016100026EA0C0691F804C000E081E0DDF81480B1
:101620000CF0030C0CFA08FC4CEA060CC0F800C0E5
:101630004E68F60074D5404ED6F860C04CF0010CF0
:10164000C6F860C0366E23F0030C06F00106009663
:101650003A4E66440296D6F808C09E074FEA1678BE
:1016600007FA08F62CEA060CB0F1904F04D0344E7D
:10167000B04203D101261BE0002619E0314EB042F2
:1016800001D1022614E0304EB04201D103260FE012
:101690002E4EB04201D104260AE02D4EB04201D1B7
:1016A000052605E02B4EB04201D1062600E00726B4
:1016B00006FA08F646EA0C06DDF808C0CCF8086021
:1016C000D9F80060CC46D1F8048096435FEAC83868
:1016D00000D51643CCF80060DAF80060D446D1F8A3
:1016E000048096435FEA883800D51643CCF8006042
:1016F000DBF80060DC46D1F8048096435FEAC82836
:1017000000D51643CCF80060DEF80060F446D1F84E
:10171000048096435FEA882800D51643CCF8006021
:101720005B1C0A6832FA03F67FF4F6AE07B000F0ED
:1017300013B8000000040140001002400000014006
:101740000004004800080048000C00480010004851
:10175000001400480018004830BCBDE8C08F0AB132
:10176000816170478162704701488068704700005E
:10177000400000200248816842681144816070473F
:101780004000002010B50024032000F081F8002064
:1017900000F008F808B1012401E000F025F8204627
:1017A00010BD000070B50E4E05460024706898B15B
:1017B0004FF47A71B1FBF0F00A490968B1FBF0F01F
:1017C00001F0F2F940B9102D06D200222946501E30
:1017D00000F03EF8356000E00124204670BD0000B6
:1017E0004000002038000020094808B5016E41F093
:1017F00001010166016E01F001010091816D41F06E
:1018000080518165806D00F08050009008BD00001F
:101810000010024000280DDB00F01F020121914062
:101820004009800000F1E020C0F88011BFF34F8F25
:10183000BFF36F8F7047002809DB00F01F02012102
:1018400091404009800000F1E020C0F8001170478D
:10185000F0B40E4B1B680C46C3F30223C3F107051B
:10186000042D00D90425191D072901D2002300E009
:10187000DB1E012606FA05F1491E214099409E40D3
:10188000761E16403143F0BC02F0E6BB0CED00E0E2
:10189000064900F0070208684FF6FF03184040EAC7
:1018A0000220034A10430860704700000CED00E07E
:1018B0000000FA051649B0F5007F0868C0F3412022
:1018C00009D0022805D0086820F4C06040F4806088
:1018D0000860002070470128FBD0086820F4C06031
:1018E00040F4007008600B483222006850430A4AF6
:1018F000B0FBF2F0401C00E0401E4A69520501D5E1
:101900000028F9D148694005E3D50320704700005D
:10191000007000403800002040420F00024800687C
:1019200000F4C0607047000000700040F8B5044645
:101930000025FFF719FF064694F83900800736D5D1
:10194000002084F838002068016849070BD5016839
:1019500021F004010160606BFFF7B4FB18B1E06B8C
:1019600040F00400E0632068016841F0020101607A
:10197000206C0090334601220221204601F050FEE7
:10198000050014D121680220C860206C0090334605
:1019900000222021204601F043FE050007D12068E7
:1019A000416921F040614161012084F839002846F5
:1019B000F8BD704770B5044690F8390000258007DF
:1019C0002CD5002084F83800082084F839002068DD
:1019D000016821F4F811016020680168490711D5F8
:1019E000016821F004010160616B0D488863606B40
:1019F000FFF78DFB90B1012084F839002046FFF7F6
:101A0000D8FF0BE00221C1602068016841F4003179
:101A100001602068016841F002010160284670BD44
:101A20001B3400082DE9F84F1E4615468A46044629
:101A3000FFF79AFE814694F8380001280ED001275E
:101A400084F8387094F839004FF00008012807D066
:101A50005FF0020084F8388000F03AB80220FBE71B
:101A6000C4F83C80422084F839004B4600222021F3
:101A70002046009601F0D4FD0028EBD121682868AB
:101A800088622168686848622168A868C86220681E
:101A90002969026822F4400242F480021143016085
:101AA000E968CAF828104FF000625146204601F05C
:101AB00005FC4B46012208212046009601F0B0FDAE
:101AC0000028C7D122680821D16084F83970C1E7A5
:101AD00018BCBDE8E08F2DE9F8431546884604465A
:101AE000FFF742FE034694F83800012809D0012090
:101AF00084F8380094F839000026012804D0022721
:101B00000FE00220BDE8F883E663422084F8390044
:101B1000206C009000222021204601F081FD07006A
:101B200002D084F8386024E021682868886221683F
:101B3000686848622168A868C862D5E9040108435A
:101B400021680A6822F440021043086021680920D5
:101B5000C860E968C8F828104FF000624146204686
:101B600001F0ACFB84F838602068016841F4102172
:101B700001603846C6E770472DE9F84F17468B4697
:101B80000446FFF7F1FD824694F8380001280ED094
:101B9000012684F8386094F839004FF000080128D5
:101BA00007D0022584F83880284600F028B80220A3
:101BB000FBE7C4F83C804FF0020984F839905346A3
:101BC000002220212046009701F02AFD0500E9D1DE
:101BD00000225946204601F071FBDBF8240058B979
:101BE0005346012202212046009701F019FD05000D
:101BF000D8D12168C1F80C9084F83960D2E718BCBC
:101C0000BDE8E08F7047704770B504460068816892
:101C100002684B0734D5530332D594F8391020307D
:101C200012290FD094F8391022291BD01EE0616AC6
:101C300001B3E16909780170E169491CE161616AF8
:101C4000491E6162216889684907F0D40EE0216B62
:101C500081B10178A26A1170A16A491CA162216B4D
:101C6000491E2163216889684907F0D42046FFF79F
:101C7000CAFF70BD2068016821F480210160F5E78A
:101C80008B074FF0010574D5930372D50221C16013
:101C90002068016821F4E021016094F839001228DD
:101CA00015D094F83900222828D094F83900022859
:101CB00050D094F839000828DBD12068416921F020
:101CC0004061416184F83950E06BE0B34DE0206839
:101CD0000168490709D5016821F004010160606BC2
:101CE0000068016821F0010101602046FFF762FEF3
:101CF00084F83950204600F0E4F970BD206801688E
:101D000049070AD5016821F004010160606B006891
:101D1000016821F00101016011E020300AE0216B2F
:101D200069B10178A26A1170A16A491CA162216B94
:101D3000491E21632168896811F4F85FEFD12046BC
:101D4000FFF738FE00E00BE084F83950204600F041
:101D50004EF970BD84F839502046FFF70CFF70BD76
:101D60002046FFF726FE70BD03E02046FFF74AFF3E
:101D7000F9E70B0711D513030FD50821C1602068BF
:101D80000168490205D5016821F41021016084F839
:101D90003950204600F02CF9E5E7CB0722D0D303D9
:101DA00020D5C5602068016821F470210160E06BD6
:101DB00040F00200E0632068016849070FD5016820
:101DC00021F004010160616B0B488863606BFFF7D1
:101DD0009EF90028C7D0E06B40F00400E06384F86F
:101DE0003950C2E7C906BED5D102BCD51021C160A9
:101DF000204600F003F9B6E71B340008F8B50446A6
:101E0000FFF7B2FC06465CB194F83800012809D00F
:101E1000012784F8387094F83900002520B10BE0D0
:101E20000120F8BD0220F8BD84F83850204600F0AB
:101E30003DF841F28830206420680168A2686FF0A4
:101E4000FF0321F4706103EB022211430160206C57
:101E50000090334600222021204601F0E1FBE8B942
:101E600021680A680F4B1A40237942EA0362E3684B
:101E70001A430A60D4E905121143226853680A4ED6
:101E80003340268A43EA06431943516021680A68B1
:101E900042F001020A60E56384F8397084F8385032
:101EA000F8BD0000EFFFFF00FEF8E0FF10B586B0C0
:101EB000044614216846FEF7BEF917492068884297
:101EC00027D11648016D41F480710165016D01F45F
:101ED00080710591C16C41F01001C164C06C69460C
:101EE00000F0100005904FF47C400090022001901B
:101EF00000200290032003900A2004900848FFF776
:101F0000FBFA002211464720FFF7A2FC4720FFF70B
:101F100092FC06B010BD0000001000A000100240AE
:101F2000001000482DE9F84F15460F460446FFF70C
:101F30001BFC82462068816994F8382000F1200952
:101F4000012A0DD0012684F8386094F839204FF02A
:101F50000008012A06D0022084F8388000F044B836
:101F60000220FBE7C4F83C80BFB3222284F839206A
:101F70000269521C22630269521CE262A762426932
:101F800022F0406242F080624261206881610EE08E
:101F90000621204601F044FBE0B999F80000A16A4F
:101FA0000870A06A401CA062206B401E2063206B5A
:101FB00053464FF0010200950028E9D14FF002018D
:101FC000204601F02DFB28B921680220C860204678
:101FD000FFF7ACFC84F83960BEE7FFE7E06B40F048
:101FE0000800E0630120B7E718BCBDE8E08F704748
:101FF00001490120C87070470000002070470000B0
:102000002DE9F84F15460F460446FFF7ADFB824613
:10201000206894F8381000F1200901290ED001261B
:1020200084F8386094F839104FF00008012907D07F
:102030005FF0020084F8388000F040B80220FBE72F
:10204000C4F83C809FB3122184F839100169491CFF
:1020500061620169491C2162E761416921F04061C7
:1020600041610EE00421204601F0DAFAE0B9E069AE
:10207000017889F80010E069401CE061606A401E48
:102080006062606A53464FF0010200950028E9D172
:102090004FF00201204601F0C3FA28B9216802205E
:1020A000C8602046FFF742FC84F83960C2E7FFE7CA
:1020B000E06B40F00800E0630120BBE718BCBDE81E
:1020C000E08F70472DE9F84F044600270088E54D62
:1020D0003E46010504F1200B1DD5606E78B1B0F5C8
:1020E000800F11D0B0F5000F04D0B0F5400F22D012
:1020F00001270FE0E86840F48030E8601BE0002131
:10210000201D01F0FDFA03E00021584601F08EFB8E
:10211000070010D03E462088C00426D5A06EC0B16E
:10212000B0F1807F1AD0B0F1007F0DD0B0F1407FC8
:1021300019D0012718E0D5F88800616E20F440001E
:102140000843C5F88800E6E7E86840F48030E860B6
:1021500009E00021201D01F0D3FA03E000215846D8
:1021600001F064FB0746F7B13E46206880033AD58C
:10217000A86D4FF00008C00009D4A86D40F0805051
:10218000A865A86D4FF0010800F080500090DFF8BE
:10219000D8A2DAF8001041F48071CAF80010FFF7F5
:1021A000E3FA814610E0D5F88800A16E20F0407077
:1021B0000843C5F88800D8E7FFF7D6FAA0EB090076
:1021C000022801D9032705E0DAF80000C005F3D59D
:1021D000002F7CD04FEA0706B8F1000F03D0A86D9E
:1021E00020F08050A8652078C00707D0D5F8880077
:1021F000A16B20F003000843C5F888002078800711
:1022000007D5D5F88800E16B20F00C000843C5F82D
:1022100088002078400707D5D5F88800216C20F089
:1022200030000843C5F888002078000707D5D5F8A6
:102230008800616C20F0C0000843C5F88800207851
:10224000C00607D5D5F88800A16C20F4407008437B
:10225000C5F888002078800607D5D5F88800E16C9D
:1022600020F440600843C5F888002088800507D521
:10227000D5F88800E16D20F440200843C5F88800B7
:102280002088400507D5D5F88800216E20F440103D
:102290000843C5F888002078400607D5D5F888009F
:1022A000216D20F440500843C5F8880020780006CE
:1022B00007D5D5F88800616D20F440400843C5F883
:1022C00088002088C00509D5D5F8880000E01CE00A
:1022D000A16D20F440300843C5F8880020884FF0F5
:1022E000006780044FF080684FD5D5F88800E16E14
:1022F00020F040600843C5F88800E06EB8423CD149
:10230000E86840F48010E8603FE0D5F8900010F4F1
:10231000407015D0D4F88410814211D0D5F89000C7
:10232000D5F8901020F4407041F48031C5F8901039
:10233000D5F8901021F48031C5F89010C5F89000C0
:10234000C00710D0FFF710FA074641F2883906E0BF
:10235000FFF70AFAC11B494501D903263CE7D5F826
:1023600090008007F4D5D5F89000D4F8841020F4BC
:1023700040700843C5F890002EE7404505D1012183
:10238000201D01F0BDF900B106462068000317D5F5
:10239000D5F88800216F20F040600843C5F8880018
:1023A000206FB84204D1E86840F48010E86007E08C
:1023B000404505D10121201D01F0A2F900B10646DA
:1023C0002068400317D5D5F88800616F20F0406081
:1023D0000843C5F88800606FB84204D1E86840F44B
:1023E0008010E86007E0404505D10121201D01F083
:1023F00087F900B10646208840041AD5D5F8880030
:10240000A16F20F040500843C5F88800A06FB0F1DC
:10241000805F03D0B0F1005F05D00AE00221201DEB
:1024200001F06EF903E00221584601F0FFF900B116
:1024300006462088000407D5D5F88800E16F20F013
:1024400080400843C5F888002068C00307D555F8C8
:10245000880FD4F8801020F00040084328603046F0
:1024600000F004B8001002400070004018BCBDE845
:10247000E08F00002DE9F0470F46050058D0404E90
:10248000306800F00700B84209D2306820F0070039
:1024900038433060306800F00700B84248D12878EF
:1024A000384CC0072CD06868032811D0022812D0FD
:1024B000216898B1490500293ADAA16821F00301A1
:1024C0000143A160FFF750F9804641F2883910E0DE
:1024D00021688901EFE721688903ECE78907EAE7CA
:1024E000FFF742F9A0EB0801494502D90320BDE8F6
:1024F000F087A068696800F00C00B0EB810FEFD1A5
:102500002878800705D5A068A96820F0F000084366
:10251000A060306800F00700B8420BD9306820F0A6
:10252000070038433060306800F00700B84201D03F
:102530000120DCE72878400705D5A068E96820F489
:10254000E0600843A0602878000706D5A0682969E4
:1025500020F4605040EAC100A06000F03FF8A1689C
:10256000094AC1F30311515C01F01F01C84007493A
:10257000086007480068BDE8F047FFF713B900009E
:102580000020024000100240904C0008380000205B
:10259000400000200548064900688968054AC1F3E3
:1025A0000221515C01F01F01C84070473800002033
:1025B00000100240D04C00080548064900688968B0
:1025C000054AC1F3C221515C01F01F01C8407047A8
:1025D0003800002000100240D04C000870B525499A
:1025E000002318468A68CC6812F00C0204F0030637
:1025F000214C4FEA640509D00C2A05D0042A32D0B8
:10260000082A00D1284670BD012E10D10B681B0787
:1026100004D4D1F89430C3F3032302E00B68C3F36E
:102620000313164E56F82330DAB10C2AEBD1C868E2
:1026300000F00300022818D0032818D01846CA68F2
:10264000CB68C2F30212C3F306234343521CB3FB0D
:10265000F2F2C868C0F34160401C4000B2FBF0F0E9
:1026600070BD184670BD204670BD2046E7E728467D
:10267000E5E70000001002400024F400A04C000830
:102680002DE9F84304006FD0FE4DA86800F00C0659
:10269000E86800F003072078C00664D576B10C2EF8
:1026A00001D1012F0AD0A069002828687AD040F013
:1026B00001002860FFF758F880465DE02868800731
:1026C00002D5A0690028DED0216A2868000703D55A
:1026D000286800F0F00004E0D5F89400F02202EA47
:1026E0001010814216D9084601F024F900283BD188
:1026F000286840F0080028602868216A20F0F0006F
:10270000084328606868E16920F47F4040EA0120BE
:10271000686016E0286840F0080028602868216A90
:1027200020F0F000084328606868E16920F47F40E9
:1027300040EA0120686026B9206A01F0FBF8002811
:10274000D5D1FFF74BFFA968CF4AC1F30311515C04
:1027500001F01F01C840CD490860CD480068FFF76F
:1027600021F800287ED12EE0CAE000BFFEF7FCFF72
:10277000A0EB0800022876D828688007F6D52868DC
:1027800040F0080028602868216A20F0F000084323
:1027900028606868E16920F47F4040EA01206860B1
:1027A00011E0FFE720F001002860FEF7DDFF804622
:1027B00006E000BFFEF7D8FFA0EB08000228DAD839
:1027C00028688007F6D42078C00740D0082E18D09B
:1027D0000C2E01D1032F14D06068B0F5803F17D0C4
:1027E000B0F5A02F286817D020F480302860286822
:1027F00020F4802028606068E0B1FEF7B5FF8046D5
:1028000014E02868800322D56068002878D01EE094
:10281000286840F48030EDE740F480202860F7E736
:10282000FEF7A2FFA0EB08006428A4D82868800364
:10283000F6D50CE0FEF798FF804605E0FEF794FF22
:10284000A0EB0800642896D828688003F6D4207886
:1028500080073BD5042E11D00C2E01D1022F0DD0B4
:10286000E06801E092E1F1E0002828681ED040F421
:1028700080702860FEF778FF07460CE02868400566
:102880000CD5E0680028C1D008E000BFFEF76CFF5F
:10289000C01B022893D828684005F7D56868217CBA
:1028A00020F0F85040EA016068600FE020F480708A
:1028B0002860FEF759FF074605E000BFFEF754FF0A
:1028C000C01B0228B1D828684005F7D4207800073B
:1028D00029D560690028D5F8940012D040F0010095
:1028E000C5F89400FEF740FF074604E0FEF73CFF02
:1028F000C01B022899D8D5F894008007F6D512E0BD
:1029000000E120F00100C5F89400FEF72DFF074616
:1029100005E000BFFEF728FFC01B022885D8D5F8C8
:1029200094008007F6D42078400766D5A86D00276C
:10293000C00008D4A86D40F08050A865A86D01279C
:1029400000F08050009053480168C90512D4016816
:10295000814641F480710160FEF706FF804605E084
:10296000FEF702FFA0EB080002286FD8D9F800009C
:10297000C005F5D5A068012816D00528D5F8900027
:1029800017D020F00100C5F89000D5F8900020F095
:10299000040000BFC5F89000A06841F28839C0B1BA
:1029A000FEF7E2FE80460FE0D5F8900040F001000F
:1029B000F0E740F00400C5F89000F5E7FEF7D4FE1C
:1029C000A0EB0801494541D8D5F890008007F5D51E
:1029D0000EE0FEF7C9FE804606E000BFFEF7C4FE2B
:1029E000A0EB0801494531D8D5F890008007F5D40F
:1029F0001FB1A86D20F08050A865A06A38B30228E6
:102A00000AD00C2E7ED0286820F0807028602868BC
:102A100010F0205F77D0AAE0E868E26A00F00301D6
:102A200091422BD1216B00F07002090110399142C3
:102A300024D1626B00F4FE41B1EB022F1ED1A26BD8
:102A400000F40031072A03D0012202E09DE089E072
:102A50000022914212D1A18F00F4C0024908490519
:102A6000A1F50011914209D194F8401000F0C06026
:102A700049084906A1F1007181425CD00C2E41D079
:102A8000286809E000100240904C0008380000203F
:102A9000400000200070004040017ED42868C00043
:102AA0007BD4286820F080702860FEF75DFE064623
:102AB00005E000BFFEF758FE801B022865D8286895
:102AC0008001F7D4D4E90B016FF00F0202EB011182
:102AD0000843A18F5204490802EB4151626B41EA5D
:102AE0000221084394F840104FF07E42490802EB5F
:102AF00041610843A16B090940EA4140E968284A5D
:102B0000114001E049E02EE00843E860286840F009
:102B100080702860E86840F08070E860FEF724FE6E
:102B2000044604E0FEF720FE001B02282DD828688A
:102B30008001F7D52FE0286880012CD4286840F068
:102B400080702860E86840F08070E860FEF70CFE56
:102B5000044604E0FEF708FE001B022815D828688A
:102B60008001F7D517E0E86820F00300E860E86826
:102B70000C490840E860FEF7F7FD044608E000BF96
:102B8000FEF7F2FD001B022802D90320BDE8F883FE
:102B900028688001F4D40020F8E70120F6E700005F
:102BA0008C809DF9FFFFEEFE10B5401EB0F1807FD6
:102BB00001D3012010BD4FF0E02460610F216017A8
:102BC00001F04AFA0020A06107202061002010BD1A
:102BD000F0B590F83C20012A39D0012480F83C401F
:102BE000022280F83D20026853689568194E1A4FFA
:102BF000B24201D0BA4204D123F4700C4B6843EACC
:102C00000C0323F0700C0B6843EA0C03536002685A
:102C1000B24210D0B2F1804F0DD0104B9A420AD080
:102C20000F4B9A4207D00F4B9A4204D0BA4202D0BF
:102C30000D4B9A4204D1896825F0800319439160B5
:102C400080F83D40002180F83C100846F0BD02208D
:102C5000F0BD0000002C01400034014000040040A1
:102C600000080040000C00400040014010B5040086
:102C700003D094F83D0010B107E0012010BD002002
:102C800084F83C00204600F00DF8022084F83D0056
:102C9000211D206800F00CFF012084F83D00002079
:102CA00010BD000008B500680649884208D10648F2
:102CB000016E41F400610166006E00F40060009056
:102CC00008BD0000002C01400010024070B5044611
:102CD00090F83C00012817D0012584F83C500220D0
:102CE00084F83D00226890682E4B184020F47F4005
:102CF00090600868502830D00DDC20284DD005DCCD
:102D000098B310283BD148E0022070BD302844D051
:102D1000402834D139E0602828D0702806D0B0F59A
:102D2000805F2CD0B0F5005F29D10AE0CB68D1E9F3
:102D30000121206800F01CFF2068816841F07701C4
:102D400009E0CB68D1E90121206800F011FF20687B
:102D5000816841F48041816011E0CA684968206857
:102D600000F018FF5021206807E016E0CA684968A3
:102D7000206800F020FF6021206800F003FF84F845
:102D80003D50002084F83C0070BDCA684968206846
:102D900000F000FF40212068EFE72268014610465E
:102DA000EBE7000088FFFEFF10B5040002D0606F63
:102DB00010B107E0012010BD002084F8700020460B
:102DC00000F026F8242060672068016821F00101E6
:102DD0000160204600F092FF0128ECD0606A10B13B
:102DE000204600F0FAFE2068416821F490414160DD
:102DF0002068816821F02A0181602068016841F023
:102E0000010101602046BDE8104000F04ABF00000B
:102E100010B586B0044614216846FDF70CFA124935
:102E2000206888421ED11148016E41F4804101663C
:102E3000016E01F480410591C16C41F00201C16451
:102E4000C06C694600F002000590C020009002208E
:102E50000190002002900320039007200490044872
:102E6000FEF74AFB06B010BD0038014000100240DA
:102E7000000400482DE9F8430446406F1F461646FB
:102E80000D4620284FD1CDB1C6B194F8700001286D
:102E900049D0012084F870004FF00008C4F87C800D
:102EA00021206067FEF760FCA4F850608146A4F81A
:102EB0005260A068B0F5805F03D004E00120BDE857
:102EC000F883206928B12E465FF0000584F87080F1
:102ED00010E00026FAE78021204601F059F8B8B941
:102EE000C6B116F8010B21680885B4F85200401EDF
:102EF000A4F85200B4F852004B464FF0000200977D
:102F00000028E8D14FF04001204601F041F830B1EF
:102F10000320D4E735F8020BC0F30800E3E72020D4
:102F200060670020CBE70220C9E7FEE72DE9F04704
:102F30003B483A494FF00009C0E9001901240472E6
:102F40004472CD054027C561C0E908741126FDF71C
:102F50006FFE10B1334801F06FF831482F495430FB
:102F60008031C0E9001404724472C561C0E908747C
:102F7000FDF75EFE10B12B4801F05EF828482749A6
:102F8000A830E039016004714FF08048C0F8088033
:102F9000C0E903698915C0E905910427C0E907471D
:102FA000C0E90994C0F82C904D46C0F83090FDF768
:102FB00063FD10B11B4801F03FF819481749E03094
:102FC000C03901600471C0F80880C0E9036545613B
:102FD0008561C0E90757C0E90954C5620563FDF77B
:102FE0004BFD10B10F4801F027F801220E490C48A3
:102FF000FDF7F8FD10B10B4801F01EF8084801225A
:103000000A495430FDF7EEFD002804D0BDE8F04732
:10301000044801F011B8BDE8F087000000610140EC
:1030200058000020640A00080400020002000100A9
:103030001D4808B5816C41F001018164816C01F08B
:1030400001010091816C41F002018164806C17499B
:1030500000F00200009016484FF480420160002109
:10306000C0E901124022C2608022026192004261E6
:103070005200C0E906210162FEF7CEF810B10D48FA
:1030800000F0DAFF002211460E20FEF7E1FB0E20D1
:10309000FEF7D1FB002211460F20FEF7D9FBBDE859
:1030A00008400F20FEF7C7BB001002400804024092
:1030B00074020020640A000870B586B014216846C6
:1030C000FDF7B9F82248C16C41F00401C164C16C3C
:1030D00001F004010591C16C41F01001C164C16CA3
:1030E00001F010010591C16C41F00201C164C16C95
:1030F00001F002010591C16C41F00101C164C06C95
:10310000144E00F001004FF480450590002229463E
:103110003046FEF724FB681000900F480024CDE9EC
:10312000010469460D48FEF7E7F901200095CDE955
:103130000104694630460394FEF7DEF90022114689
:103140002820FEF785FB2820FEF775FB06B070BD32
:103150000010024000040048000011100008004860
:1031600010B588B00024194805940694039404947B
:10317000009401941449029401604F21C0E90114A4
:10318000C46080210461C0E90541FFF76FFD10B103
:103190000F4800F051FF4FF48050039003A90B48F3
:1031A000FFF794FD10B10A4800F046FF0094019427
:1031B000694606480294FFF70BFD002802D0044838
:1031C00000F03AFF08B010BD002C0140B40100200F
:1031D000640A00080E4810B50C4901604FF4E13153
:1031E0004160002181600C22C160C0E9041281614C
:1031F000C16101624162FFF7D7FD002804D0BDE83C
:103200001040044800F018BF10BD00000038014015
:10321000F4010020640A0008FEE7704770470000D0
:1032200000B5104987B005220A6000224A60CA61D1
:103230004FF080734B624A6101238B621021CDE90C
:103240000213CDE900238904CDE90421064B6A4627
:103250000449FEF7E7FB002802D0044800F0ECFE2A
:1032600007B000BDBC02002020BF0200640A0008B5
:1032700000B5104987B005220A6000224A60CA6181
:103280004FF080734B624A6101238B621021CDE9BC
:103290000213CDE900238904CDE904216A460549DA
:1032A000FEF719FC002802D0034800F0C5FE07B065
:1032B00000BD0000BC020020640A0008F0B54B6AA3
:1032C0004FF040652BB1AA4203D08B6A04685B1EA5
:1032D00023618C690B6A002C57D05BB304688B6840
:1032E000E361CC69B4B1D1E90B3633434F6A4E6B1D
:1032F0003E4333438E8A43EA86430E6933430E6A64
:103300003343CE68334323438C6924E00068496823
:103310008161F0BDD1E90B3423434D6A4C6B2C43E2
:1033200023438C8A43EA84430C6923430C6A234376
:103330008C6923E0CE69BEB1D1E90B373B43D1F8AC
:1033400024C04F6B47EA0C073B438F8A43EA87430D
:10335000CF683B43334323430C6823430468134340
:103360006361AA42D2D1F0BDD1E90B352B434E6A3D
:103370004D6B35432B438D8A43EA854309682343CC
:1033800000680B4313434361F0BD3BB304688B6893
:10339000E361CC6994B1D1E90B3633434F6A4E6B8C
:1033A0003E4333438E8A43EA86430E6933430E6AB3
:1033B0003343CE68334323438C69CEE7D1E90B34E2
:1033C00023434D6A4C6B2C4323438C8A43EA84434A
:1033D0000C6923430C6A89692343D1E7CC6964B142
:1033E000D1E90B3633434F6A4E6B3E4333438E8AEB
:1033F00043EA8643CE683343AFE74B6A002BC3D022
:10340000D1E90B452C434D6B898A1D432C43006841
:1034100044EA814111434161F0BD10B5806A002149
:103420000163416290F83910082905D0012180F824
:103430003910FEF7E7FB10BD02680221D160016878
:103440000A6842F400320A600068016841F0020133
:10345000016010BD2DE9F84F394C82464FF4807061
:10346000A061002540012562C4E902502561E562A2
:10347000256305206563C4E900056561DFF8C49034
:103480004FF080760127E5614A4621465046C4E95F
:103490000967FEF771FB10B12B4800F0CDFD4A46DD
:1034A00069465046FEF73EFD10B1274800F0C4FDC6
:1034B0009DF80000400602D4234800F0BDFD4020E6
:1034C0008DF800008DF801504FF002088DF8028051
:1034D000504600F0C9F8C4E90075E5610320656154
:1034E000C4E909604F464A4615495046FEF744FB79
:1034F0003A4669465046FEF783FD5046FFF790FE78
:103500006420FDF7B9FF1520C4E90005E561656198
:10351000C4E909683A460A495046FEF72DFB10B146
:10352000094800F089FD3A4669465046FEF7FAFC24
:10353000002802D0044800F07FFD00F007B800002A
:10354000BC02002020BF0200640A000818BCBDE8CD
:10355000E08F00002DE9F0411D4614460E46074657
:10356000B2F5807F02D9104800F066FD0F486B214C
:10357000C0E900154FF48061C161082141614FF03D
:103580004071C0E909140A4C014622463846FEF74C
:10359000F3FA224631463846FEF7C4FC3846BDE809
:1035A000F041FFF73DBE0000640A0008BC020020A5
:1035B00020BF02002DE9F0411E4614460F4680460A
:1035C000B2F5807F02D9134800F036FD124DE8783D
:1035D0000028FCD0404600F047F81048382101226E
:1035E000C0E9001600264FF440614661C1618903BD
:1035F000C0E9091401464046FEF7BEFA01223946E9
:103600004046FEF7FDFC4046FFF732FEEE70BDE897
:10361000F0810000640A000800000020BC020020C5
:103620002DE9F041984616460F460446069D08E0EF
:10363000681C06D0FEF798F8A0EB0800A8420AD84C
:103640004DB120688068384000D00120B042EFD1F1
:103650000020BDE8F081042084F83900E06B40F0E0
:103660000100E0630120F4E7F0B51F4D064687B086
:103670004FF48070A861002440012C62C5E902402B
:103680002C61EC622C6306206C63C5E90004EC61DC
:103690006C61164F6C623A4629463046AC62FEF7C2
:1036A0006BFA10B1124800F0C7FC022000900190A4
:1036B00001201021CDE902108105CDE90441052149
:1036C000C5E90014EC6101066C61C5E909103B46CF
:1036D0006A4605493046FEF7A5F9002802D004489D
:1036E00000F0AAFC07B0F0BDBC02002020BF020021
:1036F000640A00080148FEF787BA00007001002044
:103700002DE9F041444C05468846E06800268107D3
:1037100028680DD0E16801F00301814216D1A8B1FB
:10372000E0686968C0F30210401C88420ED120E0B6
:10373000012804D0022805D0032807D108E0216819
:10374000890701E021684905002907DB01265FE0C0
:103750002168890302D421684903F5E7E1686A68B2
:103760006FF00F0321F0730103EB021211430143C9
:10377000E160206820F080602060FDF7F5FF0746DB
:1037800005E000BFFDF7F0FFC01B022837D8206816
:103790000001F7D4B8F1000F18D0B8F1010F1ED016
:1037A000287D4FF07E41400801EB4060A96840EA67
:1037B00001202169194A114008432061206840F026
:1037C00080602060FDF7D0FF07461AE0A868E9682E
:1037D0000002090940EA41402169114AEBE7288AC1
:1037E0001049400801EB4050A96840EA01202169D6
:1037F0000D4AE0E7FDF7B8FFC01B022801D90326F8
:1038000006E020680001F5D52069A9690843206118
:103810003046BDE8F081000000100240FF80FFF953
:10382000FF80FDFF0000E0FFFF809FFF2DE9F041DA
:103830003D4C06468846E0680025810730680DD07B
:10384000E16801F00301814216D1A8B1E068716816
:10385000C0F30210401C88420ED120E0012804D0A1
:10386000022805D0032807D108E02168890701E074
:1038700021684905002907DB012551E021688903FA
:1038800002D421684903F5E7E16872686FF00F031D
:1038900021F0730103EB021211430143E160206840
:1038A00020F080502060FDF75FFF074605E000BF75
:1038B000FDF75AFFC01B022829D820688000F7D4E2
:1038C000B8F1000F15D0307C4FF07E41400801EB7D
:1038D0004060B16840EA01206169144A1140084320
:1038E0006061206840F080502060FDF73DFF074692
:1038F0000FE0B068F1680002090940EA41406169DF
:103900000B4AEBE7FDF730FFC01B022801D9032566
:1039100006E020688000F5D5606971690843606140
:103920002846BDE8F081000000100240FF80FFF94A
:10393000FF80FDFFF8B51C4D06460024A86DC000B1
:1039400002D5FDF7EBFF0DE0A86D40F08050A865B3
:10395000A86D00F080500090FDF7E0FFA96D21F008
:103960008051A965B0F5007F04D0802E07D94FF0B3
:1039700003040AE0802E08D9A02E01D804E001D16A
:10398000022402E0702E00D101240848016821F0D1
:10399000070121430160006800F00700A04201D048
:1039A0000120F8BD0020F8BD0010024000200240B8
:1039B0007047FDF7DFBE0000F0B5B9B0442122A882
:1039C000FCF739FC142133A8FCF735FC8821684644
:1039D000FCF731FC0224E00125901020229426906F
:1039E00004262C94CDE92D4650200727CDE92F073A
:1039F000CDE9314622A8FEF743FE10B1194800F088
:103A00001BFB0F20002533900320CDE934053695AC
:103A1000042133A83795FEF72DFD10B1114800F0B1
:103A20000BFB11480E95199520958DE851005420F7
:103A300003904FF48030CDE90640CDE90474684628
:103A4000FEF740FB10B1074800F0F6FA4FF40070A3
:103A5000FDF730FF002802D0024800F0EDFA39B03F
:103A6000F0BD0000640A0008010801000D4801686B
:103A700041F4700101600C48016841F001010160EE
:103A8000002181600268094B1A4002608214C26002
:103A9000026822F48022026081610249C0038039F9
:103AA0000860704788ED00E000100240FFFFF6EA72
:103AB0002DE9F0470268264B264D274E274F284C0C
:103AC0004FF0804A984209D0504507D0A84205D00F
:103AD000B04203D0B84201D0A04204D122F0700C11
:103AE0004A6842EA0C02DFF87CC0DFF87C80DFF82D
:103AF0007C9098420FD050450DD0A8420BD0B042D8
:103B000009D0B84207D0A04205D0604503D0404557
:103B100001D0484503D122F44075CA682A434D6953
:103B200022F080022A4302608A68C2620A688262C6
:103B3000984207D0A04205D0604503D0404501D04F
:103B4000484501D10969016301214161BDE8F08760
:103B5000002C01400004004000080040000C004020
:103B60000034014000400140004401400048014051
:103B700010B5846842EA032224F47F440A432243B6
:103B8000826010BD826822F070020A4342F0070191
:103B90008160704710B5036A046A24F0010404626E
:103BA000846924F0F00444EA021423F00A020A4370
:103BB0008461026210BD10B5036A23F01003036232
:103BC0008369046A23F4704343EA023224F0A003B9
:103BD00043EA01118261016210BD90F82410C90707
:103BE00006D001684A68836A22F400321A434A60A8
:103BF00090F82410890706D501684A68C36A22F440
:103C000080321A434A6090F82410490706D50168AB
:103C10004A68036B22F480221A434A6090F8241009
:103C2000090706D501684A68436B22F400421A432B
:103C30004A6090F82410C90606D501688A68836B2B
:103C400022F480521A438A6090F82410890606D51F
:103C500001688A68C36B22F400521A438A6090F8A4
:103C60002410490611D501684A68036C22F48012B9
:103C70001A434A60016CB1F5801F06D101684A6899
:103C8000436C22F4C0021A434A6090F824100906DB
:103C900006D501684A68806C22F4002202434A601B
:103CA0007047F8B500260446C667FDF75DFD05467A
:103CB000206800686FF07E47000708D52B46002279
:103CC0004FF400112046009700F062F960B92068B7
:103CD000006840070AD52B4600224FF48001204699
:103CE000009700F055F908B10320F8BD2020606767
:103CF000A06784F870600020F8BD00002DE9F04155
:103D00000546016880682B69EC6918436B690027D8
:103D100023431843924A0B68924C234003430B60A1
:103D200028684168EB6821F44051194341602968D3
:103D3000A869914201D02B6A18438B6823F4306341
:103D400003438B60884B2968884899420DD1D0F88D
:103D5000880010F0030006D0012868D0022864D043
:103D6000032851D165E001244FE0814B99420BD1EA
:103D7000D0F8880010F00C0055D0042857D008283F
:103D800053D00C2840D154E07A4B99420BD1D0F853
:103D9000880010F0300046D0102848D0202844D0A9
:103DA000302831D145E0744B99420BD1D0F88800CE
:103DB00010F0C00037D0402839D0802835D0C02836
:103DC00022D136E06D4B99420ED1D0F8880010F424
:103DD000407028D0B0F5807F29D0B0F5007F24D086
:103DE000B0F5407F10D124E091420DD1D0F8880089
:103DF00010F4406017D0B0F5806F18D0B0F5006FA8
:103E000013D0B0F5406F14D010245D4B00264FF452
:103E10000040914245D174B1022C0FD0042C0FD038
:103E2000082C18D10FE00024EFE70224EDE704246A
:103E3000EBE70824E9E7FEF7ADFB03E0184602E0F4
:103E4000FEF7CCFBA8B36A6802EB4201814202D8BC
:103E5000B0EB023F01D901276FE0DFF828815CB1A8
:103E6000022C0CD0042C13D0082CF4D150082105BE
:103E7000401846F1000105E0FEF78CFB0AE050080F
:103E80004149F5E70023FCF79BF9A0F5407150E0AC
:103E9000FEF7A4FB6A68010E03025008181871416E
:103EA000F0E7E9694FF6EF7881422FD1092CD2D2A1
:103EB00000E042E0DFE804F00609200523050505DF
:103EC0002600C8E7FEF766FB01E0FEF775FB410040
:103ED000D5F8040001EB5001B1FBF0F080B2A0F185
:103EE00010014145B7D84FF6F0710140C0F34200D0
:103EF00001432868C16020E024496868EAE7FEF7CA
:103F00006DFBE4E74FF480316868E3E7092CA2D247
:103F1000DFE804F0060918051E05050520009AE7EC
:103F2000FEF738FB16E0FEF747FB13E080B2A0F186
:103F3000100141458FD82968C8602E6638466E66E4
:103F4000BDE8F081686803EB5001B1FBF0F0EDE7EC
:103F5000FEF744FB696800EB5100B0FBF1F0E5E7C8
:103F600000800040F369FFEF00380140001002407C
:103F70000044004000480040004C00400050004019
:103F80000024F400FFFC0F00000024F40048E801C6
:103F90002DE9F0479A4617460E4604464FF00009B1
:103FA0004FF02008089D39E0681C37D0FDF7DCFB96
:103FB000A0EB0A00A84222D80DB320680168490787
:103FC0002CD5C069C043000528D421684FF4006097
:103FD00008622068016821F4D0710160206881685E
:103FE00021F001018160C4F87480C4F87880C4F8BD
:103FF0007C8000BF84F870900320BDE8F0872068C3
:10400000016821F4D07101602068816821F001010C
:104010008160C4F87480C4F87880EBE72068C069D8
:1040200036EA000004D00020B842BDD00020E4E70A
:104030000120F9E7FEE700000FB4054B10B503A916
:10404000044A029800F028F810BC5DF814FB000048
:10405000C54300084C0000200907090E002804DBB6
:1040600000F1E02080F80014704700F00F0000F12C
:10407000E02080F8141D704702E008C8121F08C134
:10408000002AFAD170477047002001E001C1121FD9
:10409000002AFBD1704700002DE9FF4F89B09B46F5
:1040A0000446002506E025280BD05A460B99904778
:1040B000641C6D1C20780028F5D10DB0284600F056
:1040C00095B80027B8460122474900E0074314F895
:1040D000013F203B02FA03F00842F7D120782E2856
:1040E00019D114F8010F47F004072A280ED06FF0F9
:1040F0002F022078A0F1300109290CD808EB8801A3
:1041000002EB410100EB0108641CF2E70A98641C11
:1041100050F8048B0A9020780028CED0642808D06C
:10412000692806D075281ED05A460B9990476D1CF9
:1041300058E00A994FF00A0901C90A91002802DAE9
:1041400040422D2102E0390504D52B218DF82010A5
:10415000012103E0F90704D02021F7E78A4608AEE1
:104160000DE00021FAE70A994FF00A0901C90A9106
:10417000F7E74946FCF778F8303106F8011D0028CA
:10418000F7D1ADEB060000F12009780701D44FF01C
:104190000108C84502DDA8EB090000E000208046C8
:1041A000002706E008A85A46C05D0B9990476D1C91
:1041B0007F1C5745F6DB04E030205A460B999047A8
:1041C0006D1CB8F10001A8F10108F5DC05E016F856
:1041D000010B5A460B9990476D1CB9F10001A9F1EA
:1041E0000109F4DC641C65E70928010030BCBDE866
:1041F000C08F0221FCF72AB82DE9F0470F469146FF
:1042000080460421FCF722F8060018D0002414E0B0
:1042100004213846FCF71AF846F8240060B100255E
:1042200008E002214846FCF711F856F8241041F83E
:1042300025006D1CBD42F4DB641C4445E8DB3046C0
:10424000BDE8F0872DE9F04116460F46804600256F
:104250000CE0002407E000BF58F8250050F82400C7
:1042600000F0C0F8641CB442F6DB6D1CBD42F0DB0C
:104270004046BDE8F04100F0B5B80000F0B51A4F77
:1042800000214FF4817C7981B981BB6AB3B10022EE
:104290004FF480750020044601E0002406E053F846
:1042A000226056F82060401C26F814100228F6DB25
:1042B000401CA842F1DD521C6245EBDD3A6A32B186
:1042C0005FF0000022F81010401C6045FADD7A6AA9
:1042D000002A08D0002040F2062300BF22F8101068
:1042E000401C9842FADBF0BD0000002010B5084CDD
:1042F000E06A00F077F8606A00F074F8A06A0223C0
:1043000040F20112BDE81040911CFFF79BBF000076
:104310000000002070B510210120FBF797FF0E4C24
:1043200000234FF400751A462946E062FCF71DF899
:104330002846FFF75EFF20626800FFF75AFF40F251
:10434000011160620222881CFFF756FFA062002064
:104350006081A08170BD00000000002070B5184D84
:1043600000221346D5F824104FF4007430F8126080
:1043700021F8226001EB8206521C7380A242F5DB19
:10438000E86AFCF73EF800244FF480766B89A96A4E
:10439000686A51F8231030F8242000EB840051F8AB
:1043A0002410EB89408801EB430112FB02F210FB61
:1043B000002000B2FCF70AFA641CB442E6DD70BDCE
:1043C0000000002013B547F230542346012269460D
:1043D0000348FEF74FFD0028F7D100981CBD0000F0
:1043E000F401002010B5002821D0114B0022001F3D
:1043F000196803E0814203D80A4649680029F9D1C7
:1044000052B11368841A9C4204D1006818441060A9
:10441000104602E0506000E0186039B102680B1AE3
:10442000934203D10B681A4402604968416010BD91
:104430005000002086B0FDF7A5F9FFF7BDFAFEF7A2
:104440003BFEFEF7F5FDFEF771FDFEF7C3FEFF48EC
:10445000FD49012201600021C0E901121622C0E9D4
:10446000031241618161FDF7C9FC10B1F848FFF703
:10447000E3FDFEF775FEF7A0FFF7DEFD2820FDF750
:10448000C9F9F248FEF7E6FFF4A0FFF7D5FD2820B2
:10449000FDF7D1F9F7A0FFF7CFFDFFF73BFFDFF8FE
:1044A000F0A3FC4E0AF50070AAF5006B05900BF521
:1044B000007004900AF5806003900BF58060029014
:1044C0000AF5C06001900BF5C0604FF400790090D0
:1044D000307900287ED001287DD00228F8D1DB4831
:1044E000C438FCF71BFDEC48FCF718FD0020B07049
:1044F0002820FDF78FF9E9A0FFF79EFD70780028CE
:1045000075D000204FEA0A0454F82010091444F82A
:104510002010401C8028F7DBDD498023E94AA1F503
:104520004860FCF748FF4FF480773A46E549C748B2
:104530003369FFF73FF830694FEA0B0500F58070EB
:104540003061002055F82010091445F82010401C57
:104550008028F7DBDC4A802302F50071A1F590602A
:10456000FCF729FF3A46D849B8487369FFF722F8A3
:10457000706900F5807070615FF0800054F8201061
:10458000091444F82010401CFF28F7DDCD4A802391
:10459000A2F560700599FCF70EFF3A46C949AB4891
:1045A0003369FFF707F8306900F5807030618020CB
:1045B00055F82010091445F82010401CFF28F7DD9D
:1045C000C14A8023A2F520700499FCF7F4FE3A4614
:1045D000BD4902E08FE0A0E009E09C487369FEF766
:1045E000E9FF706900F580707061002070703078AC
:1045F000002876D04FF4807054464FF4C07700BF47
:1046000054F82010091444F82010401CB842F7DB7D
:10461000AC4A8023A2F560700399FCF7CCFE4FF4FE
:1046200080784246A74989483369FEF7C3FF30695D
:104630005D4600F58070306155F82800001445F89B
:10464000280008F10108B845F6DB9F4A8023A2F54F
:1046500020700299FCF7AFFE4FF480729A497B48B4
:104660007369FEF7A7FF7069B84600F58070706146
:1046700038464F4654F82010091444F82010401CC6
:10468000B842F7DB8F4A8023A2F560700199FCF7EE
:1046900092FE4FF4807422468A496C483369FEF7D3
:1046A00089FF306900F580703061404655F8201070
:1046B000091445F82010401CB842F7DB824A8023D9
:1046C000A2F520700099FCF776FE22467E495F48ED
:1046D0007369FEF76FFF706900F5807070610020EC
:1046E00030703069A0F5807030610020F081B081B9
:1046F00070810546DFE175A0FFF79EFC0020F061A8
:104700004FF48001B061C6E90401B070FFF7B6FD57
:104710004FF47A70FCF7B0FEDAE6B078F0B9012019
:10472000B0706C494C464A46A1F5C960FCF7B2FB33
:1047300028B169A0FFF780FC4548FFF77DFC2246C1
:1047400053495548FCF7A6FB28B168A0FFF774FC55
:104750003F48FFF771FC6AA0FFF76EFC70780028F5
:1047600070D000204FEA0A0454F82010091444F8CD
:104770002010401C8028F7DB45498023514AA1F5D1
:104780004860FCF718FE0A2200216048FCF7A4FDEF
:104790004FF480773A464B492C483369FEF70AFFBD
:1047A00030695D4600F580703061002055F82010BA
:1047B000091445F82010401C8028F7DB8023424A6A
:1047C00044495248FCF7F7FD0A2200214F48FCF704
:1047D00083FD3A463C491D487369FEF7EBFE70695C
:1047E00000F580707061802054F82010091444F89E
:1047F0002010401CFF28F7DD8023324A43480599EA
:10480000FCF7D9FD0A2200214048FCF765FD3A4635
:104810002C490E483369FEF7CDFE306900F58070F3
:104820003061802055F82010091445F82010401CF4
:10483000FF28F7DD8023244A34480499FCF7BBFDA8
:104840000A2265E075E00000001000A07001002061
:10485000640A000848656C6C6F0A0000496E697450
:10486000696C697A65206D656D6F727920446F6E31
:10487000650A0000696E6974206665617475726509
:104880002063616C63756C6174696F6E0A0000006F
:10489000F40E0020000000205800002053746F70B8
:1048A000706564205265636F7264696E6720616E23
:1048B000642053656E642044617461204F76657294
:1048C0000A000000F4050020F404002049646C652F
:1048D0000A000000F40600206572726F7220696E93
:1048E0002066696C746572310A0000006572726F2F
:1048F0007220696E2066696C746572300A0000006F
:10490000737461727465640A000000007402002010
:104910000021A048FCF7E0FC9F493A46A1F56170F0
:104920007369FEF747FE706900F5807070610020C2
:104930007070307800283FF4EFAE4FF4807054462A
:104940004FF4C07754F82010091444F82010401C8C
:10495000B842F7DB8023914A8E480399FCF72BFD80
:104960000A2200218B48FCF7B7FC8C494FF4807871
:104970004246A1F284403369FEF71CFE30695D4671
:1049800000F58070C6F8100055F82800001445F8AE
:10499000280008F10108B845F6DB80237E4A7D48EF
:1049A0000299FCF708FD0A2200217A48FCF794FCE2
:1049B00079494FF48072A1F561707369FEF7FAFDD1
:1049C0007069B84600F58070706138464FEA090793
:1049D00054F82010091444F82010401CB842F7DBAA
:1049E00080236E4A6B480199FCF7E5FC0A220021FE
:1049F0006848FCF771FC69494FF480742246A1F2C3
:104A000084403369FEF7D6FD306900F5807030616F
:104A10004FEA080055F82010091445F82010401CF2
:104A2000B842F7DB80235C4A5A480099FCF7C3FC84
:104A30000A2200215748FCF74FFC57492246A1F5AE
:104A400061707369FEF7B6FD706900F58070706182
:104A5000002030703CE552492B464FF48072A1F59E
:104A60002170FEF777FD4E4F00244FF481783819FE
:104A7000395D407801EB002001B2F18049A0FFF7D9
:104A8000DBFA7089404511D8B289306AF18820F884
:104A90001210B189494507D10021B181FFF75EFCB1
:104AA0007089401C708101E0491CB181A41CFF2C5D
:104AB000DDDD05F5807530698542CCD970694FF42C
:104AC0008005A0F5807070610120F0810020B08128
:104AD000708131E02F492B4680314FF48072A1F56F
:104AE000C270FEF737FD2B4F00244FF481788037DA
:104AF0003919385D497800EB012001B2318129A0D4
:104B0000FFF79AFA7089404511D8B289306AF18866
:104B100020F81210B189494507D10021B181FFF772
:104B20001DFC7089401C708101E0491CB181A41CEE
:104B3000FF2CDDDD05F5807570698542CAD91AA0A4
:104B4000B169FFF779FA1FA0F169FFF775FA25A09F
:104B5000FFF772FA2D4D2846FEF786FD05F5A67083
:104B600060210024C0E90014C4614461446201462C
:104B70008462274A2846FCF7FFFF2846FEF750FBD1
:104B800024A0FFF759FA2820FCF755FE3471FFF7EF
:104B9000ADFB9DE474020020F4040020F405002025
:104BA000F403002025690A004E756D626572206F5E
:104BB00066206275666665722066756C6C3A2025A3
:104BC000640A00004E756D626572206F6620646530
:104BD0007465637465642066756C6C3A2025640A9C
:104BE0000000000046696E69736865642053656E55
:104BF00064696E6720446174612C20457261736939
:104C00006E67206D656D6F72790A0000700100207B
:104C100020BF020045726173696E6720446F6E6544
:104C20000A000000F0B50B30154D20F007010024FC
:104C3000144A0FE003688B420BD38B4205D95E1AEE
:104C400043184768C3E9006700E04368136002C087
:104C500004E0021D10680028ECD12046002802D193
:104C6000286808B10020F0BD064A07481060074ACE
:104C7000121A22F00702C0E9002401202860D7E7B9
:104C80005400002050000020AC170020A83700205E
:104C900000000000000000000102030406070809EC
:104CA000A0860100400D0300801A060000350C00AC
:104CB00040420F0080841E0000093D0000127A006F
:104CC0000024F40000366E010048E801006CDC02AC
:104CD00000000000010203040004000200060001BD
:104CE0000005000300078000800480028006800128
:104CF00080058003800740004004400240064001D8
:104D0000400540034007C000C004C002C006C00107
:104D1000C005C003C0072000200420022006200197
:104D2000200520032007A000A004A002A006A001E7
:104D3000A005A003A0076000600460026006600197
:104D4000600560036007E000E004E002E006E001C7
:104D5000E005E003E0071000100410021006100147
:104D60001005100310079000900490029006900127
:104D700090059003900750005004500250065001D7
:104D8000500550035007D000D004D002D006D00107
:104D9000D005D003D0073000300430023006300197
:104DA000300530033007B000B004B002B006B001E7
:104DB000B005B003B0077000700470027006700197
:104DC000700570037007F000F004F002F006F001C7
:104DD000F005F003F00708000804080208060801BF
:104DE00008050803080788008804880288068801E7
:104DF0008805880388074800480448024806480197
:104E0000480548034807C800C804C802C806C801C6
:104E1000C805C803C8072800280428022806280156
:104E2000280528032807A800A804A802A806A801A6
:104E3000A805A803A8076800680468026806680156
:104E4000680568036807E800E804E802E806E80186
:104E5000E805E803E8071800180418021806180106
:104E600018051803180798009804980298069801E6
:104E70009805980398075800580458025806580196
:104E8000580558035807D800D804D802D806D801C6
:104E9000D805D803D8073800380438023806380156
:104EA000380538033807B800B804B802B806B801A6
:104EB000B805B803B8077800780478027806780156
:104EC000780578037807F800F804F802F806F80186
:104ED000F805F803F80704000404040204060401BA
:104EE0000405040304078400840484028406840106
:104EF00084058403840744004404440244064401B6
:104F0000440544034407C400C404C402C406C401E5
:104F1000C405C403C4072400240424022406240175
:104F2000240524032407A400A404A402A406A401C5
:104F3000A405A403A4076400640464026406640175
:104F4000640564036407E400E404E402E406E401A5
:104F5000E405E403E4071400140414021406140125
:104F60001405140314079400940494029406940105
:104F700094059403940754005404540254065401B5
:104F8000540554035407D400D404D402D406D401E5
:104F9000D405D403D4073400340434023406340175
:104FA000340534033407B400B404B402B406B401C5
:104FB000B405B403B4077400740474027406740175
:104FC000740574037407F400F404F402F406F401A5
:104FD000F405F403F4070C000C040C020C060C019D
:104FE0000C050C030C078C008C048C028C068C01C5
:104FF0008C058C038C074C004C044C024C064C0175
:105000004C054C034C07CC00CC04CC02CC06CC01A4
:10501000CC05CC03CC072C002C042C022C062C0134
:105020002C052C032C07AC00AC04AC02AC06AC0184
:10503000AC05AC03AC076C006C046C026C066C0134
:105040006C056C036C07EC00EC04EC02EC06EC0164
:10505000EC05EC03EC071C001C041C021C061C01E4
:105060001C051C031C079C009C049C029C069C01C4
:105070009C059C039C075C005C045C025C065C0174
:105080005C055C035C07DC00DC04DC02DC06DC01A4
:10509000DC05DC03DC073C003C043C023C063C0134
:1050A0003C053C033C07BC00BC04BC02BC06BC0184
:1050B000BC05BC03BC077C007C047C027C067C0134
:1050C0007C057C037C07FC00FC04FC02FC06FC0164
:1050D000FC05FC03FC0702000204020202060201B6
:1050E0000205020302078200820482028206820114
:1050F00082058203820742004204420242064201C4
:10510000420542034207C200C204C202C206C201F3
:10511000C205C203C2072200220422022206220183
:10512000220522032207A200A204A202A206A201D3
:10513000A205A203A2076200620462026206620183
:10514000620562036207E200E204E202E206E201B3
:10515000E205E203E2071200120412021206120133
:105160001205120312079200920492029206920113
:1051700092059203920752005204520252065201C3
:10518000520552035207D200D204D202D206D201F3
:10519000D205D203D2073200320432023206320183
:1051A000320532033207B200B204B202B206B201D3
:1051B000B205B203B2077200720472027206720183
:1051C000720572037207F200F204F202F206F201B3
:1051D000F205F203F2070A000A040A020A060A01AB
:1051E0000A050A030A078A008A048A028A068A01D3
:1051F0008A058A038A074A004A044A024A064A0183
:105200004A054A034A07CA00CA04CA02CA06CA01B2
:10521000CA05CA03CA072A002A042A022A062A0142
:105220002A052A032A07AA00AA04AA02AA06AA0192
:10523000AA05AA03AA076A006A046A026A066A0142
:105240006A056A036A07EA00EA04EA02EA06EA0172
:10525000EA05EA03EA071A001A041A021A061A01F2
:105260001A051A031A079A009A049A029A069A01D2
:105270009A059A039A075A005A045A025A065A0182
:105280005A055A035A07DA00DA04DA02DA06DA01B2
:10529000DA05DA03DA073A003A043A023A063A0142
:1052A0003A053A033A07BA00BA04BA02BA06BA0192
:1052B000BA05BA03BA077A007A047A027A067A0142
:1052C0007A057A037A07FA00FA04FA02FA06FA0172
:1052D000FA05FA03FA0706000604060206060601A6
:1052E00006050603060786008604860286068601F2
:1052F00086058603860746004604460246064601A2
:10530000460546034607C600C604C602C606C601D1
:10531000C605C603C6072600260426022606260161
:10532000260526032607A600A604A602A606A601B1
:10533000A605A603A6076600660466026606660161
:10534000660566036607E600E604E602E606E60191
:10535000E605E603E6071600160416021606160111
:1053600016051603160796009604960296069601F1
:1053700096059603960756005604560256065601A1
:10538000560556035607D600D604D602D606D601D1
:10539000D605D603D6073600360436023606360161
:1053A000360536033607B600B604B602B606B601B1
:1053B000B605B603B6077600760476027606760161
:1053C000760576037607F600F604F602F606F60191
:1053D000F605F603F6070E000E040E020E060E0189
:1053E0000E050E030E078E008E048E028E068E01B1
:1053F0008E058E038E074E004E044E024E064E0161
:105400004E054E034E07CE00CE04CE02CE06CE0190
:10541000CE05CE03CE072E002E042E022E062E0120
:105420002E052E032E07AE00AE04AE02AE06AE0170
:10543000AE05AE03AE076E006E046E026E066E0120
:105440006E056E036E07EE00EE04EE02EE06EE0150
:10545000EE05EE03EE071E001E041E021E061E01D0
:105460001E051E031E079E009E049E029E069E01B0
:105470009E059E039E075E005E045E025E065E0160
:105480005E055E035E07DE00DE04DE02DE06DE0190
:10549000DE05DE03DE073E003E043E023E063E0120
:1054A0003E053E033E07BE00BE04BE02BE06BE0170
:1054B000BE05BE03BE077E007E047E027E067E0120
:1054C0007E057E037E07FE00FE04FE02FE06FE0150
:1054D000FE05FE03FE070100FF7F0000FF7F320094
:1054E000FF7F6400FF7F9600FF7FC900FF7FFB0006
:1054F000FE7F2D01FE7F5F01FD7F9201FC7FC401D5
:10550000FC7FF601FB7F2802FA7F5B02F97F8D02A8
:10551000F87FBF02F77FF102F67F2403F47F560382
:10552000F37F8803F27FBA03F07FED03EE7F1F0461
:10553000ED7F5104EB7F8304E97FB604E77FE80445
:10554000E57F1A05E37F4C05E17F7F05DF7FB1052D
:10555000DD7FE305DA7F1506D87F4706D67F7A061A
:10556000D37FAC06D07FDE06CE7F1007CB7F42070D
:10557000C87F7507C57FA707C27FD907BF7F0B0804
:10558000BC7F3D08B87F6F08B57FA208B17FD40803
:10559000AE7F0609AA7F3809A77F6A09A37F9C0905
:1055A0009F7FCE099B7F000A977F330A937F650A0E
:1055B0008F7F970A8B7FC90A877FFB0A827F2D0B1B
:1055C0007E7F5F0B797F910B757FC30B707FF50B2F
:1055D0006B7F270C677F590C627F8B0C5D7FBD0C46
:1055E000587FEF0C537F210D4D7F530D487F850D64
:1055F000437FB70D3D7FE90D387F1B0E327F4D0E87
:105600002D7F7F0E277FB10E217FE30E1B7F150FAD
:10561000157F470F0F7F790F097FAB0F037FDD0FDA
:10562000FD7E0E10F67E4010F07E7210E97EA41012
:10563000E37ED610DC7E0811D57E3911CF7E6B114A
:10564000C87E9D11C17ECF11BA7E0112B37E321287
:10565000AB7E6412A47E96129D7EC812957EF912CE
:105660008E7E2B13867E5D137F7E8E13777EC01316
:105670006F7EF213677E23145F7E5514577E871466
:105680004F7EB814477EEA143F7E1B15377E4D15BA
:105690002E7E7F15267EB0151D7EE215147E131614
:1056A0000C7E4516037E7616FA7DA816F17DD91676
:1056B000E87D0A17DF7D3C17D67D6D17CD7D9F17DE
:1056C000C37DD017BA7D0218B07D3318A77D64184A
:1056D0009D7D9618947DC7188A7DF818807D2A19BB
:1056E000767D5B196C7D8C19627DBD19587DEF1933
:1056F0004E7D201A437D511A397D821A2F7DB31AAF
:10570000247DE41A197D161B0F7D471B047D781B31
:10571000F97CA91BEE7CDA1BE37C0B1CD87C3C1CBF
:10572000CD7C6D1CC27C9E1CB77CCF1CAB7C001D4D
:10573000A07C311D947C621D897C931D7D7CC41DE1
:10574000717CF51D667C251E5A7C561E4E7C871E7C
:10575000427CB81E367CE91E297C191F1D7C4A1F1D
:10576000117C7B1F057CAC1FF87BDC1FEB7B0D20C5
:10577000DF7B3E20D27B6E20C57B9F20B97BD02073
:10578000AC7B00219F7B3121927B6121847B922124
:10579000777BC2216A7BF3215D7B23224F7B5422DE
:1057A000427B8422347BB422267BE522197B15239D
:1057B0000B7B4523FD7A7623EF7AA623E17AD62365
:1057C000D37A0724C57A3724B67A6724A87A97242F
:1057D0009A7AC7248B7AF7247D7A28256E7A582501
:1057E0005F7A8825507AB825427AE825337A1826D8
:1057F000247A4826157A7826057AA826F679D826B6
:10580000E7790727D8793727C8796727B97997279C
:10581000A979C7279979F6278A7926287A79562887
:105820006A7986285A79B5284A79E5283A79152976
:105830002A794429197974290979A329F978D3296E
:10584000E878022AD878322AC778612AB678912A6D
:10585000A678C02A9578EF2A84781F2B73784E2B70
:1058600062787D2B5178AD2B4078DC2B2E780B2C79
:105870001D783A2C0C78692CFA77982CE977C82C8B
:10588000D777F72CC577262DB477552DA277842DA1
:105890009077B32D7E77E22D6C77112E5A773F2EBD
:1058A00047776E2E35779D2E2377CC2E1077FB2EE3
:1058B000FE76292FEB76582FD976872FC676B52F0F
:1058C000B376E42FA07613308E7641307B7670303D
:1058D00068769E305476CD304176FB302E762A3174
:1058E0001B76583107768631F475B531E075E331B2
:1058F000CC751132B9754032A5756E3291759C32F6
:105900007D75CA326975F832557526334175543341
:105910002D7582331975B0330475DE33F0740C3491
:10592000DB743A34C7746834B27496349E74C434E9
:105930008974F23474741F355F744D354A747B3545
:105940003574A8352074D6350B740436F6733136A9
:10595000E0735F36CB738C36B573BA36A073E73617
:105960008A731437757342375F736F3749739C3787
:105970003373CA371D73F73707732438F172513800
:10598000DB727E38C572AB38AF72D8389872063980
:10599000827232396B725F3955728C393E72B93905
:1059A0002772E6391172133AFA71403AE3716C3A90
:1059B000CC71993AB571C63A9E71F23A86711F3B25
:1059C0006F714C3B5871783B4171A53B2971D13BBC
:1059D0001271FD3BFA702A3CE270563CCB70833C5E
:1059E000B370AF3C9B70DB3C8370073D6B70333D05
:1059F0005370603D3B708C3D2370B83D0A70E43DB0
:105A0000F26F103EDA6F3C3EC16F683EA96F933E65
:105A1000906FBF3E776FEB3E5F6F173F466F433F20
:105A20002D6F6E3F146F9A3FFB6EC53FE26EF13FE4
:105A3000C96E1D40AF6E4840966E73407D6E9F40AC
:105A4000636ECA404A6EF640306E2141176E4C417B
:105A5000FD6D7741E36DA241CA6DCE41B06DF94154
:105A6000966D24427C6D4F42626D7A42486DA5422C
:105A70002D6DD042136DFA42F96C2543DE6C504314
:105A8000C46C7B43A96CA5438F6CD043746CFB43FF
:105A9000596C25443F6C5044246C7A44096CA544ED
:105AA000EE6BCF44D36BFA44B86B24459C6B4E45E8
:105AB000816B7845666BA3454A6BCD452F6BF745E7
:105AC000136B2146F86A4B46DC6A7546C16A9F46ED
:105AD000A56AC946896AF3466D6A1C47516A4647FA
